S0210000776973756E5F6E6F64655F6D6F6E69746F72696E675F666732382E7333375D
S315080060000010002029BA0008496A0508496A0508E7
S31508006010496A0508496A0508496A0508496A050872
S31508006020496A0508496A0508496A0508496A050862
S31508006030496A0508BC3F0708DF060108496A0508DA
S31508006040496A0508496A0508496A0508496A050842
S31508006050496A0508496A0508496A0508496A050832
S31508006060496A0508496A0508496A0508558E0008F7
S31508006070F15A0508496A0508496A0508496A05087A
S31508006080496A0508496A0508496A0508496A050802
S31508006090496A0508496A050835C70008496A0508AE
S315080060A0496A0508496A0508496A0508496A0508E2
S315080060B0496A0508496A0508095B0208A5650208D0
S315080060C0EFFA0508EBFA0508395D0208FBFA050838
S315080060D0F3FA05087D650208F7FA0508E56502087A
S315080060E0D1660208496A0508496A0508496A050821
S315080060F0496A0508496A0508496A0508496A050892
S31508006100496A0508496A0508496A0508496A050881
S31508006110496A0508496A0508496A0508496A050871
S31508006120496A0508496A0508496A0508496A050861
S31508006130496A0508496A0508496A0508496A050851
S31508006140496A0508496A0508496A0508B90B010834
S31508006150496A0508496A05083F970508A9410208DA
S31508006160496A0508496A0508A7F80508ADF8050843
S31508006170496A0508496A0508496A050800000000D1
S31508006180013800D0FCE770472DE9F0410023154699
S31508006190C2E900014FF47A7280460F464DF006FFB9
S315080061A018A3D3E9002304460E46404639464DF067
S315080061B0FDFE134B80B228815843241A66F1000667
S315080061C04FF461620023204631464DF0EFFE4FF44E
S315080061D06163C0B2A8725843241A20464FF03C02A5
S315080061E04FF0000366F100014DF0E0FEC0B2E87220
S315080061F0C0EB0010A4EB80042C73BDE8F08100BF4F
S3150800620080510100005C2605000000000000000027
S315080062102DE9F04F93B0CDE90A32DDE91C530E9310
S3150800622053EC102BCDE90801104619468DED060BE7
S315080062301E9E4DF093FC80B1DDE906014FF0FF325A
S31508006240C54B4DF0B3FC40B9DDE906014FF0FF320E
S315080062506FF480134DF08CFC70B1DDE908019DEDFB
S31508006260060B0E9B1E96CDE91C53DDE90A3213B0C8
S31508006270BDE8F04F00F088B90022DDE906010023E9
S315080062804DF076FC002800F03381DDE906A303F122
S31508006290004BCBF30A5016F48063A0F2FF3008BF18
S315080062A006250F934DF088F99BA3D3E900234DF0FB
S315080062B0EDF99BA3D3E900234DF032F8CBF3130491
S315080062C0894644F07F5180460022A44B504641F44B
S315080062D040114DF023F894A3D3E900234DF0D6F9E5
S315080062E002460B46404649464DF01AF84DF068FC02
S315080062F004464DF061F98EA3D3E90023804689460A
S315080063004DF0C4F90022964B4DF00AF84DF058FCB2
S3150800631089A3D3E900230746494640464DF0B6F916
S315080063208046384689464DF047F985A3D3E90023C8
S315080063304DF0ACF902460B46404649464CF0EEFF96
S3150800634002460B46CDE90C234DF0A0F9DDE90C23F6
S3150800635080468946104619464CF0E2FF0022CDE9F0
S315080063601001804B404649464DF0BAFA00227E4B52
S315080063704CF0D6FF02460B46404649464DF0B0FA69
S3150800638000227A4B4CF0CCFF02460B464046494663
S315080063904DF0A6FADDE90C238046894600204FF029
S315080063A080414CF0BBFF02460B46404649464CF03E
S315080063B0B7FF02460B46DDE910014DF091FA07F2E8
S315080063C0FF3700226A4B4CF0ABFF00223B054DF02D
S315080063D05DF952465B46804689464DF0E7FB002844
S315080063E040F08980CDE90C8904F16303C72B34BFDB
S315080063F00427052731051BD553A3D3E900235046A7
S3150800640059464DF0C9FB00287FD051A3D3E9002394
S31508006410504659464DF0ACFB002876D00027A542D9
S31508006420C6BF2C1B04F1FF3500253C4646F48066A2
S315080064300E9B9F422CBF4FF00008A3EB070816F0EF
S31508006440020903D0002F18BF4FF000083CB1DDE960
S315080064500C23504659464DF043FA82468B46DDE9F1
S315080064600601002200234DF083FB10B10BF1004317
S315080064709B46DDE9080126F40063CDE90183DDE9E1
S315080064800A324BEC10AB009500F07EF802465FB37B
S31508006490DDE9091316F0200F00F10105089E0CBF6F
S315080064A065204520B047DDE908010523002205934C
S315080064B00A23002CCDE9023207F1FF374FEAD473DD
S315080064C0B8BF64422A46019304970A9B009458F081
S315080064D081F90246B9F1000F06D00B9BC41A0B9B33
S315080064E01A190E9BA34245D8104613B0BDE8F08F83
S315080064F0DDE906ABCDE60022404649461A4B4DF08B
S31508006500EFF9013CCDE90C016EE7002D90D00F9B09
S31508006510002B8DD0013D8BE7FB799F501344D33F69
S31508006520B3C8608B288AC63F61436F63A787D23F8B
S3150800653071A379094F930A401655B5BBB16B024052
S31508006540EF39FAFE422EE63F2D431CEBE2361A3FA0
S315080065500000000080842E41FFFFEF7F0000F83F17
S315080065600000E03F00002C400000244000001840D6
S315080065700000F03F2020DDE90913089DA8470134F3
S31508006580ADE700BF000000002DE9F04F97B05BECC7
S3150800659010ABDDE92057CDE90501CDE907235046C3
S315080065A052465B465946229E4DF0D8FA70B90323E7
S315080065B0CDE902760193B04B0093DDE90501DDE9EB
S315080065C0072358F027F817B0BDE8F08F4FF0FF32D1
S315080065D06FF48013504659464DF0CAFA28B1042381
S315080065E0CDE902760193A54BE6E74FF0FF32504618
S315080065F05946A34B4DF0DAFA68B1A24A06F00403ED
S31508006600002B08BF0322A04B1CBF13460422CDE96A
S3150800661002760192D0E7504693A3D3E90023594660
S315080066204DF0C4FA38B992A3D3E900235046594627
S315080066304DF09EFA68B1DDE90723DDE905014BEC6B
S3150800664010ABCDE92176209517B0BDE8F04FFFF7DE
S31508006650DFBD00220023504659464DF089FA00282E
S3150800666000F09A805B465246002000214CF056FE08
S31508006670012382468B46099316F4806400F08E80C7
S31508006680092D40F28E80002430210EABA5F10902B7
S315080066900134202C03F8011BA5EB040901D0944210
S315080066A0F6D1594650464DF08BFA784B054603EB22
S315080066B0C90393ED007B8DED0A7B4CF07DFF024606
S315080066C00B46504659464CF029FEDDE90A234CF0A4
S315080066D0DDFF02460B46CDE90C234DF099FA8046BC
S315080066E04CF05AFF02460B46DDE90C014CF016FE4B
S315080066F002460B46CDE90C230022654B4DF056FAAF
S31508006700002851D008F1010840464CF045FF0246E2
S315080067100B46DDE90A014DF035FA10B14FF00008D5
S315080067200135B9F1000F50D128464CF045FF024615
S315080067300B46504659464CF0F1FD0022544B804614
S3150800674089464DF015FA30B1002240464946504B6D
S315080067504DF02CFA10B1E80700D501350A210EAB29
S315080067601A19202C0AD095FBF1F001FB105530358B
S3150800677002F8015B013405460028F2D106F003024F
S31508006780012A57D1002F55D0099A12B916F00C0FC5
S3150800679000D0013F302245E009906DE74FF0060929
S315080067A07FE7A94600247CE70022DDE90C01384B87
S315080067B04DF0DEF90028B4D1B8F1000F02D018F078
S315080067C0010FAED008F10108ABE70A210EAB23444E
S315080067D0202C0ED0B8FBF1F001FB1082B8F1090F9E
S315080067E002F1300209F1FF3904F1010403F8012B23
S315080067F011D83021A1440EAA202CAFD0A14504F10E
S3150800680001030AD11C4609F158030DEB03092E238F
S3150800681009F8203CA2E78046DAE7A1541C46EBE7D4
S315080068201A550134A74205D9202CF9D1CDE90276AB
S315080068300194C1E6202CF9D0099A3AB12D2104F128
S3150800684058026A4402F8201C0134EFE7710704D5A0
S3150800685004F158022B216A44F4E73207E6D504F11D
S31508006860580220216A44EDE70000000065CDCD41BD
S315080068700000000065CDCDC1675807086B580708AA
S31508006880FFFFEF7F5E580708635807087058070828
S315080068900000E03F0000000070B5A8B02C220021DF
S315080068A01DA869F034FB4FF002331F9340F20B1317
S315080068B0814D14ACADF89C300FCD0FC40FCD0FC46D
S315080068C02B687E4923607E4B7E4807930023CDE9DB
S315080068D008330A9320F008F87B4D286000285BD01F
S315080068E0012159F017F920B140F2F531774821F026
S315080068F0B3FA286858F09BFD754E3070286858F032
S3150800690098FD744B74491870286820F067FB044694
S3150800691000283BD13378714E5BB9714824F0A6FA4A
S31508006920306010BB4FF485616E4B6F4A67484DF077
S31508006930CDFC6E4824F09AFA30600028EDD0224645
S31508006940C189286820F06CF801220321286859F0CB
S31508006950F4F833682146586824F0C2FA0446A8B900
S315080069605F4824F083FA3060C0B1C18900222868E4
S3150800697020F056F801220321286859F0DEF833681A
S315080069800421586824F0ACFA044638B1234622217B
S315080069900220574A59F090FB28B070BD07F078FCE2
S315080069A0544A04ABCDE904010393A2F1080113F894
S315080069B0010B02F8010D9142F9D10622FF210BA81D
S315080069C069F0A5FA0622FF210DF1320069F09FFA57
S315080069D0182200210EA869F09AFA08220EA903A81F
S315080069E069F008FB41F234231C22002120A8ADF8E7
S315080069F02C3069F08CFA28681DA920F0E1FC0446C1
S31508006A000028C3D13C49286859F02AF904460028C9
S31508006A10BCD13A49286859F00DF904460028B5D181
S31508006A203749286820F088F804460028AED120A304
S31508006A30D3E90023CDE90023286859F013F9044661
S31508006A400028A3D12F4A3049286859F04BF9044643
S31508006A5000289BD101201FF093FF00289CD0A0237B
S31508006A602A4A07A8D3802A4A136007F087FD294BCC
S31508006A70186020B940F27141274B1B4A56E7274A4E
S31508006A802749284825F058FD264843F03DF9214670
S31508006A90254814AA07F026FE244B186000287FF420
S31508006AA07BAF40F27D41224B0F4A3FE7AFF30080B0
S31508006AB0488D01C10340000058D10708B1AD02084E
S31508006AC054C80708BC130020D86D002074C30708F3
S31508006AD025BA002024BA002007001100905D002086
S31508006AE07D0F060869C8070845D00708670F060816
S31508006AF0B7C807082EBA002056D1070854D1070888
S31508006B00DC6D0020CC150020D05D0020DC130020B1
S31508006B102C6E00203C6E002081C807089DC8070817
S31508006B20C1B00208F86D002025BD0208446E002099
S31508006B30A6C80708000000002DE9F7430546604C83
S31508006B40222110205F4A59F0B7FA18222946204612
S31508006B5069F050FAA27B5C4BDFF8B0911A70E37CBF
S31508006B60002289F800300023CDE90023574D002282
S31508006B704FF40073286859F075F818B1012003B06E
S31508006B80BDE8F083524B534E1B787BB9524824F02C
S31508006B906DF904463460F4B90220504A222159F0AE
S31508006BA08BFA01224E4B21201A70E8E74D4B4E4CCA
S31508006BB01A884E4B286853F822104D4A8B68216074
S31508006BC0336020F095F922684A4B946824221B8882
S31508006BD002FB0344DEE7484B1C60434BD3F80080B6
S31508006BE0B8F1000F07D000232420D8F80C108B42E8
S31508006BF008D1002727E040F2AA61404B404A4148A5
S31508006C004DF064FBD8F8087000FB0377FA695278F0
S31508006C10120912F00E0F45D0052A43D80022F98929
S31508006C20286837601FF0FCFE01220321286858F007
S31508006C3084FF33680021586824F052F9324B93F9DF
S31508006C40000024F085F91CA3D3E90023CDE900232D
S31508006C50286859F007F8D8F80830BB4214D0D98903
S31508006C600022286833601FF0DBFE01220321286812
S31508006C7058F063FF33680421586824F031F9224B31
S31508006C8093F9000024F064F999F8003034601B0980
S31508006C9013F00E0F08D024F079FE012024F0CAFB69
S31508006CA000206CE70133A2E701220721286859F082
S31508006CB0CDF80028EFD061E7488D01C103420000F6
S31508006CC0945D0020ECCA07081BBA0020D86D002086
S31508006CD01FBA0020905D0020C9AF020808CB07083C
S31508006CE01CBA002046750020845D0020481000204C
S31508006CF039B00208447500208C5D002044CB070893
S31508006D00F3CE070874C30708E41700201ABA002050
S31508006D100348044B834202D0034B03B1184770471C
S31508006D20602200206022002000000000064B074970
S31508006D30C91A891048BF0131491003D0044B0BB159
S31508006D4001481847704700BF6022002060220020D3
S31508006D500000000010B5064C237843B9FFF7D8FFAA
S31508006D60044B13B10448AFF300800123237010BD10
S31508006D706475002000000000B081080808B5054BBE
S31508006D801BB105490548AFF30080BDE80840FFF789
S31508006D90CDBF00BF0000000018410020B0810808E0
S31508006DA0A3F5803A704700BF174B002B08BF134B5B
S31508006DB09D46FFF7F5FF00218B460F461348144AF8
S31508006DC0121A69F0A4F80E4B002B00D098470D4B09
S31508006DD0002B00D098470020002104000D000D4824
S31508006DE0002802D00C48AFF300804DF02DFF20009C
S31508006DF029004EF01DFE4DF08FFA00BF0000080076
S31508006E0000000000000000000010002060220020A2
S31508006E1078C20020000000000000000008B501F05C
S31508006E203BFF0022084BC3E90001084BC3E90001F8
S31508006E30074B08491A8000220023C1E900230649A6
S31508006E40C1E9002308BD00BFD8220020D0220020B7
S31508006E50C8740020C8220020C02200202DE9F04373
S31508006E609BB000AF00230446F81CC7E9013359F06C
S31508006E708DFA18B181B2184816F060FE6A46FB789A
S31508006E80F81CA2EBC3039D466946E84659F093FAF7
S31508006E9018B181B2114816F051FE0026FB78F5B2FA
S31508006EA0AB4210D908EBC509484607F10C0159F061
S31508006EB09BFAFB6A0136002BF0D158F83500D9F851
S31508006EC004103B1D03C33B1D03CB206020466C37D3
S31508006ED06160BD46BDE8F08380060708B906070865
S31508006EE013B56846FFF7BAFF064C009B06492360B0
S31508006EF0019B06486360E379A27902B0BDE81040B9
S31508006F0016F030BE157E0020ED060708D68600204E
S31508006F1030B595B04EF085FD0FAD024615492846A9
S31508006F2016F020FEFFF7DCFF134B144CD3E90A01D9
S31508006F30CDE90C01D3E90801CDE90A01D3E9060137
S31508006F40CDE90801D3E90401CDE90601D3E9022315
S31508006F50CDE904230A4B4FF480610193094B20467F
S31508006F600093094A094B029516F010FE204615B003
S31508006F7030BD00BF07DB07086022002025820020FD
S31508006F80D68600207807070804070708DE8600204B
S31508006F902DE9F04FA3B080464EF043FD0EAF0246F2
S31508006FA06149384616F0DEFDFFF79AFF5F4BDFF8BA
S31508006FB0AC911B78052B63D101F06EFE5C4A0DF18E
S31508006FC0600AD2E90045041B61EB050529462046FF
S31508006FD001F03CFE5449024613A816F0C3FDD9E950
S31508006FE00001201845EB010101F030FE514E024622
S31508006FF04D49504616F0B6FDD6E9000101F026FEC9
S315080070000DF1740B02464849584616F0ABFDD9E90E
S315080070100032E41845EB020520462946CDE90AABBD
S315080070204CF0FEFA0022444B4CF030FB82468B466D
S31508007030D6E90001201845EB01014CF0F1FA0B46A0
S315080070400246594650464CF04BFCCDE908013B4BED
S315080070501B8806933A4B059313ABCDE90373394B5B
S315080070604FF480610293384B384A0193384B3948BC
S315080070700093434616F08AFD364823B0BDE8F08FE4
S3150800708001F00AFE344ADFF8ACA0D2E90056451BE7
S3150800709061EB06063146284601F0D8FD224902462C
S315080070A013A816F05FFDD9E9000101F0CFFD0DF137
S315080070B0600B02461C49584616F054FDDAE90001F1
S315080070C0281846EB010101F0C1FD1DAB0246164921
S315080070D0184616F047FDD9E900491DAB2046494632
S315080070E0CDE90AB34CF09CFA0022134B4CF0CEFAC9
S315080070F0CDE90C01DAE90031E41849EB0101601920
S3150800710046EB01014CF08CFA0B460246DDE90C0110
S315080071104CF0E6FBCDE90801084B1B88069313AB38
S315080071200593074B99E700BF07DB0708258600206C
S31508007130D8220020C022002000005940C874002030
S3150800714052080708D6860020780707087D0707082B
S31508007150DE86002025820020D0220020C8220020BA
S3150800716037B56049012059F02DF805465E495D4856
S3150800717004F06AFA5D4C002D00F09C804FF48061A3
S315080071805B4A206816F002FD4EF04BFC2368024667
S315080071905849002057F03EFC4EF043FC2268014651
S315080071A0544816F0CBFC4FF48061534AABB22068C2
S315080071B016F0ECFC0020216857F02CFC206816F02D
S315080071C0BDFC4FF480614D4B4D4A206816F0DEFC3D
S315080071D04EF027FC236802464649002057F01AFC61
S315080071E04EF01FFC22680146424816F0A7FC4348A9
S315080071F068F00DFF434A014640484FF0F6FA424907
S31508007200404804F021FA414B4FF480615B88404ABC
S31508007210009320683C4B16F0B9FC4EF002FC23683C
S3150800722002463449002057F0F5FB4EF0FAFB226877
S315080072300146304816F082FC4FF48061354B364AD9
S31508007240206816F0A3FC4EF0ECFB23680246294999
S31508007250002057F0DFFB4EF0E4FB22680146254884
S3150800726016F06CFC2B4868F0D2FE2C4A01462948D9
S315080072704FF0BBFA2A49294804F0E6F9294B4FF49E
S3150800728080615B88284A00932068254B16F07EFCAF
S315080072904EF0C7FB236802461649002057F0BAFB92
S315080072A04EF0BFFB22680146124816F047FC2846F6
S315080072B003B030BD4FF480610B4B1C4A206816F0B2
S315080072C065FC4EF0AEFB236802460A49284657F08D
S315080072D0A1FB4EF0A6FB22680146064816F02EFCD6
S315080072E06FE700BF057E0020DD7D00209841002065
S315080072F0EC4F0708550807085D080708BD08070882
S31508007300CA0807085C4100208D7D002054410020F2
S31508007310E50807080C09070819090708404100206D
S31508007320657D002038410020350907089A080708B6
S3150800733070B5FFF715FF03220221002058F0C9FE99
S315080073404D4A411C03464D4C106023D14FF48061D1
S315080073504B4A206816F01AFC4EF063FB2368024677
S315080073604849002057F056FB4EF05BFB2268014661
S31508007370444816F0E3FB444A4FF48061206816F04F
S3150800738005FC2168002057F045FB206816F0D6FB5F
S31508007390012070BD4FF480613C4A206816F0F6FB68
S315080073A04EF03FFB236802463649002057F032FB71
S315080073B04EF037FB22680146324816F0BFFB344BC5
S315080073C0344A02211A600020032258F082FE324D08
S315080073D0421C0346286016D14FF48061284A20686B
S315080073E016F0D4FB4EF01DFB236802462549002003
S315080073F057F010FB4EF015FB22680146214816F09F
S315080074009DFB264AB8E74FF48061254A206816F0A6
S31508007410BDFB4EF006FB236802461A49002057F0CA
S31508007420F9FA4EF0FEFA22680146164816F086FB6F
S315080074301C4E1D4C1D4B23602B68354645F8043BF6
S315080074400FCC0FC594E8070041F2030385E807004F
S3150800745073843223736242F22A3315484FF48C71CF
S31508007460338570634FF012FC70850020306386F810
S315080074702000F0638DE700BF3441002098410020CA
S31508007480EC4F0708550807085C090708920907081A
S31508007490544100200000D50430410020C3090708E4
S315080074A0FA090708081000203841002000003516A0
S315080074B02B0A070873B52F4D4FF48C71A8634FF04C
S315080074C0E5FBA88505F120004EF0E1FF06464EF0E3
S315080074D0C7FF0446E8B9284D009640F2EE234FF45C
S315080074E08061264A286816F051FB4EF09AFA2B68F6
S315080074F002462349204657F08DFA4EF092FA2A683A
S3150800750001461F4816F01AFB4FF43C75284602B090
S3150800751070BD05F120014EF0BCFF00281CDA164D9F
S3150800752040F2F3234FF48061164A286816F02EFBC2
S315080075304EF077FA124902462B68002057F06AFA8D
S315080075404EF06FFA2A6801460D4816F0F7FA00253C
S3150800755020464EF091FFD9E71C2301930A4B324689
S31508007560009321460023286820F0ACFB0130EED1B9
S315080075703125EDE708100020984100203E0A07084B
S31508007580550807087E0A0708384100202DE9F04308
S3150800759085B005461C469DF830609DF83470002A73
S315080075A000F08F80002978D04EF03BFA01467148EA
S315080075B016F0C4FA284616F0C1FA002C40F09A8054
S315080075C00124002E3CD02B464FF480616A4A6B4852
S315080075D016F0DCFA1C230193694BDFF8D09100936F
S315080075E086B2002332466549D9F8000020F06AFBC6
S315080075F0013040F0838040F2D5430293614B0396F5
S315080076000193D9F80030DFF88C8100934FF480613C
S3150800761040F222335C4AD8F8000016F0B7FA4EF06A
S3150800762000FA5A490246D8F80030002057F0F2F915
S315080076304EF0F7F9D8F800200146544816F07EFABD
S315080076403FB32B464FF480614B4A514816F09EFAD9
S3150800765083B2B3F58C7F54D94FF48C734D4D80B2F9
S315080076600193009040F22B334FF480614A4A286810
S3150800767016F08CFA4EF0D5F9444902462B680020DC
S3150800768057F0C8F94EF0CDF92A6801463F4816F07A
S3150800769055FA204605B0BDE8F08316F04FFA002CDF
S315080076A08ED00124DFF8EC802A464FF48061D8F8A2
S315080076B0000016F06BFAD8F80010002057F0AAF967
S315080076C016E0002B3FF47DAFB1B11446DFF8C48055
S315080076D02A464FF48061D8F8000016F057FA4EF0A3
S315080076E0A0F9D8F8003002462849002057F092F948
S315080076F0013466E70124E9E70C46D3E70134E4B22E
S315080077009EE72348FFF7D6FE064610B90134E4B2D1
S31508007710BFE7204D4FF48061204A286816F036FAF4
S315080077204EF07FF92B6802461849002057F072F987
S315080077304EF077F92A680146144816F0FFF941F227
S3150800774035630293164BB6B20193164B03961B6824
S31508007750154A00934FF4806140F22F33286816F0DB
S3150800776015FA2968002057F055F9286816F0E6F941
S315080077708FE700BFB80A070807DB07086579002006
S31508007780544100208D7D0020BE0A070855080708C9
S3150800779065750020984100201D0B0708EC4F070867
S315080077A0657D002030410020890B07083441002000
S315080077B02DE9F04186B001F0D1F9C34D4EF008F934
S315080077C0C24816F0BBF9C24EC24AC349C348C44CA4
S315080077D016F0C8F964212846C24BBF4A16F0D6F9F6
S315080077E0019500964FF48061BC4BBF4A206816F09D
S315080077F0CDF94EF016F923680246BC49002057F029
S3150800780009F94EF00EF922680146B84816F096F9BD
S31508007810B74B3221B74A0093B748B84B16F0B6F9BA
S315080078204FF48061AD4BB64A206816F0AFF94EF0BA
S31508007830F8F823680246AD49002057F0EBF84EF0F9
S31508007840F0F822680146A94816F078F933464FF44D
S315080078508061AB4A206816F099F94EF0E2F8236881
S315080078600246A249002057F0D5F84EF0DAF8226809
S3150800787001469E4816F062F92B464FF48061A04AED
S31508007880206816F083F94EF0CCF82368024697492B
S31508007890002057F0BFF84EF0C4F822680146934816
S315080078A016F04CF94FF48061934B954A206816F010
S315080078B06DF94EF0B6F8236802468C49002057F059
S315080078C0A9F84EF0AEF822680146884816F036F94F
S315080078D00121042001F0F4F801F0C2FA894B8A4F1D
S315080078E01D68DFF89482284604F0DCFC874B1E6886
S315080078F0304604F0D7FC4FF47A704FF09EFB2846CA
S3150800790004F0E4FC304604F0E1FC4FF47A704FF0E2
S3150800791094FB284604F0C6FC304604F0C3FC7C48B9
S3150800792016F00CF901220321222001F0F1F80122B8
S3150800793003211D2001F0ECF801214FF0B6404FF06D
S3150800794062F8744B4FF48061634A734816F01EF967
S315080079504FF48061714A206816F018F94EF061F804
S31508007960236802466149002057F054F84EF059F84A
S31508007970226801465D4816F0E1F84FF48061684ACE
S31508007980206816F003F94EF04CF82368024657496A
S31508007990002057F03FF84EF044F822680146534855
S315080079A016F0CCF8384658F0D9FCFB79BA795D4917
S315080079B05D4816F0D7F84FF480615B4B5B4A206848
S315080079C016F0E4F84EF02DF82368024647490020E1
S315080079D057F020F84EF025F822680146434816F07D
S315080079E0ADF85349534816F0BDF84FF48061514B32
S315080079F0514A206816F0CAF84EF013F82368024672
S31508007A003A49002057F006F84EF00BF8226801466E
S31508007A10364816F093F849498B2002F02FFF01F0FB
S31508007A203BF9474B3B4FC3E9000158F086FC4FF43E
S31508007A308061444A206816F0A9F84DF0F2FF2368E1
S31508007A4002462A49002056F0E5FF4DF0EAFF226873
S31508007A500146264816F072F84EF054F80121022025
S31508007A6001F02EF8FFF764FC4523374A37493848B2
S31508007A7016F064F802A9012058F0A4FB354816F060
S31508007A805DF802A803F052FE41F233620146324B1A
S31508007A90324816F053F8324816F050F802A803F0A8
S31508007AA045FE41F2336201462B4B2E4816F046F846
S31508007AB00A212D4816F042F841F235622B4B2C4923
S31508007AC02C4816F03BF859E072860020EC4F070860
S31508007AD01C0C07087807070807DB0708E686002056
S31508007AE098410020F40B0708120C070855080708E8
S31508007AF0460C0708310C070840860020250C0708A5
S31508007B00B9080708E41E07081D7E0020CC1E0708D2
S31508007B104F0C0708B44B0708257E00205E0C0708A3
S31508007B20750C0708ED060708DE8600208F0C070887
S31508007B309E0C070827860020B10C07080D7C000854
S31508007B40E0220020C10C0708BD080708DB0C07085F
S31508007B50EE0C0708300D07084A0D0708530D0708ED
S31508007B60960D0708CD0D0708040E0708350E0708F9
S31508007B700C090708450E0708258600201B4815F03E
S31508007B80DDFF41F235621A4B1A491B4815F0D6FF3C
S31508007B901A491B4800F03AFB1A48FFF7B9F90123BE
S31508007BA01A461946CDE90033FFF7F0FC98F800307D
S31508007BB0052B18D1284604F061FB304604F05EFB1D
S31508007BC001243846FFF7E4F90123CDE900441A46B3
S31508007BD01946FFF7DBFC4FF47A700B4B1B885843AA
S31508007BE04FF02BFAE2E70024EBE700BF930E0708F5
S31508007BF0350E07080C090708CE0E0708B57D0020C4
S31508007C00DD7D0020B44B0708541500202DE9FF47F9
S31508007C108268BF4DD2B2052A2A7000F27681BD4E1F
S31508007C2033889A4200F07181BB4C00924FF4806110
S31508007C30BA4A206815F0AAFF4DF0F3FE23680246FB
S31508007C40B749002056F0E6FE4DF0EBFE22680146E5
S31508007C50B34815F073FF2F787B1E042B35D801F037
S31508007C601BF802460B46AF4901EBC707C7E90023D5
S31508007C702B785F1E51F8332001EBC70C01EBC300CC
S31508007C8051F837104068DCF80470521A60EB0701A7
S31508007C90A54800EBC30740F833207960CDE90021F9
S31508007CA04FF48061A14A206815F070FF4DF0B9FEC7
S31508007CB09B4902462368002056F0ACFE4DF0B1FE03
S31508007CC022680146964815F039FF2B78052B7AD19C
S31508007CD0944A9749D2E90A3C0A88DFF87C9201322D
S31508007CE092B2012AC9E9003C2068924F0A8040F006
S31508007CF04181CDE9003C4FF480618F4A15F046FF7B
S31508007D004DF08FFE236802468549002056F082FE14
S31508007D104DF087FE22680146814815F00FFF0023C3
S31508007D201A46DFF84482C7E90032404668F06FF920
S31508007D30824B87B295F8009018804DF072FEC7F511
S31508007D4080614B467E4A009008EB070015F01EFF3F
S31508007D50276895F800804DF064FE43464FF480612D
S31508007D60774A0090384615F011FF4DF05AFE236801
S31508007D7002466B49002056F04DFE4DF052FE226831
S31508007D800146674815F0DAFE02A8FFF767F86D4F57
S31508007D90029B6D493B60039B6C487B60FB79BA7913
S31508007DA015F0E0FE6A4B1B684BB16A48FFF7B0F85E
S31508007DB001231A461946CDE90033FFF7E7FB0121EF
S31508007DC0022000F07DFE3388052B40F09C80554F3D
S31508007DD04FF00009BA46B84600F05EFF2A7809F166
S31508007DE001094A45EAE80201F6DA0020DFF838C157
S31508007DF03B46B968D3F80CE00130D3E90093B1EB00
S31508007E0009016EEB03034CF8081F824207F10807C5
S31508007E10CCF80430ECDA08EBC20158F832304E4F91
S31508007E204A68DFF84881D7E90001C8E900321B1A19
S31508007E3062EB0102CDE900324FF48061474A2068BF
S31508007E4015F0A4FE4DF0EDFD2368024634490020E6
S31508007E5056F0E0FD4DF0E5FD22680146304815F084
S31508007E606DFED8E90032DFF808C1DFF8FC80DCE9EE
S31508007E7000011B1842EB0102D7E900105B1A62EBFE
S31508007E8000024046CCE9003268F0C1F82B4B87B2B5
S31508007E9095F8009018804DF0C4FDC7F580614B46F3
S31508007EA02F4A009008EB070015F070FE276895F832
S31508007EB000804DF0B6FD43464FF48061284A009095
S31508007EC0384615F063FE4DF0ACFD236802461449AA
S31508007ED0002056F09FFD4DF0A4FD2268014610488B
S31508007EE015F02CFE0121042000F0EAFD01220321F1
S31508007EF0222000F00DFE012203211D2000F008FEBD
S31508007F000122184B1A702B78338004B0BDE8F0872D
S31508007F1025860020C474002098410020040F070815
S31508007F20550807089022002060220020190F07082C
S31508007F30C8740020C0220020420F0708C67400201B
S31508007F407F0F0708157E0020ED060708D686002055
S31508007F5034410020B44B0708D82200208A0F0708AE
S31508007F60A70F070826860020257E0020D02200209D
S31508007F70C8220020DFF85880D8E900125B1A6CEB9B
S31508007F800202CDE900324FF480610F4A15F0FEFD7A
S31508007F904DF047FD236802460C49002056F03AFD8D
S31508007FA04DF03FFD22680146084815F0C7FDD7E9A0
S31508007FB00001D9E900321B1842EB0102D8E900108A
S31508007FC05B1A62EB0002ACE6630F07085508070860
S31508007FD0D022002084B030B58FB012AC84E80F00F0
S31508007FE0204C4FF0B64021464EF013FD20684BF06A
S31508007FF0F5FA02460B461C4815F0A0FD20684BF022
S31508008000EDFA9DF88F30194D0B939DF88C30CDE91C
S315080080100C01AE3B0A939DF88D304FF48061AE3B60
S315080080200993BDF8863028460893BDF88430104A6F
S3150800803007931F9B06931E9B05931D9B04931C9BEE
S3150800804003931B9B02931A9B01939DF8A4300093FC
S315080080502A9B15F09BFD28460FB0BDE8304004B0BA
S31508008060704700BF70410020B20F07082582002024
S31508008070B50F07082DE9F04F83B000AF0446F81D89
S315080080800E469146984658F081F918B181B22248B1
S3150800809015F054FDFB7923B900200C37BD46BDE821
S315080080A0F08F6A46A2EBC3039D46F81D69466D46E6
S315080080B058F081F918B181B2184815F03FFDFB79DF
S315080080C06CB130789842E7D2414605EBC00058F0CB
S315080080D08BF9337805EBC301CB798A7915E0FB79FF
S315080080E05FFA84FA5345D7D905EBCA0B4146584679
S315080080F058F07AF9D8F820300134002BEFD19BF8E4
S3150800810007309BF8062086F800A04846044915F073
S3150800811029FD0120C1E700BF80060708B906070840
S31508008120ED06070830B5AFB0104D17AC23462A4602
S3150800813000200DF15B01FFF79DFF034670B19DF826
S315080081405B3049221BA968461393149567F052FFC2
S3150800815094E80F00FFF73EFF2FB030BD4FF4806163
S31508008160034A044815F012FD0248F5E7EE8600209A
S3150800817099100708258200202DE9F041AEB016AF08
S315080081800446F81C58F002F918B181B21A4815F0DD
S31508008190D5FCFB78A3422DD96A46A2EBC3039D46BC
S315080081A016AD2946F81C58F006F918B181B21348DD
S315080081B015F0C4FCDFF850803E1D314605EBC400BF
S315080081C005EBC40558F010F9EB79AA790C49404635
S315080081D015F0C8FC492207F114016846CDE9134891
S315080081E067F008FF96E80F00FFF7F4FE6037BD4614
S315080081F0BDE8F0810348F9E780060708B9060708CD
S31508008200ED060708B44B0708EE86002070B50D4644
S3150800821004461A4E304615F091FC194815F08EFCA6
S3150800822041F235622946174815F088FC164815F0BC
S3150800823085FC2146154815F081FC154815F07EFC8D
S315080082402146144815F07AFC01F02EFF124815F065
S3150800825075FC124815F072FC114815F06FFC1148B0
S3150800826015F06CFC104815F069FC104815F066FC12
S315080082703046BDE8704015F061BC00BFEC4F0708FA
S31508008280A9100708DD100708FE1007080F110708D0
S315080082904F11070863110708BB11070811120708D1
S315080082A0611207089D120708F712070852130708F4
S315080082B030B587B004460C4B0C4D04930C4B4FF469
S315080082C07A7103930B4B284602930B4B0B4A019387
S315080082D00B4B00930B4B15F059FC2146284607B06B
S315080082E0BDE830404DF07FBB40860020F386002075
S315080082F072860020278600201C0C070890130708A2
S31508008300E6860020DE86002070B59AB004460DF198
S31508008310170058F03BF800F0BFFC00F097FC282146
S31508008320024606A815F032FC00F0B6FC104A10AE5C
S31508008330D2E90032C01A61EB020100F087FC28215D
S315080083400246304615F022FC9DF81730094D029377
S31508008350094B0A4ACDE900634FF47A7106AB284601
S3150800836015F014FC214628464DF03DFB1AB070BDA9
S31508008370D8220020F3860020D68600200814070895
S3150800838038B50446064D4FF47A712846054B064A19
S3150800839015F0FCFB21462846BDE838404DF023BBC6
S315080083A0F3860020DE86002007DB070838B504467A
S315080083B0064D4FF47A712846054B064A15F0E6FB3A
S315080083C021462846BDE838404DF00DBBF38600200F
S315080083D0E686002007DB070838B50446064D4FF445
S315080083E07A712846054B064A15F0D0FB21462846E1
S315080083F0BDE838404DF0F7BAF38600201C0C070894
S3150800840007DB070838B50446064D4FF47A71284647
S31508008410054B064A15F0BAFB21462846BDE8384002
S315080084204DF0E1BAF38600202786002007DB07080F
S3150800843010B59AB08389044653B300218269D15492
S315080084408069154901AA4CF06BF9E0B1134901A8F6
S3150800845067F0BEFD40B957F0D6FE57F06EFF00F044
S315080084607DFF00201AB010BD0D4901A867F0B0FDC8
S3150800847010B957F0C8FEF2E70A4A01AB4FF47A7111
S31508008480094815F083FB214607484DF0ACFAE9E7A1
S31508008490064B014AF2E700BF07DB07085F14070827
S315080084A06914070873140708F386002072860020EB
S315080084B038B50446064D4FF47A712846054B064AE8
S315080084C015F064FB21462846BDE838404DF08BBAC6
S315080084D0F38600204086002007DB070838B50446E7
S315080084E000F0DAFB00F0B2FB064D03464FF47A7152
S315080084F02846054A15F04AFB21462846BDE8384075
S315080085004DF071BAF386002007DB070838B5044634
S31508008510074DFEF7E5FC4FF47A712846054B064AE7
S3150800852015F034FB21462846BDE838404DF05BBAC5
S31508008530F3860020D686002007DB070813B500233C
S31508008540019383890446B3B10F49806901AA4CF0A7
S31508008550E7F880B19DF80400FFF70EFE03460B4AC4
S315080085604FF47A710A4815F011FB214608484DF078
S315080085703AFA02B010BD0DF1030057F007FF9DF857
S315080085800330044AECE700BF132A080807DB07088C
S31508008590F38600208814070837B500228389044625
S315080085A00C4D01924BB18169CA5480690A4901AAE6
S315080085B04CF0B6F808B1019B2B802B88074A4FF47C
S315080085C07A71074815F0E2FA214605484DF00BFA8C
S315080085D003B030BD54150020132A08085D44080866
S315080085E0F386002013B5002283890446019273B1ED
S315080085F08169CA5480690C4901AA4CF091F830B1D6
S315080086009DF80400094B0121187000F059FA019BE6
S31508008610074A4FF47A71074815F0B8FA2146054813
S315080086204DF0E1F902B010BD132A080852160020D1
S315080086305D440808F386002008B582890AB9002037
S3150800864008BD0549806967F077FC0028F7D1FEF771
S31508008650E5FB0120F4E700BF9B1407082DE9F04F5E
S31508008660A7B0834600F018FB3F4D404CD5E90032D1
S31508008670D4E900679B1B62EB0702181842EB01015D
S3150800868000F0E4FA0DF14809394F02462821484618
S3150800869015F07CFAD7E9000100F0D8FA0DF1700A56
S315080086A002462821504615F071FA00F0F5FAD5E988
S315080086B000322668DFF8CC809B1B666862EB0602F0
S315080086C0181842EB01014AF0ABFF0022294B4AF089
S315080086D0DDFFCDE9100100F0DFFAD5E90032D7E970
S315080086E000575B1942EB0702D4E900545B1B62EBA7
S315080086F00402181842EB01014AF092FF02460B46A3
S31508008700DDE910014BF0ECF84BF0A2FA4AF066FFEF
S31508008710CDE90B9ACDE90E01174B1B880A93174B27
S31508008720D3E90A01CDE90801D3E90801CDE9060133
S31508008730D3E90601CDE90401D3E90401CDE9020133
S315080087404FF47A71D3E902234046CDE900230C4A57
S3150800875015F01CFA5846FFF76FFF594640464DF08C
S3150800876042F927B0BDE8F08FC8220020D8220020A1
S31508008770C022002000005940C87400206022002052
S31508008780A1140708F38600202DE9F04186B00023DE
S315080087900125039305938A4B8A4E8B4C00938B4B8A
S315080087A068460196029404938DF80C5001F02CFC4F
S315080087B030B140F2B621864B864A87484BF086FD93
S315080087C0864B874F0093874B6846CDE9017404931F
S315080087D08DF80C5001F018FC20B140F2BE217C4BFC
S315080087E07C4AEAE7804B6846CDE900377F4B02941E
S315080087F004938DF80C5001F007FC20B140F2C62115
S31508008800734B744AD9E77A4B68460093794B8DF8CF
S315080088100C50CDE90134784B049301F0F5FB20B1F7
S3150800882040F2CE216A4B6B4AC7E7744BDFF83882B1
S315080088300093734B6846CDE9018404938DF80C5078
S3150800884001F0E2FB20B140F2D621614B614AB4E760
S315080088506C4B6846CDE900386B4B029404938DF84F
S315080088600C5001F0D1FB20B140F2DE21584B594A99
S31508008870A3E7664B6846CDE90038654B0294049336
S315080088808DF80C5001F0C0FB20B140F2E621504BA8
S31508008890504A92E75F4B6846CDE900365E4B029434
S315080088A004938DF80C5001F0AFFB20B140F2EE2195
S315080088B0474B484A81E7594B68460093584B8DF811
S315080088C00C50CDE90134574B049301F09DFB20B1C0
S315080088D040F2F6213E4B3F4A6FE7534B6846CDE9D7
S315080088E00037524B029404938DF80C5001F08CFB20
S315080088F020B140F2FE21364B364A5EE701254C4B45
S315080089006846CDE900364B4B029404938DF80C501B
S3150800891001F07AFB20B140F206312D4B2D4A4CE787
S31508008920454B6846CDE90036444B029404938DF8CE
S315080089300C5001F069FB20B140F24B31244B254A1B
S315080089403BE73F4B3F4F00933F4B684601933F4BF6
S31508008950029704938DF80C5001F056FB20B140F2B3
S3150800896085311B4B1B4A28E7394B68460093394B20
S315080089708DF80C50CDE90137374B049301F044FBD1
S3150800898020B140F28D31124B124A16E7334B684636
S31508008990CDE90036324B029404938DF80C5001F061
S315080089A033FB20B140F29531094B0A4A05E71E22EE
S315080089B00F212C4815F0C2F80F2006B0BDE8F0814B
S315080089C0401507084A1507084F150708B182000819
S315080089D054150708C916070894150708A2150708A5
S315080089E0AF15070881830008B3150708AD8300088B
S315080089F0BE150708CA150708D9830008CE15070843
S31508008A0005840008E015070831840008F2150708F0
S31508008A10B184000800160708098300080C16070821
S31508008A201C160708DD840008211607080D850008AE
S31508008A30301607083D850008411607085D860008B8
S31508008A40551607086D160708691607089985000858
S31508008A50761607089EB20708E58500088C160708EB
S31508008A60115A050892160708666E080800B58BB0F5
S31508008A70FFF78AFE2022002102A867F048FA0B4B6E
S31508008A8041F28832019318230021CDE906230848CC
S31508008A9001AA05F027FE28B95721064B064A0748BA
S31508008AA04BF014FC0BB05DF804FB00BFE116070899
S31508008AB0B1770008EA1607080B170708FD16070816
S31508008AC02DE9F04107468020884650F064FE0024D0
S31508008AD00546431C05F8144003F814700134232C8A
S31508008AE0F8D12946204657F06FFA0646B8F1000F26
S31508008AF005D003463A462146044815F01FF828468D
S31508008B0050F067FE3046BDE8F08100BF141707082D
S31508008B10F7B58DF804008DF8051005460E460120B8
S31508008B2001A9174657F050FA04462FB103463246B4
S31508008B302946034815F002F8204603B0F0BD00BFE9
S31508008B403F170708044AD2E90031013341F1000111
S31508008B50C2E90031704700BFE822002013B5174864
S31508008B6005F046FD164B186028B96721154B164ABD
S31508008B7016484BF0ABFB00200021154B154A1A602E
S31508008B80154BC3E900010BF057FC044630B101460A
S31508008B90124814F0D3FF204602B010BD0BF0EEFCCD
S31508008BA023460146CDE900440D4A0E4850F078FDAB
S31508008BB004460028EFD001460B48EAE7D418070810
S31508008BC07441002064170708AC18070881170708BE
S31508008BD098410020ED8A0020E82200209417070813
S31508008BE0458B000878410020BF1707082DE9F84390
S31508008BF016469946144A002305460C464BF0D6F904
S31508008C00214630803C22284600234BF0CFF900232A
S31508008C1080460F46164628464FF4616221464BF0B9
S31508008C20C5F9182200234BF0C1F9404689F80020FF
S31508008C3039463C2200234BF0B9F9089B00201A70EC
S31508008C40099B1E70BDE8F8838051010010B586B0F7
S31508008C500DF11503019305AB00930DF116020DF105
S31508008C601303FFF7C3FF9DF81530094C02939DF8CF
S31508008C701430122101939DF8133020460093054ABB
S31508008C80BDF8163014F082FF204606B010BD00BFAE
S31508008C90DB8A0020F6170708D0B50D4C4FF0FF31D8
S31508008CA020684EF096FA28B14F210A4B0A4A0B481B
S31508008CB04BF00CFB0A4B2068D3E900674EF0BDFA6F
S31508008CC018B15521074B084AF1E730463946D0BD59
S31508008CD074410020091807088F1807088117070824
S31508008CE0E8220020451807087218070810B5274C0F
S31508008CF004F0D4FA04F06CFC236F23F0070343F066
S31508008D00030323674EF075F8214B00209B6ADB01AD
S31508008D105EBF4FF480321F4B9A62D4F8203123F09D
S31508008D20070343F00203C4F82031D4F8283123F0AE
S31508008D30070343F00203C4F82831D4F8403123F07E
S31508008D40030343F00203C4F84031D4F8603123F03A
S31508008D50030343F00203C4F86031D4F8403223F029
S31508008D60030343F00203C4F84032D4F8003223F078
S31508008D70070343F00203C4F80032D4F8083223F09C
S31508008D80070343F00203C4F8083210BD0080005000
S31508008D900040005A0060005A08B53A20012103F045
S31508008DA0BBFFBDE80840014803F0E2B958100020AF
S31508008DB030B59DB0214D08AC0FCD0FC495E80F0016
S31508008DC084E80F002C22002111A867F0A0F81C4B9C
S31508008DD04FF48014109301238DF8453056231293CF
S31508008DE008231593092317930A230E2200210DF150
S31508008DF01200199367F08BF8124B08AACDE90243C3
S31508008E000B238DF810300C238DF811300E4B02A968
S31508008E1005932023069340F20113ADF81C300B4B43
S31508008E200B48009310AB0AF031FF044600214FF4BB
S31508008E30E1304DF0BEFD20461DB030BDAC1E070822
S31508008E400000015B3C00015BED8E00209C41002088
S31508008E505C420020014850F0C9BA00BF5C420020BD
S31508008E6008B504484DF044FFBDE8084002484DF0F7
S31508008E703FBF00BFE41E0708CC1E0708F8B5022945
S31508008E8006460C46154604D1104B93F82330012BA1
S31508008E901BD02946204657F095F90746284602F082
S31508008EA045FC033C012C054604D947B13146084820
S31508008EB014F044FE2846BDE8F8404DF022BD0246AF
S31508008EC03146044814F03AFEF4E7F8BD7C42002027
S31508008ED0412507086125070808B5074B4FF0FF31FC
S31508008EE018684EF076F930B140F21231034B044A55
S31508008EF004484BF0EBF908BDB44200206E2507087C
S31508008F00C1290708AC25070808B5064B18684EF0AE
S31508008F1094F930B14FF44671034B044A04484BF0B8
S31508008F20D5F908BDB44200200E260708A829070867
S31508008F30AC25070873B5002300220546CDE90023B2
S31508008F400BF002FB6A460BF041FB00982D4A01998B
S31508008F50D2E90232C01A61EB02012B4ACDE90001BF
S31508008F60FDF712F9284802F009FC284B002814BF1F
S31508008F7006461E466B68002B41D1AC6814F0010406
S31508008F800DD00121224A2348FFF778FF204802F036
S31508008F90CDFB3146044602461F4814F0CFFDAB68A8
S31508008FA09A070DD503211D4A1D48FFF767FF1B4881
S31508008FB002F0BCFB3146044602461A4814F0BEFDD0
S31508008FC0AB685B070DD50421174A1848FFF756FF0B
S31508008FD0154802F0ABFB314604460246144814F025
S31508008FE0ADFD20464DF08DFC30464DF08AFC6A6892
S31508008FF01AB11049104814F0A1FD02B070BD002442
S31508009000EFE700BF00230020F0220020B44B07083A
S315080090101E8F00203D260708442607083E8F00209D
S3150800902064260708702607084E8F0020982607082A
S31508009030A32607089F2A0708CD260708F7B50022A2
S315080090400023CDE90023446805462CB121462B4868
S3150800905014F074FD03B0F0BD21465022284866F08E
S3150800906056FF284814F06AFD0121274A2748FFF7CA
S3150800907005FF2146224A2648FFF700FF0221254A16
S315080090802548FFF7FBFE0321244A2548FFF7F6FE8D
S31508009090244A04212448FFF7F1FE0BF055FA6A46E4
S315080090A00BF094FADDE90014204BD3E908208A185E
S315080090B0D3E9027644EB0000D21B60EB0600C3E955
S315080090C008209A6AC3E900140132C3E902149A62B5
S315080090D0D3E90623891A64EB03044FF47A73CDE9BE
S315080090E000141348B1FBF3F114F028FD6A68002A4E
S315080090F0B0D01049104814F021FDABE7E726070861
S315080091000E8F0020092707081E8F00203D26070816
S31508009110162707082E8F0020212707083E8F0020D4
S315080091202F2707084E8F00203E2707080023002018
S315080091304F270708822A0708CD260708F7B5002310
S31508009140002205461248CDE9002314F0F7FC0BF07F
S31508009150FBF96A460BF03AFADDE900100D4BD3E944
S3150800916004248A18D3E9067640EB0404D21B64EB80
S315080091700604C3E90424C3E90010C3E906106A68B3
S315080091801AB10549054814F0D9FC03B0F0BD00BF73
S315080091905827070800230020622A0708CD26070853
S315080091A010B50A490446A1F1280056F0C2FF18B9BD
S315080091B00749084814F0C2FC62682AB1BDE81040A5
S315080091C00549064814F0BABC10BD00BFA4420020E9
S315080091D07C420020682707083F2A0708CD2607088B
S315080091E04168014814F0AABC8F27070810B50B4B35
S315080091F0044680681870C0B202F0AEFA014618B18B
S31508009200A268074814F09AFC62682AB1BDE81040C3
S315080092100449054814F092BC10BD00BF0D8F00200C
S31508009220BB270708212A0708CD26070842681AB16E
S315080092300249034814F082BC704700BF082A070891
S31508009240CD26070808B5074805F0D2F9064B186079
S3150800925030B94FF4BE71054B054A06484BF036F84F
S3150800926008BD00BFD82A0708B4420020D32707083C
S31508009270F4290708AC25070810B5FFF72DFE034BA0
S315080092801C78FFF741FE204610BD00BF0D8F002059
S31508009290074B93F82320012A07D193F82430022B91
S315080092A003D8044A52F8230070470020704700BFCD
S315080092B07C4200209C29070810B50021214B13F891
S315080092C0012B0AB989B203E00131B1F5006FF6D175
S315080092D0013102201B4A89B256F0A6FF044628B976
S315080092E0194B13F8012B3AB9A4B209E001461748FD
S315080092F014F024FC204610BD0134B4F5006FF0D1FB
S315080093000134A1B20620104A56F0A5FF044628B932
S315080093100F4B13F8012B22B9A4B206E001460D48FB
S31508009320E6E70134B4F5006FF3D10134A1B20120A8
S31508009330074A56F0A7FF04460028DBD00146064830
S31508009340D6E700BFFC1E070879210708F227070899
S315080093502C240708282807085D28070830B585B093
S31508009360002300228DF807300023CDE90223FFF7FA
S31508009370B3FD38223C493D4866F03CFE0DF1070036
S3150800938056F0C7FF024618B139493A4814F0D6FBD9
S315080093909DF8073033B1384814F0D0FBFFF7B4FD19
S315080093A005B030BD314C94F8210002F0DBF90546D2
S315080093B094F8230057F036F8014618B12F4814F0F0
S315080093C0BDFBEBE794F82330012B06D1FFF760FFCE
S315080093D057F052F801460028F0D1284657F035F8DC
S315080093E0014640B1264814F0A9FB264A137843F0F3
S315080093F004031370D2E794F9220056F05AFF014687
S3150800940038B1214814F09AFB1E4A137843F0080332
S31508009410EFE71E4857F049F8014608B11C48CEE761
S31508009420FFF74AFF0028B9D11A49A1F1280056F0DA
S3150800943080FE014680B90BF087F802AA0BF0C6F841
S31508009440DDE90201144BC3E90001C3E90201C3E9DE
S31508009450060106491148B2E70A4A1148137843F04B
S3150800946002031370ABE700BFE82A07087C42002016
S31508009470DA290708CD26070892280708BD2807080D
S31508009480E728070859160020122907082125070882
S3150800949039290708A4420020002300206829070864
S315080094A07F29070808B50A204DF0C7FD054814F0BE
S315080094B045FB4CF020FB20B94FF47A704DF0BDFD0A
S315080094C0F7E708BDEC4F0708402906D1C378202BDB
S315080094D008D005D813F0EF0F04D04FF0FF307047CF
S315080094E0302BFAD18078A528F7D8872806D85F28A0
S315080094F002D013D804280AD800207047094B7830C0
S31508009500C0B2C34003F00103013B58B2704741386B
S3150800951004284FF0FF3098BF0020704780F0800085
S315080095200628F6E7B100003F2DE9F04F89B000267E
S315080095300F46154604469846149B9DF84CA0CDE95F
S3150800954006320390059000EB0209079B23B907959D
S31508009550002E45D100264CE0BAF1080F069B2CD107
S31508009560FF2B26D89D42059A23D31A44944220D825
S315080095704A451ED85A1C2146164405A82A464CF0C8
S31508009580B9FE07900028E2D0059B1B781909DED1A1
S315080095902146069305A801234CF0ACFE07AB0790BD
S315080095A0009322462B4605A906A84CF0B1FE0028D2
S315080095B0CBD0002009B0BDE8F08FBAF10B0FCFD0A1
S315080095C0BAF10F0FCCD0BAF1140FC9D0BAF1110FF6
S315080095D001D1022BC5E7BAF1040FC3D1082BC0E7A6
S315080095E0013EB7D0FB68B0B29847C8F8000000281B
S315080095F0DFD0129BAAF1040A1E800123D8F8007056
S315080096005FFA8AFBD8F80020B91AB14201DA07993D
S3150800961009B90398CEE76BB90123234903FA0BF37B
S315080096200B4204D113F0900F03D02F2300E026231A
S315080096303B700137DDF85090BA1A4A44B242B8DC9A
S31508009640A9450399B5D801EB09039C42B1D862191B
S315080096509342AED84A46384666F0CCFC4B462A4674
S31508009660214603A84CF046FE034607904F4403984C
S31508009670002B9FD003785FEA13199BD10DF1480A96
S315080096804AF8083F2146012303A84CF033FE07ABEE
S315080096900790009322462B46504603A94CF038FE05
S315080096A04B460028AED084E7012801002DE9F04F8B
S315080096B08BB081460F461D46164622B90024204621
S315080096C00BB0BDE8F08F0329F8D90028F6D04CF086
S315080096D067FE04460028F1D03278314622F03F036F
S315080096E02B70737802F03002C270837073883A4622
S315080096F05BBA0381331D069306A800234CF0FAFDD6
S315080097003278079002F00F022270CAB1082A6DD883
S315080097102369002B6AD19742069967D38B189E4214
S3150800972064D8F019834261D848464CF079FE206126
S3150800973000285BD03A463146237806A84CF0DAFD75
S315080097404FF0000B069BDFF8BCA39B1BFB1A079385
S31508009750DDE90632002A00F0D0811A78FF2A0FD1F7
S315080097609A1BBA420ADA1A78FF2A3FD101339E1B9E
S31508009770BF1BBFB2A781002F38D0A361002336E0F4
S3150800978002F00F03120931460893099201233A465B
S3150800979006A84CF0AFFD07AD07903B46324600954C
S315080097A006A909A84CF0B4FD00BB099B03EB0B08FE
S315080097B01FFA88F8434519D8C34517D83B46324699
S315080097C0009506A908A8CDF824804CF0A1FD68B933
S315080097D0B8F11C0F0DD8B8F1020F07D92AFA08F309
S315080097E0DB070CD4DDE90725954215D901236370FB
S315080097F065E7B8F1230F02D0B8F13C0FF6D1214640
S3150800980048464CF0D7FD0028F0D0DDE90725AA42E6
S31508009810ECD3B8F1230F4BD8B8F1020FE6D9A8F16B
S315080098200303202BE2D801A151F823F08F990008F1
S315080098305D990008ED970008399A0008E399000831
S31508009840BD990008ED970008ED9700081F9A0008D3
S31508009850DB980008ED970008019900085B9A000854
S31508009860ED970008B19A0008ED970008ED970008F3
S31508009870059A0008ED970008ED9700086D9A00080C
S31508009880ED970008ED970008ED9700088F9A0008F5
S31508009890D39A0008ED970008ED970008ED970008A1
S315080098A0ED970008ED970008ED970008199900084C
S315080098B0B8F13C0F9AD1042D98D8D4F81CB09BF86F
S315080098C00130002B92D1012329468BF8013006A8D6
S315080098D04CF002FDCBF8180009E0022D86D8636823
S315080098E0013383D1294606A84CF0F6FC6060069B36
S315080098F09B1B9F42FFF47AAFFB1AC346079327E7E1
S31508009900042D3FF673AF294606A8D4F81CB04CF0D0
S31508009910E3FCCBF81400EAE740F209436A1E9A42D0
S315080099203FF664AFD4F81CB0DBF83030002B7FF478
S315080099305DAF2A4648460699ABF804504CF070FDD0
S31508009940E369CBF830001B6B002B3FF44FAF2B4677
S315080099503A46314606A84CF0CDFCC8E7E369596B90
S3150800996000297FF443AF042101910DF116010091FE
S315080099700698494602953433FFF7D6FD0690002827
S315080099803FF434AFE369BDF816201A70AFE76B1ED3
S31508009990FE2B3FF62BAFD4F81CB0DBF83830002B83
S315080099A07FF424AF2A4648460699ABF806504CF091
S315080099B037FDE369CBF838009B6BC5E7E369D96BDC
S315080099C000297FF413AF08210191591802950091D7
S315080099D03C3349460698FFF7A7FD0690002886D12E
S315080099E004E7022D3FF602AFD4F81CB0DBF82030AE
S315080099F001337FF4FBAE294606A84CF06DFCCBF884
S31508009A00200074E7E369196C00297FF4EFAE14218E
S31508009A10019103F10A01029500914033D9E7636980
S31508009A20002B7FF4E3AE0B23019304F10A030093A2
S31508009A30029504F11403CCE7022D3FF6D7AED4F80D
S31508009A401CB0DBF8243001337FF4D0AE294606A8D3
S31508009A504CF042FCCBF8240049E70F21E369019159
S31508009A6003F10C01029500914433B2E7032D3FF64A
S31508009A70BDAED4F81CB0DBF82C3001337FF4B6AE9B
S31508009A80294606A84CF028FCCBF82C002FE7032D16
S31508009A903FF6ACAED4F81CB0DBF8283001337FF4BF
S31508009AA0A5AE294606A84CF017FCCBF828001EE7F9
S31508009AB0022D3FF69BAED4F81CB0DBF8103001330C
S31508009AC07FF494AE294606A84CF006FCCBF81000A5
S31508009AD00DE7042D3FF68AAED4F81CB09BF8023089
S31508009AE0002B7FF483AE012329468BF8023006A8A3
S31508009AF04CF0F2FBCBF81C00F9E6002B7FF430AEF5
S31508009B0074E600BFD8C192182DE9F0410E461746F3
S31508009B109846054628B121B11AB12C20A847044613
S31508009B2018B900242046BDE8F0812C22002166F0F1
S31508009B30EEF90123224623710023C4E90467E56090
S31508009B40C4F8188042F81C3F226240F20232228092
S31508009B500A22A270014AA3621380E3E7CA740020AE
S31508009B6008B504F0C3FC02280DD1074B4FF0FF31AE
S31508009B7018684DF02EFB30B14FF42471034B044A9C
S31508009B8004484AF0A3FB08BDB84200208C2B0708FE
S31508009B905C2D0708C32B070808B504F0A7FC0228A4
S31508009BA00BD1064B18684DF048FB30B14FF42671BF
S31508009BB0034B044A04484AF089FB08BDB842002012
S31508009BC01D2C0708422D0708C32B07082DE9F84363
S31508009BD00D4617460646D8B1D1B10024DFF83480C1
S31508009BE0315D7FB1DFF83080DFF830906F1EBC4200
S31508009BF0ACBF40464846013413F0A0FFAC4207D03C
S31508009C00315DF4E74046013413F098FFA542E7D1E9
S31508009C10BDE8F883BC560808BCCB0708452C0708DE
S31508009C20F8B5044617480D46174604F0E1FC164BEE
S31508009C30186028B99921154B154A16484AF046FB6B
S31508009C40FFF78EFF00F076FB134B144E002C08BF6F
S31508009C501C46134B1349002D08BF1D4612482B46B8
S31508009C602246B1607060F46035613775FFF74CFFC6
S31508009C703060FFF791FF00F089F9BDE8F84000F081
S31508009C80DFB800BF982D0708B84200204D2C0708FA
S31508009C90762D0708C32B070859640508BC4200201F
S31508009CA05D640508796405086164050838B50446E5
S31508009CB00D46FFF755FF064B21462A4653F8140C66
S31508009CC0FFF7F4FC0446FFF767FF204638BD00BFE0
S31508009CD0D042002038B504460D46FFF741FF054B34
S31508009CE021462A4618684CF052F80446FFF754FFF6
S31508009CF0204638BDBC420020F8B50D46044600286B
S31508009D0067D0FFF72DFF334813F018FF2178324844
S31508009D1013F014FF6178314813F010FFA17830482A
S31508009D2013F00CFFE1782F4813F008FF61682E48FE
S31508009D3013F004FF21892D4813F000FFA1892C4850
S31508009D4013F0FCFE61892B4813F0F8FE2A4813F03D
S31508009D50F5FE2178C9B9294813F0F0FE284813F012
S31508009D60EDFE6189B9B9254813F0E8FE254813F0D8
S31508009D70E5FEA389ABB9244813F0E0FE234813F0A7
S31508009D80DDFEBDE8F840FFF707BF20692A46FFF762
S31508009D901DFF1F48E0E760692A46FFF717FF1C48C2
S31508009DA0E2E761681B4F1C4E1C48322914BF39462E
S31508009DB0314613F0C3FEA189A0692A46FFF706FFBC
S31508009DC061681648322914BF3946314613F0B6FE83
S31508009DD0D4E7F8BD652C0708682C07087C2C07080B
S31508009DE0922C0708A52C0708B82C0708D12C0708B9
S31508009DF0E22C0708F82C07080F2D07083B2D070843
S31508009E001C2D07082C2D07083A2D07085C1407088F
S31508009E103E2D07082A2D0708EC4F070807DB070819
S31508009E2010B5044618B1806908B14CF025FB034B00
S31508009E302146BDE8104018684CF0D3BABC42002051
S31508009E4007B50E4804F0D4FB0D4B186028B9B121AC
S31508009E500C4B0D4A0D484AF039FA4FF4F07330228C
S31508009E6000930A210A4B0B484CF0F1FB18B1B921B3
S31508009E70094B054AEEE703B05DF804FBA82E070870
S31508009E80CC4400203C2E07088C2E0708DB2D07083B
S31508009E90EC420020D4420020502E070870B5064632
S31508009EA0074B1C6914B92546284670BD25688022CB
S31508009EB03046296866F040F80028F5D06468F1E76E
S31508009EC00845002008B504F011FB02280DD1074B00
S31508009ED04FF0FF3118684DF07CF930B140F28B1124
S31508009EE0034B044A04484AF0F1F908BDC04A002069
S31508009EF0B82E070894310708F82E070808B5074B47
S31508009F004FF0FF3118684DF064F930B14FF4CD7158
S31508009F10034B044A04484AF0D9F908BDC04A002050
S31508009F20B82E070854310708F82E070808B504F0B4
S31508009F30DDFA02280BD1064B18684DF07EF930B1D0
S31508009F4040F29311034B044A04484AF0BFF908BD8E
S31508009F50C04A0020572F070871310708F82E07084E
S31508009F6008B5064B18684DF068F930B14FF4D07152
S31508009F70034B044A04484AF0A9F908BDC04A002020
S31508009F80572F070837310708F82E070807B513486B
S31508009F9004F02EFB124B186028B9B621114B124A51
S31508009FA012484AF093F94FF434731E21009318228D
S31508009FB00F4B10484CF04BFB014618B1BE210E4B17
S31508009FC0094AEDE70D4A0E4804F08CFB18B9C3217F
S31508009FD00C4B054AE4E703B05DF804FB2C3207088E
S31508009FE0C04A0020882F0708C5310708F82E070839
S31508009FF0F047002008450020502E070808320708B9
S3150800A00011A10008A92F070838B50F4B05461C698A
S3150800A010FFF758FF5CB90C484CF02EFB70B11822BC
S3150800A020294665F0E7FFFFF781FF204609E0236828
S3150800A03080222968186865F07FFF18B9FFF776FF50
S3150800A040012038BD6468E5E7084500202DE9F041A0
S3150800A050134B00241D69FFF735FF4FF434720021B6
S3150800A060104865F054FF18260E4F3DB9FFF75EFFFE
S3150800A0700C48002C08BF2846BDE8F0811D2C0DD8D9
S3150800A08006FB047818224046296865F0B3FF24B118
S3150800A090631E06FB0373C3F8148001346D68E4E796
S3150800A0A0084500202045002038B5084B084D1C6996
S3150800A0B0FFF724FF1CB9BDE83840FFF751BF2368F6
S3150800A0C02846196813F03AFD6468F3E70845002046
S3150800A0D0B9080708014813F031BD00BFBB2F0708B0
S3150800A0E0014813F02BBD00BFEA2F0708014813F0FB
S3150800A0F025BD00BF23300708014813F01FBD00BF68
S3150800A10051300708014813F019BD00BF843007080D
S3150800A1102DE9F04F85B0002634463546DFF8F8B10C
S3150800A1200396ADF80A604BF0E6FC20B94FF47A7056
S3150800A1304CF083FFF7E703220020714955F0C9FF69
S3150800A140431C074606D14FF4EE716E4B6E4A6F48B4
S3150800A1504AF0BCF86E4BDFF8D0C103F1100E624628
S3150800A16018685968083303C273459446F7D11C2208
S3150800A170684B38466849CBF8003003921DF076FDE7
S3150800A180013028D0DFF8A4A1DFF8A4814BF0C1FC88
S3150800A19003ABCDE900A34FF480620023414638465D
S3150800A1A01DF0D4FD002840F39180414680B2FFF7A8
S3150800A1B07DFD05460028E9D0584813F0BFFC00216C
S3150800A1C02846FFF799FDAB78013B032B08D92846AB
S3150800A1D0FFF780FFDAE740F2E711514B4A4AB6E744
S3150800A1E0FFF734FF29460DF10A0200F0E5F80646A6
S3150800A1F070B12A46BDF80A104CF0C1F90446C0BB36
S3150800A2002846FFF70DFE2046FFF70AFE30461CE0FB
S3150800A21028464CF040F9814618B92846FFF760FFF2
S3150800A220B4E7FFF73BFE044648464CF025F97CB1F7
S3150800A23023696BB1284698470446D0B92846FFF7E4
S3150800A240EFFD2046FFF7ECFD20464CF015F99DE79B
S3150800A25084212846FFF73EFD044650B92846FFF7F5
S3150800A260DFFD2046FFF7DCFD20464CF005F92646C3
S3150800A2708CE720464CF00BF9B0F5806F81462146F5
S3150800A28003D92846FFF732FFBAE740464CF001F9F2
S3150800A290002804DA21462846FFF72EFFB0E72148B2
S3150800A2A013F04CFC00212046FFF726FD039B4A4687
S3150800A2B0CDE900A34146002338461DF003FD0130D1
S3150800A2C09ED121462846FFF71DFF99E701307FF406
S3150800A2D05DAF4BF010FC00287FF458AF384655F0B8
S3150800A2E012FF4FF47A704CF0A8FE2846FFF798FD47
S3150800A2F02046FFF795FD30464CF0BEF813E700BF41
S3150800A30002000100B6300708B7310708F82E07081B
S3150800A310A7A1070800003316EC440020EB30070815
S3150800A320D230070811310708F4440020D044002031
S3150800A3305E8F002037B56C46204601F053FE94E840
S3150800A3400300024D85E8030003B030BDC44A00206F
S3150800A35048B105490A68904205D349680A449042BB
S3150800A36001D24FF036BA7047C44A0020012808D0F7
S3150800A370022814BF022301232820034A00FB0320D6
S3150800A38070470023F8E700BF7C32070838B50D464A
S3150800A39009682C23074A0131044613F0F7FB031E0C
S3150800A3A006DB2A689A4203D3D21AE0182A6038BD17
S3150800A3B00020FCE7BC5608082DE9F04F91B0074687
S3150800A3C00C460592002118220AA865F0A0FD27B9B7
S3150800A3D00026304611B0BDE8F08F002CF8D063890E
S3150800A3E0013B9BB27F2BF3D8A378012BF0D12046F3
S3150800A3F04CF051F802900028EAD08022AE4965F068
S3150800A4009BFDE3698146002B00F095805D6C1DB1CC
S3150800A4109D89003D18BF01253E46D6F80080404676
S3150800A4204CF05FF8834670B1DDF83CA0BAF1000F36
S3150800A43040F084800C204CF013F820B1C0E9008B62
S3150800A4400F90C0F808A07669002EE6D1B9F1000F82
S3150800A45040F0DF80002D00F0D380E3699889013051
S3150800A46080B24BF0FDFF05460028B1D0E369B1463E
S3150800A4709A89596C65F0BEFDE36980219B89284657
S3150800A480EE544CF003FC8D4C8046A346E169002946
S3150800A49075D0284665F081FD0A9000286FD02823DC
S3150800A4A003FB09B31C6A0D930444A54265D8A84466
S3150800A4B0444528BF0024802120460A944CF0E6FB38
S3150800A4C00B90002864D101244FF000080220FFF702
S3150800A4D04DFF03900320FFF749FFDDF83CA08146B6
S3150800A4E0002840F0D1800027059BB8B218809CB997
S3150800A4F00746013080B24BF0B3FF0997064658B1BC
S3150800A500B8F1000F40F0418180460E9CDFF8B0B1EB
S3150800A510002C40F03E81F455BAF1000F40F05A8104
S3150800A5200E98002840F05D8128464BF0A5FF02985A
S3150800A5304BF0A2FF4DE71D466EE79A46DAF804305F
S3150800A5409B4511D0DAF80830002BF6D10C2003937E
S3150800A5504BF086FF00283FF476AF039BC0E9008BDB
S3150800A5608360CAF808006EE75A464146DAF80000E2
S3150800A57065F0A3FC0028E5D165E700249BE709F10F
S3150800A5800109B9F1030F04F128047FF47FAF9AE7B4
S3150800A590002C98D0B94699F80C302BB10D9B1B7836
S3150800A5A0022B09D0032B28D0D9F81490B9F1000F43
S3150800A5B0F1D14C46C84611E0D9F804000028F3D07A
S3150800A5C080220A9965F0B8FC80460028ECD14846F6
S3150800A5D00AA94BF09EFF01280446E5D10E9B002BE5
S3150800A5E07FF474AF012C3FF471AF38460AA94BF0DB
S3150800A5F0B5FF4FF00108044668E7D9F80800DDE71B
S3150800A60038460AA94BF0AAFF354604464FF001081A
S3150800A610E4E7802102984CF039FB04460F9DB5B15A
S3150800A620D5F804904C452DD14A462968029865F01C
S3150800A63044FC38BBB846D8F800004BF052FF98F8EF
S3150800A6400C3053B9D8F81480B8F1000FF3D10E9C2A
S3150800A6500025B4FA84F4640936E78145F2D16A68BC
S3150800A660D8F80010286865F028FC82460028E9D149
S3150800A67040460AA94BF04DFF01280446E2D155464B
S3150800A680D046ABE7AD68CAE7039B002B3FF42BAF78
S3150800A6900120FFF76BFE00283FF425AFB8F1000F45
S3150800A6A01BD14746DDF838B0BBF1000F18D1002F93
S3150800A6B03FF419AF013F17E73C3207087C32070819
S3150800A6C059320708036A4269134404333B444F6806
S3150800A6D089681F440029F5D1E4E751460027F9E7C0
S3150800A6E08021DBF800004CF0D1FA039B80211A6A1E
S3150800A6F00490DBF8040007924CF0C8FAD9F8201049
S3150800A700079A049B0A44093206901744DBF80800A6
S3150800A71080211F444CF0BAFA069BDBF814B03B4480
S3150800A7201F18C1E7D9F80400013080B24BF098FE33
S3150800A730044650B9002009A9FFF728FE8046D9F833
S3150800A7400890B9F1000FEDD1DFE6D9E9001265F0FE
S3150800A75051FCD9F80420039BDDF824B0A3540BF16F
S3150800A7600101224A2346404613F010FA0490204677
S3150800A7704BF082FE049A002ADCDB9345DAD308EB19
S3150800A7800200ABEB02020992D5E7D1468046039454
S3150800A790D7E7A368DDF82490019363685A460093C7
S3150800A7A04046236809F1010113F0F0F900280EDB91
S3150800A7B081450CD38044A9EB00000990636923B155
S3150800A7C0404609A9FFF7E2FD80466469A0E64FF016
S3150800A7D00008F3E7DAF8084050464BF04DFEA2466B
S3150800A7E09AE644694BF048FE20469AE64E32070838
S3150800A7F008B5074B4FF0FF3118684CF0EAFC30B14A
S3150800A8004FF48F71034B044A044849F05FFD08BDB5
S3150800A810CC4A00205C33070835340708F4320708A9
S3150800A82008B5064B18684CF008FD30B14FF4927124
S3150800A830034B044A044849F049FD08BDCC4A0020A8
S3150800A8409C33070814340708F432070808B5064885
S3150800A85003F0CEFE054B186028B9CA21044B054AF9
S3150800A860054849F033FD08BD84340708CC4A002062
S3150800A870CD33070854340708F4320708F8B50646F6
S3150800A8800D46D9B103F032FE0228044601D1FFF77E
S3150800A890AFFF00230C200A4A00FB03F18F18515C16
S3150800A8A0B14204D1BD60022C05D00020F8BD0133A9
S3150800A8B00E2BF1D1F7E7FFF7B3FFF6E70120F5E72F
S3150800A8C06C10002070B5837804467F33DBB20F2BFB
S3150800A8D009D9FFF78DFFA1780C4813F02FF9BDE8C9
S3150800A8E07040FFF79DBF0A4AD656FFF781FF731CD3
S3150800A8F0F1D00C23074D204603FB06556B68984795
S3150800A900AB68002BEBD020469847E8E7EE330708FC
S3150800A910043407086C1000202DE9F0470024074688
S3150800A9200E462546DFF84480DFF84490DFF844A059
S3150800A930A64204D8BDE8F0470B4813F0FFB8731ECB
S3150800A940A342395D06D1504613F0F8F8132D06D107
S3150800A950002505E0122D05D8484613F0EFF8013515
S3150800A9600134E5E74046EFE7EC4F0708A53407084A
S3150800A9709C3407089434070813460A4601680148B8
S3150800A98013F0DCB8AE34070838B50C46154601682E
S3150800A990044813F0D3F829462046BDE83840FFF7A7
S3150800A9A0BBBF00BFC8340708F8B5234F234E3A8803
S3150800A9B0C519BC1C52BAA54293B2328101D80120EE
S3150800A9C0F8BD013B042B29D8DFE803F003031F2A4F
S3150800A9D02E004FF480711A48F4604CF057F9431C66
S3150800A9E02344BB42EBD39D42E9D9044420464FF4A5
S3150800A9F0807134614CF04AF901300444BC42DED31C
S3150800AA00A5428CBF00200120DAE77B885BBAB381B8
S3150800AA100C4B9D42D3D904383361B0820020CFE76E
S3150800AA207B885BBAB381F9E77B885BBAB381054B50
S3150800AA309D42C4D93361F1E75E930020084B00209C
S3150800AA40609300206293002073B52D4D06462C892D
S3150800AA50631E012B13D84FF48071E8684CF016F981
S3150800AA604FF48071044628694CF010F90444043404
S3150800AA70A4B2A64213D20024204602B070BD032C0D
S3150800AA8001D1AC8AF3E7042CF3D0052C06D14FF498
S3150800AA90807128694CF0FAF8841CE9E700242B89B0
S3150800AAA018485ABA02805A1E012A0CD82B69164A27
S3150800AAB0019300230093EB68A11E023013F066F899
S3150800AAC00028D9DAD7E7032B08D1AB89AA8A5BBA5B
S3150800AAD043802969043065F08DFACDE7042B03D14C
S3150800AAE0AB895BBA4380C7E7052BC5D1AB89074A53
S3150800AAF05BBA4380211F2B69043013F047F8DFE760
S3150800AB00084B00205E930020CE34070807DB0708B1
S3150800AB1008B52C2101200C4A03F09AFE0B4B18604D
S3150800AB2030B94FF49C710A4B0A4A0B4849F0CEFBE0
S3150800AB3000210A4A0A4803F0D5FD20B940F23B1124
S3150800AB40084B044AF1E708BDF8360708344B0020DD
S3150800AB50D53407089F360708F03407081037070862
S3150800AB6019AC0008483507082DE9F0410E4690460D
S3150800AB701D460446069F10B90120BDE8F0810C4821
S3150800AB8003F0FCFCA0610028F6D00A4B0020002E3A
S3150800AB9008BF1E46084B2660002D08BF1D46074BFA
S3150800ABA0A4F80480002F08BF1F466562A762E4E781
S3150800ABB0E83607085A35070889A9000879A9000858
S3150800ABC001884B1E042B19D8DFE803F003080C1084
S3150800ABD01400D0E901120A4812F0B0BFD0E90112F8
S3150800ABE00848F9E7828981880748F5E78188074890
S3150800ABF012F0A4BF826881880548EDE70548F7E7A3
S3150800AC005D35070898350708D33507080C36070851
S3150800AC1034360708723607082DE9F04F85B0002349
S3150800AC208DF80F304BF0CFFCA0B1874C6FF07F4109
S3150800AC30A0694CF050FA85484FF0FF33214600686A
S3150800AC400DF10F024CF0E9FB054640B164204BF0CC
S3150800AC50B8FCF0E74FF47A704BF0B3FCE2E72789CB
S3150800AC60A069012F7CD139464CF0FCF900F03CF97B
S3150800AC70421C06460CD164204BF0A3FC6FF07F41C2
S3150800AC80A0694CF028FA0421A0694CF0EBF9DDE73D
S3150800AC901C236F4AA18820684BF0ADFC4FF4047062
S3150800ACA0FFF7D2FE6A4B02466A4930464BF08FFCE4
S3150800ACB0DFF89C91DFF89CA1DFF8A0B164204BF087
S3150800ACC080FC4B464FF40472514630464BF088FCE4
S3150800ACD0002807DC44F61F6305F16408984522D866
S3150800ACE04546EBE780B2FFF75FFE80460028F1D1C4
S3150800ACF02389032B1BD1636AA7891BB12046A28A25
S3150800AD002169984704234FF404702381A781FFF72C
S3150800AD109BFE4B460246514630464BF058FCA38AEA
S3150800AD20B3F5007FDCD230464BF04FFCA6E7052B87
S3150800AD30D6D1A36A1BB120462269A1899847042364
S3150800AD404FF404702381A781FFF77EFE4B46024627
S3150800AD50514630464BF03BFC5846FFF731FFBFE7FC
S3150800AD60022F8BD139464CF07DF900F0BDF8431C13
S3150800AD70074680D01C23384AA18820684BF03BFC44
S3150800AD804FF40470FFF760FE2E46A8460246324B83
S3150800AD90384630494BF01BFCD4E907A94FEA59233A
S3150800ADA001339BB2DFF8ACB0019364204BF009FC89
S3150800ADB04FF4047259463846274B4BF011FC0028CD
S3150800ADC007DC44F61F6308F164089845EDD9384650
S3150800ADD0AAE780B2FFF7E8FD0028F2D12389042B01
S3150800ADE027D1B9F1000F02D1019BB342EFD0A68952
S3150800ADF00EB10AF5007AB9F5007F4B4628BF4FF425
S3150800AE0000734FF000080136B6B29DB2A9EB0309EC
S3150800AE1003234FF404702381A681C4F810A0A582E9
S3150800AE20FFF712FE594602460B4B38464BF0CFFB4E
S3150800AE30BBE7052BECD1A36A002BC8D02269A189F0
S3150800AE4001489847C3E700BF084B0020344B002051
S3150800AE50EC4A00205E930020D04A0020104B0020C8
S3150800AE6010B50C46014620B11AB113B1601E01286F
S3150800AE7004D9094812F062FE012010BD0748C1E94D
S3150800AE80032300684FF0FF3300220C814CF079FA57
S3150800AE90003818BF0120F0E78D360708344B00202C
S3150800AEA010B501200D4955F08DF930B128220C490D
S3150800AEB00C4865F053F80B4810BD2823094A074982
S3150800AEC01CF0B6FF074C20B928222046044965F035
S3150800AED045F8002384F82730EDE700BF9695002053
S3150800AEE05A3507086E95002003220020014955F0BF
S3150800AEF0F0B800BF0200010030B5545855186B6809
S3150800AF0004B1601843601C60014B53506B6030BD40
S3150800AF10EFBEADDE08B54EF0E8FB034B1B68C01A62
S3150800AF20BDE8084009F030BBB84B002070B58EB0BC
S3150800AF304FF4A0704BF094FA054618B90025284638
S3150800AF400EB070BD1F4B18684CF0E3F8041EF5DB15
S3150800AF50FFF7E0FF1C4B4EF66021B0FBF3F6C4F397
S3150800AF60C0120C92C4F380120B92C4F340120A92D8
S3150800AF70C4F300120992C4F3C0020892C4F3800213
S3150800AF800792C4F34002069204F00102CDE9044296
S3150800AF9003FB16030D4A2846126800960392B3FB74
S3150800AFA0F1F201FB12334FF47A71B3FBF1F3CDE9F9
S3150800AFB00123074B4FF4A0711B68064A12F0E6FD01
S3150800AFC0BDE700BFB04B002080EE3600BC4B00202A
S3150800AFD0B44B00203437070873B5FFF7A7FF284C92
S3150800AFE04FF4A071A0634BF051FEA08504F1200038
S3150800AFF04BF04DFA06464BF033FA054658B9FFF7BB
S3150800B00089FF01461F4812F099FD1F4802B0BDE8A6
S3150800B010704012F093BD04F120014BF03AFA002873
S3150800B0200DDAA06B4BF028FA28464BF025FAFFF705
S3150800B03071FF0146134812F081FD1448E6E71C2308
S3150800B0400193231D009332460023294620681CF0ED
S3150800B05039FEFFF75FFF01460A4812F06FFD41F21D
S3150800B06035620B4B0B490C4812F068FDA06B4BF090
S3150800B07003FA284602B0BDE870404BF0FDB900BFA0
S3150800B0801811002030380708433807086C380708B5
S3150800B090350E07080C0907089138070810B5044645
S3150800B0A0FFF738FF0146084812F048FD21460748D1
S3150800B0B012F044FD064B214618684BF0D3FFBDE855
S3150800B0C01040FFF789BF00BF30380708AB380708BC
S3150800B0D0B04B002008B5114803F050FA104B186021
S3150800B0E030B940F237110F4B0F4A104849F0EEF8C5
S3150800B0F000210F4A0F4803F0F5FA20B94FF49D7165
S3150800B1000D4B094AF1E70D48FEF77EFF20B140F2E4
S3150800B1103B110B4B044AE8E708BD00BF4C3C070847
S3150800B120B04B0020C1380708083C0708D63807087E
S3150800B1305C3C0708E9B2000836390708343C0708BA
S3150800B1404B39070838B50A4D28684BF0E2FF041E4C
S3150800B1500CDB14F0010407D1012128684BF082FFAB
S3150800B1604EF0C3FA034B1860204638BD0124FBE7AE
S3150800B170B04B0020B84B002038B5084D28684BF076
S3150800B180C8FF041E08DB14F0100405D11021286836
S3150800B1904BF068FF204638BD0124FBE7B04B002082
S3150800B1A070B586210446FEF795FD054640B3A3789B
S3150800B1B05A1E012A3BD8A2690AB9022B20D01D4E75
S3150800B1C0336813B9FFF76CFE30604123AB70322346
S3150800B1D06B60A378022B0BD1A289A169164864F08B
S3150800B1E06CFE78B94EF081FA144B1860FFF7AAFF87
S3150800B1F0FFF79CFE4FF4A071A8614BF047FDA881AC
S3150800B200284670BDA289A1690D4864F056FE10B99A
S3150800B210FFF7B2FFECE7A289A1690A4864F04DFE80
S3150800B22010B900F017FDE3E78023AB70E0E70025CF
S3150800B230E6E700BFB44B002074590808B84B002055
S3150800B2408F3907089439070810B5064B044618685D
S3150800B2504BF05FFF0028AABFE040002000F0010085
S3150800B26010BD00BFB04B002037B540F2EA33984214
S3150800B27004460D4617D040F2EB33984221D040F2EF
S3150800B280E93398420DD1FFF745FE0146124812F000
S3150800B29055FC2B89214600931048D5E9002312F066
S3150800B2A04DFC03B030BDFFF735FE01460A4812F0E3
S3150800B2B045FC21462A680A4803B0BDE8304012F02A
S3150800B2C03DBCFFF727FE0146034812F037FC21462E
S3150800B2D02A680448F0E700BF303807089C39070891
S3150800B2E0E0390708063A07082DE9F7430322002044
S3150800B2F0874954F0EEFE874C2060013006D14FF4A2
S3150800B3001871854B854A864848F0E0FF854B002032
S3150800B310854904F10C0263601CF06EFD013004D10E
S3150800B32040F26521814B7D4AEDE741F203036384D0
S3150800B3303223636242F229337D484FF4A071238594
S3150800B34060634BF0A3FC00237A4D6085284623638F
S3150800B35084F82030E36300F067FDEB68CBB1DFF8D3
S3150800B3601882DFF81892744C6FF07F41D8F8000005
S3150800B3704BF0B1FE4FF0FF3302220121D8F800004E
S3150800B3804BF0CAFE002809DA4FF47A704BF055FEE6
S3150800B390EAE740F27721694B604AB4E74EF0A5F92F
S3150800B3A0C9F80000FFF7B6FD0146204612F0C6FBB5
S3150800B3B0D5E90012EB68624800932B7A12F0BEFBBF
S3150800B3C0FFF7A8FD0146204612F0B8FB5D4812F0CB
S3150800B3D0B5FB0420FFF738FF10B1FFF7FDFDD3E7F3
S3150800B3E0FFF7FAFD584B452200935849584B5948E0
S3150800B3F0FFF7BAFB18B12020FFF750FEC4E7FFF7A6
S3150800B40089FD0146204612F099FB534812F096FB37
S3150800B410FFF7E2FDFFF77EFD0146204612F08EFBA0
S3150800B42045224E4B49494E4812F088FB01214D4BA7
S3150800B4304A4A4848FFF714FD0028A5D1454E30462C
S3150800B4404BF0B8F820B94FF47A704BF0F6FDF6E7F2
S3150800B4500520FFF7F9FE002896D10420FFF7F4FE31
S3150800B46006460028B9D10220FFF718FEFFF752FD5D
S3150800B4700146204612F062FB3B4812F05FFB4FF490
S3150800B4807A704BF0DAFD314630464BF020FB374FE9
S3150800B4900646386040B14020FFF700FE394640F2C4
S3150800B4A0EA30FFF7E1FE5FE70420FFF7F7FDFFF755
S3150800B4B031FD0146204612F041FB2D4812F03EFBB5
S3150800B4C04FF47A704BF0B9FD304600F0CDFC386089
S3150800B4D030B18020FFF7E2FD394640F2EB30E0E775
S3150800B4E00820FFF7DBFDFFF715FD0146204612F0A1
S3150800B4F025FB204812F022FB41F288304BF09DFDD7
