S0210000776973756E5F6E6F64655F6D6F6E69746F72696E675F666732382E7333375D
S315080060000010002039B80008391E0508391E050891
S31508006010391E0508391E0508391E0508391E0508E2
S31508006020391E0508391E0508391E0508391E0508D2
S31508006030391E0508F8DF06088B000108391E050811
S31508006040391E0508391E0508391E0508391E0508B2
S31508006050391E0508391E0508391E0508391E0508A2
S31508006060391E0508391E0508391E0508C98D000898
S315080060705B0F0508391E0508391E0508391E05086F
S31508006080391E0508391E0508391E0508391E050872
S31508006090391E0508391E050839C40008391E0508C1
S315080060A0391E0508391E0508391E0508391E050852
S315080060B0391E0508391E0508B5540208515F02083D
S315080060C0CBAE0508C7AE0508E5560208D7AE0508E3
S315080060D0CFAE0508295F0208D3AE0508915F02080E
S315080060E07D600208391E0508391E0508391E05088F
S315080060F0391E0508391E0508391E0508391E050802
S31508006100391E0508391E0508391E0508391E0508F1
S31508006110391E0508391E0508391E0508391E0508E1
S31508006120391E0508391E0508391E0508391E0508D1
S31508006130391E0508391E0508391E0508391E0508C1
S31508006140391E0508391E0508391E050865050108A2
S31508006150391E0508391E05081B4B0508553B02085C
S31508006160391E0508391E050883AC050889AC0508DB
S31508006170391E0508391E0508391E050800000000E5
S31508006180013800D0FCE770472DE9F0410023154699
S31508006190C2E900014FF47A7280460F4649F048F981
S315080061A018A3D3E9002304460E464046394649F06B
S315080061B03FF9134B80B228815843241A66F100062A
S315080061C04FF4616200232046314649F031F94FF415
S315080061D06163C0B2A8725843241A20464FF03C02A5
S315080061E04FF0000366F1000149F022F9C0B2E872E7
S315080061F0C0EB0010A4EB80042C73BDE8F08100BF4F
S3150800620080510100005C2605000000000000000027
S315080062102DE9F04F93B0CDE90A32DDE91C530E9310
S3150800622053EC102BCDE90801104619468DED060BE7
S315080062301E9E48F0D5FE80B1DDE906014FF0FF321B
S31508006240C54B48F0F5FE40B9DDE906014FF0FF32CF
S315080062506FF4801348F0CEFE70B1DDE908019DEDBC
S31508006260060B0E9B1E96CDE91C53DDE90A3213B0C8
S31508006270BDE8F04F00F088B90022DDE906010023E9
S3150800628048F0B8FE002800F03381DDE906A303F1E3
S31508006290004BCBF30A5016F48063A0F2FF3008BF18
S315080062A006250F9348F0CAFB9BA3D3E9002348F0C1
S315080062B02FFC9BA3D3E9002348F074FACBF313040D
S315080062C0894644F07F5180460022A44B504641F44B
S315080062D0401148F065FA94A3D3E9002348F018FC66
S315080062E002460B464046494648F05CFA48F0AAFE84
S315080062F0044648F0A3FB8EA3D3E9002380468946CB
S3150800630048F006FC0022964B48F04CFA48F09AFEF4
S3150800631089A3D3E9002307464946404648F0F8FBD7
S3150800632080463846894648F089FB85A3D3E9002389
S3150800633048F0EEFB02460B464046494648F030FA1E
S3150800634002460B46CDE90C2348F0E2FBDDE90C23B7
S31508006350804689461046194648F024FA0022CDE9B7
S315080063601001804B4046494648F0FCFC00227E4B13
S3150800637048F018FA02460B464046494648F0F2FCF1
S3150800638000227A4B48F00EFA02460B46404649462A
S3150800639048F0E8FCDDE90C238046894600204FF0EA
S315080063A0804148F0FDF902460B464046494648F00A
S315080063B0F9F902460B46DDE9100148F0D3FC07F26D
S315080063C0FF3700226A4B48F0EDF900223B0548F0FA
S315080063D09FFB52465B468046894648F029FE0028C0
S315080063E040F08980CDE90C8904F16303C72B34BFDB
S315080063F00427052731051BD553A3D3E900235046A7
S31508006400594648F00BFE00287FD051A3D3E9002354
S315080064105046594648F0EEFD002876D00027A5429A
S31508006420C6BF2C1B04F1FF3500253C4646F48066A2
S315080064300E9B9F422CBF4FF00008A3EB070816F0EF
S31508006440020903D0002F18BF4FF000083CB1DDE960
S315080064500C235046594648F085FC82468B46DDE9B2
S3150800646006010022002348F0C5FD10B10BF10043D8
S315080064709B46DDE9080126F40063CDE90183DDE9E1
S315080064800A324BEC10AB009500F07EF802465FB37B
S31508006490DDE9091316F0200F00F10105089E0CBF6F
S315080064A065204520B047DDE908010523002205934C
S315080064B00A23002CCDE9023207F1FF374FEAD473DD
S315080064C0B8BF64422A46019304970A9B009453F086
S315080064D06FFB0246B9F1000F06D00B9BC41A0B9B43
S315080064E01A190E9BA34245D8104613B0BDE8F08F83
S315080064F0DDE906ABCDE60022404649461A4B48F090
S3150800650031FC013CCDE90C016EE7002D90D00F9BC4
S31508006510002B8DD0013D8BE7FB799F501344D33F69
S31508006520B3C8608B288AC63F61436F63A787D23F8B
S3150800653071A379094F930A401655B5BBB16B024052
S31508006540EF39FAFE422EE63F2D431CEBE2361A3FA0
S315080065500000000080842E41FFFFEF7F0000F83F17
S315080065600000E03F00002C400000244000001840D6
S315080065700000F03F2020DDE90913089DA8470134F3
S31508006580ADE700BF000000002DE9F04F97B05BECC7
S3150800659010ABDDE92057CDE90501CDE907235046C3
S315080065A052465B465946229E48F01AFD70B90323A7
S315080065B0CDE902760193B04B0093DDE90501DDE9EB
S315080065C0072353F015FA17B0BDE8F08F4FF0FF32E6
S315080065D06FF480135046594648F00CFD28B1042341
S315080065E0CDE902760193A54BE6E74FF0FF32504618
S315080065F05946A34B48F01CFD68B1A24A06F00403AD
S31508006600002B08BF0322A04B1CBF13460422CDE96A
S3150800661002760192D0E7504693A3D3E90023594660
S3150800662048F006FD38B992A3D3E9002350465946E7
S3150800663048F0E0FC68B1DDE90723DDE905014BEC2C
S3150800664010ABCDE92176209517B0BDE8F04FFFF7DE
S31508006650DFBD002200235046594648F0CBFC0028EF
S3150800666000F09A805B4652460020002148F098F8D0
S31508006670012382468B46099316F4806400F08E80C7
S31508006680092D40F28E80002430210EABA5F10902B7
S315080066900134202C03F8011BA5EB040901D0944210
S315080066A0F6D15946504648F0CDFC784B054603EBE3
S315080066B0C90393ED007B8DED0A7B48F0BFF90246CE
S315080066C00B465046594648F06BF8DDE90A2348F070
S315080066D01FFA02460B46CDE90C2348F0DBFC804640
S315080066E048F09CF902460B46DDE90C0148F058F8DB
S315080066F002460B46CDE90C230022654B48F098FC70
S31508006700002851D008F10108404648F087F90246AA
S315080067100B46DDE90A0148F077FC10B14FF0000896
S315080067200135B9F1000F50D1284648F087F90246DD
S315080067300B465046594648F033F80022544B8046DB
S31508006740894648F057FC30B1002240464946504B2E
S3150800675048F06EFC10B1E80700D501350A210EABEA
S315080067601A19202C0AD095FBF1F001FB105530358B
S3150800677002F8015B013405460028F2D106F003024F
S31508006780012A57D1002F55D0099A12B916F00C0FC5
S3150800679000D0013F302245E009906DE74FF0060929
S315080067A07FE7A94600247CE70022DDE90C01384B87
S315080067B048F020FC0028B4D1B8F1000F02D018F038
S315080067C0010FAED008F10108ABE70A210EAB23444E
S315080067D0202C0ED0B8FBF1F001FB1082B8F1090F9E
S315080067E002F1300209F1FF3904F1010403F8012B23
S315080067F011D83021A1440EAA202CAFD0A14504F10E
S3150800680001030AD11C4609F158030DEB03092E238F
S3150800681009F8203CA2E78046DAE7A1541C46EBE7D4
S315080068201A550134A74205D9202CF9D1CDE90276AB
S315080068300194C1E6202CF9D0099A3AB12D2104F128
S3150800684058026A4402F8201C0134EFE7710704D5A0
S3150800685004F158022B216A44F4E73207E6D504F11D
S31508006860580220216A44EDE70000000065CDCD41BD
S315080068700000000065CDCDC19FF80608A3F80608FC
S31508006880FFFFEF7F96F806089BF80608A8F80608A3
S315080068900000E03F0000000070B5A8B02C220021DF
S315080068A01DA863F085FB4FF002331F9340F20B13CC
S315080068B0814D14ACADF89C300FCD0FC40FCD0FC46D
S315080068C02B687E4923607E4B7E4807930023CDE9DB
S315080068D008330A931FF0DEFC7B4D286000285BD046
S315080068E0012154F005FB20B140F2F531774820F03C
S315080068F089FF286853F089FF754E3070286853F071
S3150800690086FF744B74491870286820F03DF80446D1
S3150800691000283BD13378714E5BB9714823F06AFF82
S31508006920306010BB4FF485616E4B6F4A674848F07C
S315080069300FFF6E4823F05EFF30600028EDD0224638
S31508006940C18928681FF042FD01220321286854F0F6
S31508006950E2FA33682146586823F086FF0446A8B948
S315080069605F4823F047FF3060C0B1C189002228681C
S315080069701FF02CFD01220321286854F0CCFA336855
S315080069800421586823F070FF044638B123462221B3
S315080069900220574A54F07EFD28B070BD07F04EF924
S315080069A0544A04ABCDE904010393A2F1080113F894
S315080069B0010B02F8010D9142F9D10622FF210BA81D
S315080069C063F0F6FA0622FF210DF1320063F0F0FAC1
S315080069D0182200210EA863F0EBFA08220EA903A8D4
S315080069E063F059FB41F234231C22002120A8ADF89C
S315080069F02C3063F0DDFA28681DA920F0B7F90446A3
S31508006A000028C3D13C49286854F018FB04460028DE
S31508006A10BCD13A49286854F0FBFA04460028B5D197
S31508006A20374928681FF05EFD04460028AED120A32A
S31508006A30D3E90023CDE90023286854F001FB044676
S31508006A400028A3D12F4A3049286854F039FB044658
S31508006A5000289BD101201FF069FC00289CD0A023A8
S31508006A602A4A07A8D3802A4A136007F05DFA294BF9
S31508006A70186020B940F27141274B1B4A56E7274A4E
S31508006A802749284825F01CFA26483EF079FE214673
S31508006A90254814AA07F0FCFA244B186000287FF44E
S31508006AA07BAF40F27D41224B0F4A3FE7AFF30080B0
S31508006AB0488D01C1034000007071070839A7020814
S31508006AC06C680708A81300203C6D00208C63070833
S31508006AD09DC100209CC1002007001100F45C002025
S31508006AE00FC30508816807085D700708F9C205081D
S31508006AF0CF680708A6C100206E7107086C710708E1
S31508006B00406D0020B8150020345D0020C813002011
S31508006B10906D0020A06D002099680708B5680708E1
S31508006B2049AA02085C6D0020ADB60208A86D0020CF
S31508006B30BE680708000000002DE9F7430546604CCB
S31508006B40222110205F4A54F0A5FC18222946204627
S31508006B5063F0A1FAA27B5C4BDFF8B0911A70E37C74
S31508006B60002289F800300023CDE90023574D002282
S31508006B704FF40073286854F063FA18B1012003B083
S31508006B80BDE8F083524B534E1B787BB9524823F02D
S31508006B9031FE04463460F4B90220504A222154F0EA
S31508006BA079FC01224E4B21201A70E8E74D4B4E4CDA
S31508006BB01A884E4B286853F822104D4A8B68216074
S31508006BC033601FF06BFE22684A4B946824221B88A8
S31508006BD002FB0344DEE7484B1C60434BD3F80080B6
S31508006BE0B8F1000F07D000232420D8F80C108B42E8
S31508006BF008D1002727E040F2AA61404B404A4148A5
S31508006C0048F0A6FDD8F8087000FB0377FA695278B1
S31508006C10120912F00E0F45D0052A43D80022F98929
S31508006C20286837601FF0D2FB01220321286854F038
S31508006C3072F933680021586823F016FE324B93F92F
S31508006C40000023F049FE1CA3D3E90023CDE9002365
S31508006C50286854F0F5F9D8F80830BB4214D0D98919
S31508006C600022286833601FF0B1FB0122032128683F
S31508006C7054F051F933680421586823F0F5FD224B86
S31508006C8093F9000023F028FE99F8003034601B09B8
S31508006C9013F00E0F08D024F03DFB012024F08EF8E7
S31508006CA000206CE70133A2E701220721286854F087
S31508006CB0BBFA0028EFD061E7488D01C10342000006
S31508006CC0F85C0020046B070893C100203C6D002087
S31508006CD097C10020F45C002051A90208206B070820
S31508006CE094C1002086740020E85C0020481000202B
S31508006CF0C1A9020884740020F05C00205C6B0708B8
S31508006D000B6F07088C630708D017002092C1002074
S31508006D100348044B834202D0034B03B1184770471C
S31508006D204C2200204C22002000000000064B074998
S31508006D30C91A891048BF0131491003D0044B0BB159
S31508006D4001481847704700BF4C2200204C220020FB
S31508006D500000000010B5064C237843B9FFF7D8FFAA
S31508006D60044B13B10448AFF300800123237010BD10
S31508006D70A474002000000000780C080808B5054B2C
S31508006D801BB105490548AFF30080BDE80840FFF789
S31508006D90CDBF00BF00000000D0400020780C0808D6
S31508006DA0A3F5803A704700BF174B002B08BF134B5B
S31508006DB09D46FFF7F5FF00218B460F461348144AF8
S31508006DC0121A63F0F5F80E4B002B00D098470D4BBE
S31508006DD0002B00D098470020002104000D000D4824
S31508006DE0002802D00C48AFF3008049F06FF9200064
S31508006DF029004AF054F848F0D1FC00BF000008000A
S31508006E000000000000000000001000204C220020B6
S31508006E10F0C90020000000000000000008B501F0DD
S31508006E2001FF0022084BC3E90001084BC3E9000132
S31508006E30074B08491A8000220023C1E900230649A6
S31508006E40C1E9002308BD00BFC8220020C0220020D7
S31508006E5008740020B8220020B02200202DE9F04353
S31508006E609BB000AF00230446F81CC7E9013354F071
S31508006E707BFC18B181B2184816F036FB6A46FB78D7
S31508006E80F81CA2EBC3039D466946E84654F081FC0C
S31508006E9018B181B2114816F027FB0026FB78F5B227
S31508006EA0AB4210D908EBC509484607F10C0154F066
S31508006EB089FCFB6A0136002BF0D158F83500D9F861
S31508006EC004103B1D03C33B1D03CB206020466C37D3
S31508006ED06160BD46BDE8F08320A7060859A70608E5
S31508006EE013B56846FFF7BAFF064C009B06492360B0
S31508006EF0019B06486360E379A27902B0BDE81040B9
S31508006F0016F006BB557D00208DA7060816860020BC
S31508006F1030B595B049F0BCFF0FAD02461549284675
S31508006F2016F0F6FAFFF7DCFF134B144CD3E90A0107
S31508006F30CDE90C01D3E90801CDE90A01D3E9060137
S31508006F40CDE90801D3E90401CDE90601D3E9022315
S31508006F50CDE904230A4B4FF480610193094B20467F
S31508006F600093094A094B029516F0E6FA204615B031
S31508006F7030BD00BF1F7B0708502200206581002016
S31508006F801686002018A80608A4A706081E8600204C
S31508006F902DE9F04FA3B0804649F07AFF0EAF0246BE
S31508006FA06149384616F0B4FAFFF79AFF5F4BDFF8E7
S31508006FB0AC911B78052B63D101F034FE5C4A0DF1C8
S31508006FC0600AD2E90045041B61EB050529462046FF
S31508006FD001F002FE5449024613A816F099FAD9E9B7
S31508006FE00001201845EB010101F0F6FD514E02465D
S31508006FF04D49504616F08CFAD6E9000101F0ECFD31
S315080070000DF1740B02464849584616F081FAD9E93B
S315080070100032E41845EB020520462946CDE90AABBD
S3150800702047F040FD0022444B47F072FD82468B46EE
S31508007030D6E90001201845EB010147F033FD0B4660
S3150800704002465946504647F08DFECDE908013B4BAE
S315080070501B8806933A4B059313ABCDE90373394B5B
S315080070604FF480610293384B384A0193384B3948BC
S315080070700093434616F060FA364823B0BDE8F08F11
S3150800708001F0D0FD344ADFF8ACA0D2E90056451B22
S3150800709061EB06063146284601F09EFD2249024666
S315080070A013A816F035FAD9E9000101F095FD0DF19E
S315080070B0600B02461C49584616F02AFADAE900011E
S315080070C0281846EB010101F087FD1DAB024616495B
S315080070D0184616F01DFAD9E900491DAB204649465F
S315080070E0CDE90AB347F0DEFC0022134B47F010FD4A
S315080070F0CDE90C01DAE90031E41849EB0101601920
S3150800710046EB010147F0CEFC0B460246DDE90C01D1
S3150800711047F028FECDE90801084B1B88069313ABF8
S315080071200593074B99E700BF1F7B07086585002075
S31508007130C8220020B0220020000059400874002010
S31508007140F2A806081686002018A806081DA806082C
S315080071501E86002065810020C0220020B82200205B
S3150800716037B56049012054F01BFA05465E495D486B
S3150800717004F0FAF95D4C002D00F09C804FF4806114
S315080071805B4A206816F0D8F949F082FE2368024661
S315080071905849002052F02CFE49F07AFE2268014632
S315080071A0544816F0A1F94FF48061534AABB22068EF
S315080071B016F0C2F90020216852F01AFE206816F06F
S315080071C093F94FF480614D4B4D4A206816F0B4F997
S315080071D049F05EFE236802464649002052F008FE42
S315080071E049F056FE22680146424816F07DF94348A2
S315080071F062F05EFF434A014640484AF02AFD42498A
S31508007200404804F0B1F9414B4FF480615B88404A2D
S31508007210009320683C4B16F08FF949F039FE236835
S3150800722002463449002052F0E3FD49F031FE226857
S315080072300146304816F058F94FF48061354B364A06
S31508007240206816F079F949F023FE23680246294991
S31508007250002052F0CDFD49F01BFE22680146254864
S3150800726016F042F92B4862F023FF2C4A01462948BA
S315080072704AF0EFFC2A49294804F076F9294B4FF4DD
S3150800728080615B88284A00932068254B16F054F9DC
S3150800729049F0FEFD236802461649002052F0A8FD73
S315080072A049F0F6FD22680146124816F01DF92846EF
S315080072B003B030BD4FF480610B4B1C4A206816F0B2
S315080072C03BF949F0E5FD236802460A49284652F08B
S315080072D08FFD49F0DDFD22680146064816F004F9DF
S315080072E06FE700BF457D00201D7D00204C41002032
S315080072F024F00608F5A80608FDA806085DA90608EC
S315080073006AA9060814410020CD7C00200C41002003
S3150800731085A90608ACA90608B9A90608F8400020F8
S31508007320A57C0020F0400020D5A906083AA9060841
S3150800733070B5FFF715FF03220221002054F0B7F8B5
S315080073404D4A411C03464D4C106023D14FF48061D1
S315080073504B4A206816F0F0F849F09AFD2368024671
S315080073604849002052F044FD49F092FD2268014642
S31508007370444816F0B9F8444A4FF48061206816F07C
S31508007380DBF82168002052F033FD206816F0ACF8CF
S31508007390012070BD4FF480613C4A206816F0CCF895
S315080073A049F076FD236802463649002052F020FD52
S315080073B049F06EFD22680146324816F095F8344BBE
S315080073C0344A02211A600020032254F070F8324D24
S315080073D0421C0346286016D14FF48061284A20686B
S315080073E016F0AAF849F054FD2368024625490020FC
S315080073F052F0FEFC49F04CFD22680146214816F081
S3150800740073F8264AB8E74FF48061254A206816F0D3
S3150800741093F849F03DFD236802461A49002052F0C8
S31508007420E7FC49F035FD22680146164816F05CF877
S315080074301C4E1D4C1D4B23602B68354645F8043BF6
S315080074400FCC0FC594E8070041F2030385E807004F
S3150800745073843223736242F22A3315484FF48C71CF
S31508007460338570634AF00AFE70850020306386F81B
S315080074702000F0638DE700BFEC4000204C4100205F
S3150800748024F00608F5A80608FCA9060832AA060884
S315080074900C4100200000D504E840002063AA060835
S315080074A09AAA060808100020F040002000003516A9
S315080074B0CBAA060873B52F4D4FF48C71A8634AF012
S315080074C0DDFDA88505F120004AF015FA06464AF0C2
S315080074D0FBF90446E8B9284D009640F2DE234FF43E
S315080074E08061264A286816F027F849F0D1FC2B68EF
S315080074F002462349204652F07BFC49F0C9FC2A681B
S3150800750001461F4815F0F0FF4FF43875284602B0BB
S3150800751070BD05F120014AF0F0F900281CDA164D75
S3150800752040F2E3234FF48061164A286816F004F8FF
S3150800753049F0AEFC124902462B68002052F058FC6E
S3150800754049F0A6FC2A6801460D4815F0CDFF00252E
S3150800755020464AF0C5F9D9E71C2301930A4B32465F
S31508007560009321460023286820F082F80130EED1E6
S315080075703125EDE7081000204C410020DEAA060858
S31508007580F5A806081EAB0608F04000202DE9F043D2
S3150800759085B005461C469DF830609DF83470002A73
S315080075A000F08F80002978D049F072FC01467148B6
S315080075B015F09AFF284615F097FF002C40F09A80A0
S315080075C00124002E3CD02B464FF480616A4A6B4852
S315080075D015F0B2FF1C230193694BDFF8D091009395
S315080075E086B2002332466549D9F8000020F040F8F3
S315080075F0013040F0838040F2D5430293614B0396F5
S315080076000193D9F80030DFF88C8100934FF480613C
S3150800761040F212335C4AD8F8000015F08DFF49F0A5
S3150800762037FC5A490246D8F80030002052F0E0FBF1
S3150800763049F02EFCD8F800200146544815F054FFAE
S315080076403FB32B464FF480614B4A514815F074FFFF
S3150800765083B2B3F58C7F54D94FF48C734D4D80B2F9
S315080076600193009040F21B334FF480614A4A286820
S3150800767015F062FF49F00CFC444902462B680020CD
S3150800768052F0B6FB49F004FC2A6801463F4815F05B
S315080076902BFF204605B0BDE8F08315F025FF002C2A
S315080076A08ED00124DFF8EC802A464FF48061D8F8A2
S315080076B0000015F041FFD8F80010002052F098FBA2
S315080076C016E0002B3FF47DAFB1B11446DFF8C48055
S315080076D02A464FF48061D8F8000015F02DFF49F0CE
S315080076E0D7FBD8F8003002462849002052F080FB24
S315080076F0013466E70124E9E70C46D3E70134E4B22E
S315080077009EE72348FFF7D6FE064610B90134E4B2D1
S31508007710BFE7204D4FF48061204A286815F00CFF1A
S3150800772049F0B6FB2B6802461849002052F060FB68
S3150800773049F0AEFB2A680146144815F0D5FE41F219
S3150800774035630293164BB6B20193164B03961B6824
S31508007750154A00934FF4806140F21F33286815F0EC
S31508007760EBFE2968002052F043FB286815F0BCFEA2
S315080077708FE700BF58AB06081F7B0708A5780020CF
S315080077800C410020CD7C00205EAB0608F5A8060853
S31508007790A57400204C410020BDAB060824F006085D
S315080077A0A57C0020E840002029AC0608EC40002013
S315080077B02DE9F04186B001F097F9C34DC34815F09D
S315080077C093FEC34EC34AC449C448C54C15F0A0FE2F
S315080077D064212846C34BC04A15F0AEFE01950096B3
S315080077E04FF48061BD4BC04A206815F0A5FE49F0EC
S315080077F04FFB23680246BD49002052F0F9FA49F0CA
S3150800780047FB22680146B94815F06EFEB84B32218F
S31508007810B84A0093B848B94B15F08EFE4FF480610C
S31508007820AE4BB74A206815F087FE49F031FB23684E
S315080078300246AE49002052F0DBFA49F029FB2268DD
S315080078400146AA4815F050FE33464FF48061AC4A0B
S31508007850206815F071FE49F01BFB23680246A34910
S31508007860002052F0C5FA49F013FB226801469F48EA
S3150800787015F03AFE2B464FF48061A14A206815F0B0
S315080078805BFE49F005FB236802469849002052F042
S31508007890AFFA49F0FDFA22680146944815F024FE2D
S315080078A04FF48061944B964A206815F045FE49F0DE
S315080078B0EFFA236802468D49002052F099FA49F0FA
S315080078C0E7FA22680146894815F00EFE01210420D0
S315080078D001F0BCF801F07EFA8A4B8B4F1D68DFF881
S315080078E09C82284604F060FB884B1E68304604F0EC
S315080078F05BFB4FF47A704AF08EFD284604F068FB6D
S31508007900304604F065FB4FF47A704AF084FD284649
S3150800791004F04AFB304604F047FB7D4815F0E4FDC9
S3150800792001220321222001F0B9F8012203211D209A
S3150800793001F0B4F8774B4FF48061674A764815F042
S31508007940FBFD4FF48061754A206815F0F5FD49F096
S315080079509FFA236802466549002052F049FA49F021
S3150800796097FA22680146614815F0BEFD4FF480611A
S315080079706B4A206815F0E0FD49F08AFA236802464A
S315080079805A49002052F034FA49F082FA2268014630
S31508007990564815F0A9FD384653F0CEFEFB79BA795C
S315080079A06049614815F0B4FD4FF480615E4B5F4A4B
S315080079B0206815F0C1FD49F06BFA236802464B4969
S315080079C0002052F015FA49F063FA22680146474842
S315080079D015F08AFD5649574815F09AFD4FF480610F
S315080079E0544B554A206815F0A7FD49F051FA23680B
S315080079F002463E49002052F0FBF949F049FA22684E
S31508007A0001463A4815F070FD4C498B2002F0D0FE2D
S31508007A1001F008F94A4B3F4FC3E9000153F07BFEDA
S31508007A204FF48061474A206815F086FD49F030FA20
S31508007A30236802462D49002052F0DAF949F028FA5F
S31508007A4022680146294815F04FFD49F090FA0121B0
S31508007A50022000F0FBFFFFF76BFC45233A4A3B493F
S31508007A603B4815F041FD02A9012053F099FD39481C
S31508007A7015F03AFD02A803F0E9FD41F2336201462A
S31508007A80354B364815F030FD354815F02DFD02A862
S31508007A9003F0DCFD41F2336201462F4B314815F005
S31508007AA023FD0A21304815F01FFD41F235622F4BA0
S31508007AB02F49304815F018FD2F4815F015FD41F2ED
S31508007AC035622A4B5CE000BFB285002024F0060828
S31508007AD0BCAC060818A806081F7B070826860020DF
S31508007AE04C41002094AC0608B2AC0608F5A8060876
S31508007AF0E6AC0608D1AC060880850020C5AC0608A9
S31508007B0059A90608A4BF06085D7D00208CBF060893
S31508007B10EFAC0608ECEB0608657D0020FEAC06080F
S31508007B2015AD06088DA706081E8600202FAD060887
S31508007B303EAD06086785002056AD0608FD7B0008A1
S31508007B40D022002066AD06085DA9060880AD0608A5
S31508007B5093AD0608D5AD0608EFAD0608F8AD0608DC
S31508007B603BAE060872AE0608A9AE0608DAAE0608E7
S31508007B70ACA90608EAAE060838AF060865850020EF
S31508007B801849194815F0B0FC1849194800F09CFA2C
S31508007B901848FFF7BDF901231A461946CDE90033FF
S31508007BA0FFF7F4FC98F80030052B18D1284604F0A6
S31508007BB0E7F9304604F0E4F901243846FFF7E8F916
S31508007BC00123CDE900441A461946FFF7DFFC4FF4B6
S31508007BD07A70094B1B8858434AF01DFCE2E70024DB
S31508007BE0EBE700BFACA9060873AF0608F57C0020D2
S31508007BF01D7D0020ECEB0608401500202DE9FF4707
S31508007C008268BF4DD2B2052A2A7000F27681BD4E2F
S31508007C1033889A4200F07181BB4C00924FF4806120
S31508007C20BA4A206815F088FC49F032F923680246FA
S31508007C30B749002052F0DCF849F02AF922680146D3
S31508007C40B34815F051FC2F787B1E042B35D800F06D
S31508007C50E9FF02460B46AF4901EBC707C7E9002310
S31508007C602B785F1E51F8332001EBC70C01EBC300DC
S31508007C7051F837104068DCF80470521A60EB0701B7
S31508007C80A54800EBC30740F833207960CDE9002109
S31508007C904FF48061A14A206815F04EFC49F0F8F8C7
S31508007CA09B4902462368002052F0A2F849F0F0F8F2
S31508007CB022680146964815F017FC2B78052B7AD1D1
S31508007CC0944A9749D2E90A3C0A88DFF87C9201323D
S31508007CD092B2012AC9E9003C2068924F0A8040F016
S31508007CE04181CDE9003C4FF480618F4A15F024FCB0
S31508007CF049F0CEF8236802468549002052F078F804
S31508007D0049F0C6F822680146814815F0EDFB0023C4
S31508007D101A46DFF84482C7E90032404662F0C8F9DD
S31508007D20824B87B295F80090188049F0B1F8C7F5EC
S31508007D3080614B467E4A009008EB070015F0FCFB75
S31508007D40276895F8008049F0A3F843464FF4806108
S31508007D50774A0090384615F0EFFB49F099F8236802
S31508007D6002466B49002052F043F849F091F8226820
S31508007D700146674815F0B8FB02A8FFF76FF86D4F84
S31508007D80029B6D493B60039B6C487B60FB79BA7923
S31508007D9015F0BEFB6A4B1B684BB16A48FFF7B8F88B
S31508007DA001231A461946CDE90033FFF7EFFB0121F7
S31508007DB0022000F04BFE3388052B40F09C80554F7F
S31508007DC04FF00009BA46B84600F02CFF2A7809F1A8
S31508007DD001094A45EAE80201F6DA0020DFF838C167
S31508007DE03B46B968D3F80CE00130D3E90093B1EB10
S31508007DF009016EEB03034CF8081F824207F10807D6
S31508007E00CCF80430ECDA08EBC20158F832304E4FA1
S31508007E104A68DFF84881D7E90001C8E900321B1A29
S31508007E2062EB0102CDE900324FF48061474A2068CF
S31508007E3015F082FB49F02CF82368024634490020E5
S31508007E4051F0D6FF49F024F822680146304815F06B
S31508007E504BFBD8E90032DFF808C1DFF8FC80DCE923
S31508007E6000011B1842EB0102D7E900105B1A62EB0E
S31508007E7000024046CCE9003262F01AF92B4B87B271
S31508007E8095F80090188049F003F8C7F580614B46CD
S31508007E902F4A009008EB070015F04EFB276895F867
S31508007EA0008048F0F5FF43464FF48061284A009069
S31508007EB0384615F041FB48F0EBFF236802461449A3
S31508007EC0002051F095FF48F0E3FF2268014610486C
S31508007ED015F00AFB0121042000F0B8FD0122032158
S31508007EE0222000F0DBFD012203211D2000F0D6FD33
S31508007EF00122184B1A702B78338004B0BDE8F0873E
S31508007F0065850020047400204C410020A9AF0608AE
S31508007F10F5A806088022002050220020BEAF0608D9
S31508007F2008740020B0220020E7AF06080674002077
S31508007F3024B00608557D00208DA706081686002061
S31508007F40EC400020ECEB0608C82200202FB00608FB
S31508007F504CB0060866850020657D0020C0220020FA
S31508007F60B8220020DFF85880D8E900125B1A6CEBBB
S31508007F700202CDE900324FF480610F4A15F0DCFAAF
S31508007F8048F086FF236802460C49002051F030FF6E
S31508007F9048F07EFF22680146084815F0A5FAD7E999
S31508007FA00001D9E900321B1842EB0102D8E900109A
S31508007FB05B1A62EB0002ACE608B00608F5A80608EC
S31508007FC0C022002084B010B58CB00EAC84E80F0037
S31508007FD09DF87F30154C0B939DF87C304FF48061EB
S31508007FE0AE3B0A939DF87D302046AE3B0993BDF81B
S31508007FF076300F4A0893BDF8743007931B9B069397
S315080080001A9B0593199B0493189B0393179B02933A
S31508008010169B01939DF894300093269B15F08CFAD5
S3150800802020460CB0BDE8104004B0704765810020BA
S3150800803057B006082DE9F041AEB016AF0446F81C55
S3150800804053F092FB18B181B21A4815F04DFAFB7835
S31508008050A3422DD96A46A2EBC3039D4616AD29460F
S31508008060F81C53F096FB18B181B2134815F03CFA88
S31508008070DFF850803E1D314605EBC40005EBC4050C
S3150800808053F0A0FBEB79AA790C49404615F040FA63
S31508008090492207F114016846CDE9134861F0FBFF50
S315080080A096E80F00FFF78EFF6037BD46BDE8F08102
S315080080B00348F9E720A7060859A706088DA7060862
S315080080C0ECEB06082E86002070B50D4604461A4EBF
S315080080D0304615F009FA194815F006FA41F23562E4
S315080080E02946174815F000FA164815F0FDF92146F5
S315080080F0154815F0F9F9154815F0F6F9214614480A
S3150800810015F0F2F901F06AFF124815F0EDF9124878
S3150800811015F0EAF9114815F0E7F9114815F0E4F9F0
S31508008120104815F0E1F9104815F0DEF93046BDE8BB
S31508008130704015F0D9B900BF24F006082FB106081B
S3150800814063B1060884B1060895B10608D5B10608D4
S31508008150E9B1060841B2060897B20608E7B206086A
S3150800816023B306087DB30608D8B3060830B587B02A
S3150800817004460C4B0C4D04930C4B4FF47A71039345
S315080081800B4B284602930B4B0B4A01930B4B009360
S315080081900B4B15F0D1F92146284607B0BDE830400B
S315080081A048F058BE80850020338E0020B285002016
S315080081B067850020BCAC060816B40608268600208B
S315080081C01E86002070B59AB004460DF1170053F0CC
S315080081D0CBFA00F027FD00F0FFFC2821024606A88E
S315080081E015F0AAF900F01EFD104A10AED2E90032C9
S315080081F0C01A61EB020100F0EFFC28210246304666
S3150800820015F09AF99DF81730094D0293094B0A4A59
S31508008210CDE900634FF47A7106AB284615F08CF960
S315080082202146284648F016FE1AB070BDC82200201E
S31508008230338E0020168600208EB4060838B504460C
S31508008240064D4FF47A712846054B064A15F074F91F
S3150800825021462846BDE8384048F0FCBD338E00204C
S315080082601E8600201F7B070838B50446064D4FF4C6
S315080082707A712846054B064A15F05EF921462846C6
S31508008280BDE8384048F0E6BD338E0020268600203B
S315080082901F7B070838B50446064D4FF47A71284601
S315080082A0054B064A15F048F921462846BDE83840E8
S315080082B048F0D0BD338E0020BCAC06081F7B0708EB
S315080082C038B50446064D4FF47A712846054B064ADA
S315080082D015F032F921462846BDE8384048F0BABDBF
S315080082E0338E0020678500201F7B070810B59AB0DB
S315080082F08389044653B300218269D154806915499C
S3150800830001AA47F04FFCE0B1134901A861F0B1FE9C
S3150800831040B953F066F953F0FEF900F0BBFF0020B0
S315080083201AB010BD0D4901A861F0A3FE10B953F0AB
S3150800833058F9F2E70A4A01AB4FF47A71094815F081
S31508008340FBF82146074848F085FDE9E7064B014A50
S31508008350F2E700BF1F7B0708E5B40608EFB4060876
S31508008360F9B40608338E0020B285002038B50446D5
S31508008370064D4FF47A712846054B064A15F0DCF887
S3150800838021462846BDE8384048F064BD338E0020B3
S31508008390808500201F7B070838B5044600F042FC9C
S315080083A000F01AFC064D03464FF47A712846054A32
S315080083B015F0C2F821462846BDE8384048F04ABDBF
S315080083C0338E00201F7B070838B50446074DFEF795
S315080083D087FD4FF47A712846054B064A15F0ACF826
S315080083E021462846BDE8384048F034BD338E002083
S315080083F0168600201F7B070813B50023019383897F
S315080084000446B3B10F49806901AA47F0CBFB80B196
S315080084109DF80400FFF70EFE03460B4A4FF47A71E7
S315080084200A4815F089F82146084848F013FD02B0B5
S3150800843010BD0DF1030053F097F99DF80330044A77
S31508008440ECE700BFE3B507081F7B0708338E00205B
S315080084500EB5060837B50022838904460C4D0192ED
S315080084604BB18169CA5480690A4901AA47F09AFB47
S3150800847008B1019B2B802B88074A4FF47A7107486D
S3150800848015F05AF82146054848F0E4FC03B030BD1B
S3150800849040150020E3B507082DD00708338E0020C5
S315080084A013B5002283890446019273B18169CA54BF
S315080084B080690C4901AA47F075FB30B19DF80400A4
S315080084C0094B0121187000F0C1FA019B074A4FF4C5
S315080084D07A71074815F030F82146054848F0BAFC85
S315080084E002B010BDE3B507083E1600202DD00708D8
S315080084F0338E002008B582890AB9002008BD0549CF
S31508008500806961F06AFD0028F7D1FEF787FC012033
S31508008510F4E700BF21B506082DE9F04FA7B083465A
S3150800852000F080FB3F4D404CD5E90032D4E90067A6
S315080085309B1B62EB0702181842EB010100F04CFB8B
S315080085400DF14809394F02462821484614F0F4FF30
S31508008550D7E9000100F040FB0DF1700A0246282118
S31508008560504614F0E9FF00F05DFBD5E900322668B5
S31508008570DFF8CC809B1B666862EB0602181842EB94
S31508008580010146F08FFA0022294B46F0C1FACDE9DF
S31508008590100100F047FBD5E90032D7E900575B190F
S315080085A042EB0702D4E900545B1B62EB040218187D
S315080085B042EB010146F076FA02460B46DDE9100168
S315080085C046F0D0FB46F086FD46F04AFACDE90B9A0E
S315080085D0CDE90E01174B1B880A93174BD3E90A01FD
S315080085E0CDE90801D3E90801CDE90601D3E9060179
S315080085F0CDE90401D3E90401CDE902014FF47A710A
S31508008600D3E902234046CDE900230C4A14F094FF2F
S315080086105846FFF76FFF5946404648F01BFC27B0FF
S31508008620BDE8F08FB8220020C8220020B022002022
S3150800863000005940087400205022002027B506087B
S31508008640338E00202DE9F74FDFF8B4804FF4006130
S31508008650294A404614F070FF064600EB08040DF15F
S31508008660070053F081F8054650B183B2234A2046E5
S31508008670C6F5006114F060FF214803B0BDE8F08F2D
S315080086809DF807307BB1DFF884A0DFF884B09DF849
S3150800869007305FFA85F9A4EB08064B45C6F5006670
S315080086A008D8184A0CE0184AC6F50061204614F0A6
S315080086B043FFE1E74846FFF7BDFC074610B9124AF3
S315080086C03146F3E7034652463146204614F034FF56
S315080086D0384661F0EDFC9DF807300444013B9945A6
S315080086E008DAA4EB080120465A46C1F5006114F0E1
S315080086F023FF01340135CAE7C6B50608C8B506081A
S31508008700338600203641070800B606081F7B07088F
S3150800871064F106082DE9F04186B00023012503938C
S3150800872005938A4B8A4E8B4C00938B4B6846019671
S31508008730029404938DF80C5001F000FC30B140F21D
S31508008740B621864B864A874847F002F8864B874FFC
S315080087500093874B6846CDE9017404938DF80C5055
S3150800876001F0ECFB20B140F2BE217C4B7C4AEAE7E3
S31508008770804B6846CDE900377F4B029404938DF809
S315080087800C5001F0DBFB20B140F2C621734B744A52
S31508008790D9E77A4B68460093794B8DF80C50CDE9AA
S315080087A00134784B049301F0C9FB20B140F2CE2185
S315080087B06A4B6B4AC7E7744BDFF838820093734BF2
S315080087C06846CDE9018404938DF80C5001F0B6FB98
S315080087D020B140F2D621614B614AB4E76C4B68463A
S315080087E0CDE900386B4B029404938DF80C5001F0D8
S315080087F0A5FB20B140F2DE21584B594AA3E7664B48
S315080088006846CDE90038654B029404938DF80C5000
S3150800881001F094FB20B140F2E621504B504A92E712
S315080088205F4B6846CDE900365E4B029404938DF89B
S315080088300C5001F083FB20B140F2EE21474B484A29
S3150800884081E7594B68460093584B8DF80C50CDE993
S315080088500134574B049301F071FB20B140F2F62125
S315080088603E4B3F4A6FE7534B6846CDE90037524BBC
S31508008870029404938DF80C5001F060FB20B140F28D
S31508008880FE21364B364A5EE701254C4B6846CDE954
S3150800889000364B4B029404938DF80C5001F04EFBB6
S315080088A020B140F206312D4B2D4A4CE7454B684620
S315080088B0CDE90036444B029404938DF80C5001F030
S315080088C03DFB20B140F24B31244B254A3BE73F4B59
S315080088D03F4F00933F4B684601933F4B02970493E3
S315080088E08DF80C5001F02AFB20B140F285311B4B64
S315080088F01B4A28E7394B68460093394B8DF80C50CC
S31508008900CDE90137374B049301F018FB20B140F24B
S315080089108D31124B124A16E7334B6846CDE90036BD
S31508008920324B029404938DF80C5001F007FB20B1EA
S3150800893040F29531094B0A4A05E71E220F212C48B9
S3150800894014F0D2FD0F2006B0BDE8F08103B6060884
S315080089500DB6060812B606086D81000817B6060891
S315080089608CB7060857B6060865B6060872B606082E
S315080089703D82000876B606086982000881B60608B0
S315080089808DB606089582000891B60608C1820008C9
S31508008990A3B60608ED820008B5B606086D8300087A
S315080089A0C3B60608C5810008CFB60608DFB60608AE
S315080089B099830008E4B60608C9830008F3B60608D2
S315080089C0F983000804B706081985000818B70608C9
S315080089D030B706082CB706085584000839B70608C4
S315080089E098520708A18400084FB706087F0E0508A5
S315080089F055B7060826FA070800B58BB0FFF78AFEB2
S31508008A002022002102A861F0D3FA0B4B41F28832EA
S31508008A10019318230021CDE90623084801AA05F089
S31508008A2037FB28B95721064B064A074846F090FEF9
S31508008A300BB05DF804FB00BFA4B70608B1770008C1
S31508008A40ADB70608CEB70608C0B706082DE9F04147
S31508008A500746802088464CF08CF800240546431CBF
S31508008A6005F8144003F814700134232CF8D129466C
S31508008A70204652F097FC0646B8F1000F05D003468B
S31508008A803A462146044814F02FFD28464CF08FF844
S31508008A903046BDE8F08100BFD7B70608F7B58DF8B0
S31508008AA004008DF8051005460E46012001A9174653
S31508008AB052F078FC04462FB103463246294603484D
S31508008AC014F012FD204603B0F0BD00BF02B8060838
S31508008AD0044AD2E90031013341F10001C2E900310B
S31508008AE0704700BFD822002013B5174805F056FA7C
S31508008AF0164B186028B96721154B164A164846F0D2
S31508008B0027FE00200021154B154A1A60154BC3E9AC
S31508008B1000010BF067F9044630B10146124814F01B
S31508008B20E3FC204602B010BD0BF0FEF923460146D1
S31508008B30CDE900440D4A0E484BF0A0FF0446002834
S31508008B40EFD001460B48EAE794B906082841002009
S31508008B5027B806086FB9060844B806084C4100202D
S31508008B602D920020D822002057B80608D18A00087E
S31508008B702C41002082B806082DE9F8431646994686
S31508008B80144A002305460C4646F052FC214630801E
S31508008B903C222846002346F04BFC002380460F461D
S31508008BA0164628464FF46162214646F041FC1822D3
S31508008BB0002346F03DFC404689F8002039463C2211
S31508008BC0002346F035FC089B00201A70099B1E708E
S31508008BD0BDE8F8838051010010B586B00DF1150384
S31508008BE0019305AB00930DF116020DF11303FFF780
S31508008BF0C3FF9DF81530094C02939DF814301221D5
S31508008C0001939DF8133020460093054ABDF81630A7
S31508008C1014F092FC204606B010BD00BF1B9200203F
S31508008C20B9B80608D0B50D4C4FF0FF31206849F0A9
S31508008C30BEFC28B14F210A4B0A4A0B4846F088FD6C
S31508008C400A4B2068D3E9006749F0E5FC18B15521BD
S31508008C50074B084AF1E730463946D0BD284100207F
S31508008C60CCB8060852B9060844B80608D822002027
S31508008C7008B9060835B9060810B5274C04F090F966
S31508008C8004F028FB236F23F0070343F0030323674D
S31508008C9049F0A7FA214B00209B6ADB015EBF4FF41F
S31508008CA080321F4B9A62D4F8203123F0070343F031
S31508008CB00203C4F82031D4F8283123F0070343F01F
S31508008CC00203C4F82831D4F8403123F0030343F0F3
S31508008CD00203C4F84031D4F8603123F0030343F0AB
S31508008CE00203C4F86031D4F8403223F0030343F09A
S31508008CF00203C4F84032D4F8003223F0070343F0E5
S31508008D000203C4F80032D4F8083223F0070343F00C
S31508008D100203C4F8083210BD008000500040005A13
S31508008D200060005A30B59DB0214D08AC0FCD0FC478
S31508008D3095E80F0084E80F002C22002111A861F0A5
S31508008D4037F91C4B4FF48014109301238DF84530E6
S31508008D505623129308231593092317930A230E22E1
S31508008D6000210DF11200199361F022F9124B08AA9D
S31508008D70CDE902430B238DF810300C238DF8113002
S31508008D800E4B02A905932023069340F20113ADF872
S31508008D901C300B4B0B48009310AB0AF04DFC0446F5
S31508008DA000214FF4E13049F038F820461DB030BDB7
S31508008DB06CBF06080000015B3C00015B2D96002095
S31508008DC0504100201042002001484BF0FDBC00BF76
S31508008DD01042002008B5044849F082F9BDE8084069
S31508008DE0024849F07DB900BFA4BF06088CBF060833
S31508008DF0F8B50C46064611462046154652F0D0FBF5
S31508008E000746284602F022FC033C012C054604D9F5
S31508008E1047B13146064814F067FB2846BDE8F840D6
S31508008E2048F0A3BF02463146024814F05DFBF4E75A
S31508008E3001C6060821C6060808B5074B4FF0FF31DC
S31508008E40186849F0B4FB30B140F21231034B044ABA
S31508008E50044846F07DFC08BD684200202EC6060878
S31508008E6073CA06086CC6060808B5064B186849F0A2
S31508008E70D2FB30B14FF44671034B044A044846F01E
S31508008E8067FC08BD68420020CEC606085ACA06080E
S31508008E906CC6060873B5002300220546CDE90023F3
S31508008EA00BF028F86A460BF067F800982D4A0199E6
S31508008EB0D2E90232C01A61EB02012B4ACDE9000160
S31508008EC0FDF762F9284802F0E9FB284B002814BF91
S31508008ED006461E466B68002B41D1AC6814F00104A7
S31508008EE00DD00121224A2348FFF782FF204802F0CD
S31508008EF0ADFB3146044602461F4814F0F5FAAB6846
S31508008F009A070DD503211D4A1D48FFF771FF1B4817
S31508008F1002F09CFB3146044602461A4814F0E4FA6D
S31508008F20AB685B070DD50421174A1848FFF760FFA1
S31508008F30154802F08BFB314604460246144814F0E5
S31508008F40D3FA204648F011FF304648F00EFF6A680B
S31508008F501AB11049104814F0C7FA02B070BD0024BF
S31508008F60EFE700BFF0220020E0220020ECEB060825
S31508008F705E960020FDC6060804C706087E960020F1
S31508008F8024C7060830C706088E96002058C7060864
S31508008F9063C7060851CB06088DC70608F7B5002231
S31508008FA00023CDE90023446805462CB121462B4809
S31508008FB014F09AFA03B0F0BD21465022284860F012
S31508008FC0F7FF284814F090FA0121274A2748FFF7A7
S31508008FD00FFF2146224A2648FFF70AFF0221254AA3
S31508008FE02548FFF705FF0321244A2548FFF700FF18
S31508008FF0244A04212448FFF7FBFE0AF07BFF6A4651
S315080090000AF0BAFFDDE90014204BD3E908208A18D4
S31508009010D3E9027644EB0000D21B60EB0600C3E9F5
S3150800902008209A6AC3E900140132C3E902149A6255
S31508009030D3E90623891A64EB03044FF47A73CDE95E
S3150800904000141348B1FBF3F114F04EFA6A68002ACB
S31508009050B0D01049104814F047FAABE7A7C706087E
S315080090604E960020C9C706085E960020FDC606086B
S31508009070D6C706086E960020E1C706087E96002029
S31508009080EFC706088E960020FEC70608F0220020C5
S315080090900FC8060834CB06088DC70608F7B500239F
S315080090A0002205461248CDE9002314F01DFA0AF0FD
S315080090B021FF6A460AF060FFDDE900100D4BD3E98F
S315080090C004248A18D3E9067640EB0404D21B64EB21
S315080090D00604C3E90424C3E90010C3E906106A6854
S315080090E01AB10549054814F0FFF903B0F0BD00BFF1
S315080090F018C80608F022002014CB06088DC70608F3
S3150800910010B50A490446A1F1280052F000FA18B928
S315080091100749084814F0E8F962682AB1BDE8104022
S315080091200549064814F0E0B910BD00BF58420020B2
S315080091303042002028C80608F1CA06088DC7060866
S315080091404168014814F0D0B94FC8060810B50B4B52
S31508009150044680681870C0B202F08EFA014618B14B
S31508009160A268074814F0C0F962682AB1BDE8104041
S315080091700449054814F0B8B910BD00BF4D96002043
S315080091807BC80608D3CA06088DC7060842681AB1FE
S315080091900249034814F0A8B9704700BFBACA0608BE
S315080091A08DC7060808B5074804F0F8FE064B186090
S315080091B030B94FF4BE71054B054A064846F0C8FA61
S315080091C008BD00BF88CB06086842002093C8060879
S315080091D0A6CA06086CC6060810B5FFF72DFE034B8F
S315080091E01C78FFF741FE204610BD00BF4D960020B3
S315080091F010B50021214B13F8012B0AB989B203E0F7
S315080092000131B1F5006FF6D1013102201B4A89B24E
S3150800921052F0F8F9044628B9194B13F8012B3AB954
S31508009220A4B209E00146174814F05EF9204610BDBD
S315080092300134B4F5006FF0D10134A1B20620104A0A
S3150800924052F0F7F9044628B90F4B13F8012B22B947
S31508009250A4B206E001460D48E6E70134B4F5006F0E
S31508009260F3D10134A1B20120074A52F0F9F90446B4
S315080092700028DBD001460648D6E700BFBCBF060873
S3150800928039C20608B2C80608ECC40608E8C80608C3
S315080092901DC9060830B5A1B0002300228DF8073095
S315080092A00023CDE90223FFF7C7FD38223C493D4894
S315080092B060F0F1FE0DF1070052F019FA024618B1F6
S315080092C039493A4814F010F99DF8071031B1384871
S315080092D014F00AF9FFF7C8FD21B030BD314C7022F1
S315080092E004A860F065FE94F8210002F0CBF9054663
S315080092F094F8230052F084FA014618B12D4814F068
S31508009300F3F8E7E72946702204A860F0C4FE0223B2
S3150800931004A88DF87A3052F086FA014640B12648FC
S3150800932014F0E2F8254A137843F004031370D1E7E2
S3150800933094F9220052F0ABF9014638B1204814F0EE
S31508009340D3F81E4A137843F00803EFE71D4852F096
S3150800935081FA014608B11C48D1E7FFF749FF002802
S31508009360B8D104F12801204652F0D1F8014680B957
S315080093700AF0C0FD02AA0AF0FFFDDDE90201134B5F
S31508009380C3E90001C3E90201C3E906012146104801
S31508009390B5E70A4A0F48137843F002031370AEE79D
S315080093A098CB0608304200208CCA06088DC70608E6
S315080093B052C906087DC90608A7C906084516002029
S315080093C0D2C90608E1C50608F9C90608F022002030
S315080093D028CA06083FCA060808B50A2049F01BF835
S315080093E0054814F081F847F0BBFD20B94FF47A70B0
S315080093F049F011F8F7E708BD24F00608402906D118
S31508009400C378202B08D005D813F0EF0F04D04FF0FF
S31508009410FF307047302BFAD18078A528F7D88728EF
S3150800942006D85F2802D013D804280AD80020704727
S31508009430094B7830C0B2C34003F00103013B58B270
S315080094407047413804284FF0FF3098BF0020704716
S3150800945080F080000628F6E7B100003F2DE9F04FBE
S3150800946089B000260F46154604469846149B9DF873
S315080094704CA0CDE906320390059000EB0209079B44
S3150800948023B90795002E45D100264CE0BAF1080FFE
S31508009490069B2CD1FF2B26D89D42059A23D31A4426
S315080094A0944220D84A451ED85A1C2146164405A877
S315080094B02A4648F053F907900028E2D0059B1B7806
S315080094C01909DED12146069305A8012348F046F975
S315080094D007AB0790009322462B4605A906A848F035
S315080094E04BF90028CBD0002009B0BDE8F08FBAF1BF
S315080094F00B0FCFD0BAF10F0FCCD0BAF1140FC9D0D9
S31508009500BAF1110F01D1022BC5E7BAF1040FC3D185
S31508009510082BC0E7013EB7D0FB68B0B29847C8F839
S3150800952000000028DFD0129BAAF1040A1E8001233E
S31508009530D8F800705FFA8AFBD8F80020B91AB14249
S3150800954001DA079909B90398CEE76BB901232349CC
S3150800955003FA0BF30B4204D113F0900F03D02F2319
S3150800956000E026233B700137DDF85090BA1A4A44CA
S31508009570B242B8DCA9450399B5D801EB09039C4268
S31508009580B1D862199342AED84A46384660F083FD90
S315080095904B462A46214603A848F0E0F803460790BA
S315080095A04F440398002B9FD003785FEA13199BD189
S315080095B00DF1480A4AF8083F2146012303A848F056
S315080095C0CDF807AB0790009322462B46504603A9D1
S315080095D048F0D2F84B460028AED084E701280100AF
S315080095E02DE9F04F8BB081460F461D46164622B927
S315080095F0002420460BB0BDE8F08F0329F8D90028CF
S31508009600F6D048F001F904460028F1D03278314600
S3150800961022F03F032B70737802F03002C270837019
S3150800962073883A465BBA0381331D069306A800235E
S3150800963048F094F83278079002F00F022270CAB107
S31508009640082A6DD82369002B6AD19742069967D3F1
S315080096508B189E4264D8F019834261D8484648F070
S3150800966013F9206100285BD03A463146237806A8CC
S3150800967048F074F84FF0000B069BDFF8BCA39B1B61
S31508009680FB1A0793DDE90632002A00F0D0811A7822
S31508009690FF2A0FD19A1BBA420ADA1A78FF2A3FD153
S315080096A001339E1BBF1BBFB2A781002F38D0A36111
S315080096B0002336E002F00F03120931460893099297
S315080096C001233A4606A848F049F807AD07903B46F5
S315080096D03246009506A909A848F04EF800BB099B32
S315080096E003EB0B081FFA88F8434519D8C34517D862
S315080096F03B463246009506A908A8CDF8248048F0CE
S315080097003BF868B9B8F11C0F0DD8B8F1020F07D9A4
S315080097102AFA08F3DB070CD4DDE90725954215D9A3
S315080097200123637065E7B8F1230F02D0B8F13C0F47
S31508009730F6D12146484648F071F80028F0D0DDE910
S315080097400725AA42ECD3B8F1230F4BD8B8F1020F7C
S31508009750E6D9A8F10303202BE2D801A151F823F09A
S31508009760C398000891980008219700086D99000889
S3150800977017990008F1980008219700082197000812
S31508009780539900080F980008219700083598000893
S315080097908F99000821970008E59900082197000885
S315080097A02197000839990008219700082197000891
S315080097B0A199000821970008219700082197000819
S315080097C0C3990008079A00082197000821970008FE
S315080097D0219700082197000821970008219700087B
S315080097E04D980008B8F13C0F9AD1042D98D8D4F8B2
S315080097F01CB09BF80130002B92D1012329468BF827
S31508009800013006A847F09CFFCBF8180009E0022DA6
S3150800981086D86368013383D1294606A847F090FFA6
S315080098206060069B9B1B9F42FFF47AAFFB1AC346F8
S31508009830079327E7042D3FF673AF294606A8D4F801
S315080098401CB047F07DFFCBF81400EAE740F2094365
S315080098506A1E9A423FF664AFD4F81CB0DBF8303083
S31508009860002B7FF45DAF2A4648460699ABF80450AC
S3150800987048F00AF8E369CBF830001B6B002B3FF47D
S315080098804FAF2B463A46314606A847F067FFC8E76A
S31508009890E369596B00297FF443AF042101910DF167
S315080098A0160100910698494602953433FFF7D6FD0E
S315080098B0069000283FF434AFE369BDF816201A7005
S315080098C0AFE76B1EFE2B3FF62BAFD4F81CB0DBF8C8
S315080098D03830002B7FF424AF2A4648460699ABF861
S315080098E0065047F0D1FFE369CBF838009B6BC5E714
S315080098F0E369D96B00297FF413AF08210191591840
S31508009900029500913C3349460698FFF7A7FD069055
S31508009910002886D104E7022D3FF602AFD4F81CB022
S31508009920DBF8203001337FF4FBAE294606A847F062
S3150800993007FFCBF8200074E7E369196C00297FF468
S31508009940EFAE1421019103F10A010295009140330B
S31508009950D9E76369002B7FF4E3AE0B23019304F187
S315080099600A030093029504F11403CCE7022D3FF68F
S31508009970D7AED4F81CB0DBF8243001337FF4D0AE70
S31508009980294606A847F0DCFECBF8240049E70F2154
S31508009990E369019103F10C01029500914433B2E7A2
S315080099A0032D3FF6BDAED4F81CB0DBF82C300133DE
S315080099B07FF4B6AE294606A847F0C2FECBF82C00BF
S315080099C02FE7032D3FF6ACAED4F81CB0DBF82830F1
S315080099D001337FF4A5AE294606A847F0B1FECBF8B9
S315080099E028001EE7022D3FF69BAED4F81CB0DBF824
S315080099F0103001337FF494AE294606A847F0A0FE3E
S31508009A00CBF810000DE7042D3FF68AAED4F81CB04B
S31508009A109BF80230002B7FF483AE012329468BF88E
S31508009A20023006A847F08CFECBF81C00F9E6002B9E
S31508009A307FF430AE74E600BFD8C192182DE9F04124
S31508009A400E4617469846054628B121B11AB12C206C
S31508009A50A847044618B900242046BDE8F0812C2200
S31508009A60002160F0A5FA0123224623710023C4E9E8
S31508009A700467E560C4F8188042F81C3F226240F289
S31508009A80023222800A22A270014AA3621380E3E707
S31508009A900A74002008B504F0FFF902280DD1074B17
S31508009AA04FF0FF31186848F082FD30B14FF4247149
S31508009AB0034B044A044845F04BFE08BD6C4200209F
S31508009AC0D0CB0608A0CD060807CC060808B504F0D2
S31508009AD0E3F902280BD1064B186848F09CFD30B113
S31508009AE04FF42671034B044A044845F031FE08BD7D
S31508009AF06C42002061CC060886CD060807CC06080D
S31508009B002DE9F8430D4617460646D8B1D1B10024CB
S31508009B10DFF83480315D7FB1DFF83080DFF83090D0
S31508009B206F1EBC42ACBF40464846013413F0DCFC0D
S31508009B30AC4207D0315DF4E74046013413F0D4FC5B
S31508009B40A542E7D1BDE8F883A0E20708D46B070869
S31508009B5089CC0608F8B5044617480D46174604F09A
S31508009B601DFA164B186028B99921154B154A16483F
S31508009B7045F0EEFDFFF78EFF00F076FB134B144E13
S31508009B80002C08BF1C46134B1349002D08BF1D4661
S31508009B9012482B462246B1607060F460356137750D
S31508009BA0FFF74CFF3060FFF791FF00F089F9BDE839
S31508009BB0F84000F0DFB800BFDCCD06086C42002094
S31508009BC091CC0608BACD060807CC0608C1180508C0
S31508009BD070420020C5180508E1180508C9180508C7
S31508009BE038B504460D46FFF755FF064B21462A466B
S31508009BF053F8140CFFF7F4FC0446FFF767FF2046FA
S31508009C0038BD00BF8442002038B504460D46FFF72C
S31508009C1041FF054B21462A46186847F0ECFA0446E8
S31508009C20FFF754FF204638BD70420020F8B50D46B0
S31508009C300446002867D0FFF72DFF334813F054FC7D
S31508009C402178324813F050FC6178314813F04CFC07
S31508009C50A178304813F048FCE1782F4813F044FC0B
S31508009C6061682E4813F040FC21892D4813F03CFC0E
S31508009C70A1892C4813F038FC61892B4813F034FC71
S31508009C802A4813F031FC2178C9B9294813F02CFC6D
S31508009C90284813F029FC6189B9B9254813F024FC32
S31508009CA0254813F021FCA389ABB9244813F01CFC02
S31508009CB0234813F019FCBDE8F840FFF707BF2069F1
S31508009CC02A46FFF71DFF1F48E0E760692A46FFF7A7
S31508009CD017FF1C48E2E761681B4F1C4E1C483229D7
S31508009CE014BF3946314613F0FFFBA189A0692A46FD
S31508009CF0FFF706FF61681648322914BF3946314610
S31508009D0013F0F2FBD4E7F8BDA9CC0608ACCC0608DC
S31508009D10C0CC0608D6CC0608E9CC0608FCCC060852
S31508009D2015CD060826CD06083CCD060853CD0608EF
S31508009D307FCD060860CD060870CD06087ECD0608DC
S31508009D40E2B4060882CD06086ECD060824F0060899
S31508009D501F7B070810B5044618B1806908B147F09B
S31508009D60BFFD034B2146BDE81040186847F06DBD9E
S31508009D707042002007B50E4804F010F90D4B186024
S31508009D8028B9B1210C4B0D4A0D4845F0E1FC4FF4BA
S31508009D90F073302200930A210A4B0B4847F08BFEDA
S31508009DA018B1B921094B054AEEE703B05DF804FB83
S31508009DB0ECCE06088044002080CE0608D0CE0608E1
S31508009DC01FCE0608A04200208842002094CE06082E
S31508009DD070B50646074B1C6914B92546284670BD5A
S31508009DE0256880223046296860F0F7F80028F5D003
S31508009DF06468F1E7BC44002008B504F04DF8022871
S31508009E000DD1074B4FF0FF31186848F0D0FB30B141
S31508009E1040F28B11034B044A044845F099FC08BDEF
S31508009E20744A0020FCCE0608D8D106083CCF06089E
S31508009E3008B5074B4FF0FF31186848F0B8FB30B14A
S31508009E404FF4CD71034B044A044845F081FC08BD24
S31508009E50744A0020FCCE060898D106083CCF0608AE
S31508009E6008B504F019F802280BD1064B186848F013
S31508009E70D2FB30B140F29311034B044A044845F033
S31508009E8067FC08BD744A00209BCF0608B5D10608B2
S31508009E903CCF060808B5064B186848F0BCFB30B13D
S31508009EA04FF4D071034B044A044845F051FC08BDF1
S31508009EB0744A00209BCF06087BD106083CCF0608CB
S31508009EC007B5134804F06AF8124B186028B9B6218A
S31508009ED0114B124A124845F03BFC4FF434731E21CD
S31508009EE0009318220F4B104847F0E5FD014618B1BC
S31508009EF0BE210E4B094AEDE70D4A0E4804F0C8F894
S31508009F0018B9C3210C4B054AE4E703B05DF804FB16
S31508009F1070D20608744A0020CCCF060809D2060873
S31508009F203CCF0608A4470020BC44002094CE06086F
S31508009F304CD2060845A00008EDCF060838B50F4BE9
S31508009F4005461C69FFF758FF5CB90C4847F0C8FD81
S31508009F5070B11822294660F09EF8FFF781FF204667
S31508009F6009E0236880222968186860F036F818B96D
S31508009F70FFF776FF012038BD6468E5E7BC4400209A
S31508009F802DE9F041134B00241D69FFF735FF4FF407
S31508009F9034720021104860F00BF818260E4F3DB9B0
S31508009FA0FFF75EFF0C48002C08BF2846BDE8F08185
S31508009FB01D2C0DD806FB047818224046296860F047
S31508009FC06AF824B1631E06FB0373C3F814800134D0
S31508009FD06D68E4E7BC440020D444002038B5084B3B
S31508009FE0084D1C69FFF724FF1CB9BDE83840FFF788
S31508009FF051BF23682846196813F076FA6468F3E7B0
S3150800A000BC44002059A90608014813F06DBA00BFE0
S3150800A010FFCF0608014813F067BA00BF2ED006081E
S3150800A020014813F061BA00BF67D00608014813F06B
S3150800A0305BBA00BF95D00608014813F055BA00BFB1
S3150800A040C8D006082DE9F04F85B0002634463546B7
S3150800A050DFF8F8B10396ADF80A6046F081FF20B93B
S3150800A0604FF47A7048F0D7F9F7E7032200207149D0
S3150800A07051F01DFA431C074606D14FF4EE716E4B9C
S3150800A0806E4A6F4845F064FB6E4BDFF8D0C103F1AA
S3150800A090100E624618685968083303C27345944619
S3150800A0A0F7D11C22684B38466849CBF80030039232
S3150800A0B01DF0B2FA013028D0DFF8A4A1DFF8A48198
S3150800A0C046F05CFF03ABCDE900A34FF480620023A2
S3150800A0D0414638461DF010FB002840F39180414662
S3150800A0E080B2FFF77DFD05460028E9D0584813F0F1
S3150800A0F0FBF900212846FFF799FDAB78013B032BB6
S3150800A10008D92846FFF780FFDAE740F2E711514BF6
S3150800A1104A4AB6E7FFF734FF29460DF10A0200F06E
S3150800A120E5F8064670B12A46BDF80A1047F05BFC0A
S3150800A1300446C0BB2846FFF70DFE2046FFF70AFE79
S3150800A14030461CE0284647F0DAFB814618B928460F
S3150800A150FFF760FFB4E7FFF73BFE0446484647F0C3
S3150800A160BFFB7CB123696BB1284698470446D0B932
S3150800A1702846FFF7EFFD2046FFF7ECFD204647F09F
S3150800A180AFFB9DE784212846FFF73EFD044650B9FC
S3150800A1902846FFF7DFFD2046FFF7DCFD204647F09F
S3150800A1A09FFB26468CE7204647F0A5FBB0F5806F57
S3150800A1B08146214603D92846FFF732FFBAE74046CB
S3150800A1C047F09BFB002804DA21462846FFF72EFFB6
S3150800A1D0B0E7214813F088F900212046FFF726FD4D
S3150800A1E0039B4A46CDE900A34146002338461DF0A5
S3150800A1F03FFA01309ED121462846FFF71DFF99E711
S3150800A20001307FF45DAF46F0ABFE00287FF458AF0F
S3150800A210384651F066F94FF47A7048F0FCF828464B
S3150800A220FFF798FD2046FFF795FD304647F058FBA7
S3150800A23013E700BF02000100FAD00608FBD10608A2
S3150800A2403CCF0608DF41070800003316A04400206B
S3150800A2502FD1060816D1060855D10608A8440020AD
S3150800A260844400209E96002037B56C46204601F0AF
S3150800A270C1FD94E80300024D85E8030003B030BD34
S3150800A280784A002048B105490A68904205D34968CA
S3150800A2900A44904201D24AF08ABC7047784A0020A4
S3150800A2A0012808D0022814BF022301232820034AC4
S3150800A2B000FB032070470023F8E700BFC0D206085A
S3150800A2C038B50D4609682C23074A0131044613F0B0
S3150800A2D033F9031E06DB2A689A4203D3D21AE0181A
S3150800A2E02A6038BD0020FCE7A0E207082DE9F04FF8
S3150800A2F091B007460C460592002118220AA85FF07D
S3150800A30057FE27B90026304611B0BDE8F08F002C5D
S3150800A310F8D06389013B9BB27F2BF3D8A378012B36
S3150800A320F0D1204647F0EBFA02900028EAD08022C6
S3150800A330AE495FF052FEE3698146002B00F0958036
S3150800A3405D6C1DB19D89003D18BF01253E46D6F8B6
S3150800A3500080404647F0F9FA834670B1DDF83CA024
S3150800A360BAF1000F40F084800C2047F0ADFA20B116
S3150800A370C0E9008B0F90C0F808A07669002EE6D1D8
S3150800A380B9F1000F40F0DF80002D00F0D380E369BB
S3150800A3909889013080B247F097FA05460028B1D06F
S3150800A3A0E369B1469A89596C5FF075FEE3698021C5
S3150800A3B09B892846EE5447F061FE8D4C8046A3469D
S3150800A3C0E169002975D028465FF038FE0A90002812
S3150800A3D06FD0282303FB09B31C6A0D930444A542D6
S3150800A3E065D8A844444528BF0024802120460A94FD
S3150800A3F047F044FE0B90002864D101244FF0000872
S3150800A4000220FFF74DFF03900320FFF749FFDDF811
S3150800A4103CA08146002840F0D1800027059BB8B2B1
S3150800A42018809CB90746013080B247F04DFA099763
S3150800A430064658B1B8F1000F40F0418180460E9C9F
S3150800A440DFF8B0B1002C40F03E81F455BAF1000FA8
S3150800A45040F05A810E98002840F05D81284647F062
S3150800A4603FFA029847F03CFA4DE71D466EE79A46D2
S3150800A470DAF804309B4511D0DAF80830002BF6D10B
S3150800A4800C20039347F020FA00283FF476AF039B8D
S3150800A490C0E9008B8360CAF808006EE75A46414651
S3150800A4A0DAF800005FF05AFD0028E5D165E70024D8
S3150800A4B09BE709F10109B9F1030F04F128047FF4B8
S3150800A4C07FAF9AE7002C98D0B94699F80C302BB193
S3150800A4D00D9B1B78022B09D0032B28D0D9F8149092
S3150800A4E0B9F1000FF1D14C46C84611E0D9F804007D
S3150800A4F00028F3D080220A995FF06FFD8046002875
S3150800A500ECD148460AA947F038FA01280446E5D1AD
S3150800A5100E9B002B7FF474AF012C3FF471AF3846C5
S3150800A5200AA947F04FFA4FF00108044668E7D9F838
S3150800A5300800DDE738460AA947F044FA35460446D6
S3150800A5404FF00108E4E78021029847F097FD04469A
S3150800A5500F9DB5B1D5F804904C452DD14A462968CA
S3150800A56002985FF0FBFC38BBB846D8F8000047F005
S3150800A570ECF998F80C3053B9D8F81480B8F1000FF4
S3150800A580F3D10E9C0025B4FA84F4640936E78145B4
S3150800A590F2D16A68D8F8001028685FF0DFFC8246B6
S3150800A5A00028E9D140460AA947F0E7F901280446F8
S3150800A5B0E2D15546D046ABE7AD68CAE7039B002B08
S3150800A5C03FF42BAF0120FFF76BFE00283FF425AFC1
S3150800A5D0B8F1000F1BD14746DDF838B0BBF1000FC4
S3150800A5E018D1002F3FF419AF013F17E780D20608AC
S3150800A5F0C0D206089DD20608036A4269134404338A
S3150800A6003B444F6889681F440029F5D1E4E7514661
S3150800A6100027F9E78021DBF8000047F02FFD039BB0
S3150800A62080211A6A0490DBF80400079247F026FD99
S3150800A630D9F82010079A049B0A4409320690174451
S3150800A640DBF8080080211F4447F018FD069BDBF85D
S3150800A65014B03B441F18C1E7D9F80400013080B292
S3150800A66047F032F9044650B9002009A9FFF728FE39
S3150800A6708046D9F80890B9F1000FEDD1DFE6D9E99F
S3150800A68000125FF008FDD9F80420039BDDF824B01A
S3150800A690A3540BF10101224A2346404612F04CFF0F
S3150800A6A00490204647F01CF9049A002ADCDB9345FF
S3150800A6B0DAD308EB0200ABEB02020992D5E7D146E2
S3150800A6C080460394D7E7A368DDF82490019363686E
S3150800A6D05A4600934046236809F1010112F02CFFFF
S3150800A6E000280EDB81450CD38044A9EB00000990B5
S3150800A6F0636923B1404609A9FFF7E2FD804664690C
S3150800A700A0E64FF00008F3E7DAF80840504647F0AD
S3150800A710E7F8A2469AE6446947F0E2F820469AE640
S3150800A72092D2060808B5074B4FF0FF31186847F074
S3150800A7303EFF30B14FF48F71034B044A044845F08D
S3150800A74007F808BD804A0020A0D3060879D4060871
S3150800A75038D3060808B5064B186847F05CFF30B1D1
S3150800A7604FF49271034B044A044844F0F1FF08BDC4
S3150800A770804A0020E0D3060858D4060838D30608CD
S3150800A78008B5064803F00AFC054B186028B9CA2123
S3150800A790044B054A054844F0DBFF08BDC8D4060843
S3150800A7A0804A002011D4060898D4060838D306082B
S3150800A7B0F8B506460D46D9B103F06EFB02280446E5
S3150800A7C001D1FFF7AFFF00230C200A4A00FB03F173
S3150800A7D08F18515CB14204D1BD60022C05D000200F
S3150800A7E0F8BD01330E2BF1D1F7E7FFF7B3FFF6E714
S3150800A7F00120F5E75810002070B5837804467F33AA
S3150800A800DBB20F2B09D9FFF78DFFA1780C4812F0A0
S3150800A8106BFEBDE87040FFF79DBF0A4AD656FFF7A4
S3150800A82081FF731CF1D00C23074D204603FB065508
S3150800A8306B689847AB68002BEBD020469847E8E74B
S3150800A84032D4060848D40608581000202DE9F047E7
S3150800A850002407460E462546DFF84480DFF8449074
S3150800A860DFF844A0A64204D8BDE8F0470B4812F02A
S3150800A8703BBE731EA342395D06D1504612F034FE24
S3150800A880132D06D1002505E0122D05D8484612F0ED
S3150800A8902BFE01350134E5E74046EFE724F00608CC
S3150800A8A0E9D40608E0D40608D8D4060813460A46AA
S3150800A8B00168014812F018BEF2D4060838B50C46ED
S3150800A8C015460168044812F00FFE29462046BDE8E1
S3150800A8D03840FFF7BBBF00BF0CD50608F8B5234FB5
S3150800A8E0234E3A88C519BC1C52BAA54293B2328186
S3150800A8F001D80120F8BD013B042B29D8DFE803F075
S3150800A90003031F2A2E004FF480711A48F46047F09B
S3150800A910B5FB431C2344BB42EBD39D42E9D904440F
S3150800A92020464FF48071346147F0A8FB0130044497
S3150800A930BC42DED3A5428CBF00200120DAE77B8823
S3150800A9405BBAB3810C4B9D42D3D904383361B082CC
S3150800A9500020CFE77B885BBAB381F9E77B885BBACF
S3150800A960B381054B9D42C4D93361F1E7D69A0020DD
S3150800A970844A0020D89A0020DA9A002073B52D4D13
S3150800A98006462C89631E012B13D84FF48071E8689C
S3150800A99047F074FB4FF480710446286947F06EFB54
S3150800A9A004440434A4B2A64213D20024204602B0BA
S3150800A9B070BD032C01D1AC8AF3E7042CF3D0052C27
S3150800A9C006D14FF48071286947F058FB841CE9E7E3
S3150800A9D000242B8918485ABA02805A1E012A0CD814
S3150800A9E02B69164A019300230093EB68A11E0230D7
S3150800A9F012F0A2FD0028D9DAD7E7032B08D1AB89D4
S3150800AA00AA8A5BBA4380296904305FF044FBCDE724
S3150800AA10042B03D1AB895BBA4380C7E7052BC5D1A5
S3150800AA20AB89074A5BBA4380211F2B69043012F0B1
S3150800AA3083FDDFE7844A0020D69A002012D506084F
S3150800AA401F7B070808B52C2101200C4A03F0D6FB0A
S3150800AA500B4B186030B94FF49C710A4B0A4A0B48E5
S3150800AA6044F076FE00210A4A0A4803F011FB20B991
S3150800AA7040F23B11084B044AF1E708BD3CD70608EB
S3150800AA80B04A002019D50608E3D6060834D50608C4
S3150800AA9054D706084DAB00088CD506082DE9F041B9
S3150800AAA00E4690461D460446069F10B90120BDE88D
S3150800AAB0F0810C4803F038FAA0610028F6D00A4B5A
S3150800AAC00020002E08BF1E46084B2660002D08BF32
S3150800AAD01D46074BA4F80480002F08BF1F46656271
S3150800AAE0A762E4E72CD706089ED50608BDA8000885
S3150800AAF0ADA8000801884B1E042B19D8DFE803F01F
S3150800AB0003080C101400D0E901120A4812F0ECBC34
S3150800AB10D0E901120848F9E7828981880748F5E7EC
S3150800AB208188074812F0E0BC826881880548EDE70D
S3150800AB300548F7E7A1D50608DCD5060817D606089E
S3150800AB4050D6060878D60608B6D606082DE9F04F78
S3150800AB5085B000238DF80F3046F069FFA0B1874C09
S3150800AB606FF07F41A06947F0A4FC85484FF0FF339A
S3150800AB70214600680DF10F0247F03DFE054640B13B
S3150800AB80642046F052FFF0E74FF47A7046F04DFF26
S3150800AB90E2E72789A069012F7CD1394647F050FCA6
S3150800ABA000F03CF9421C06460CD1642046F03DFFF5
S3150800ABB06FF07F41A06947F07CFC0421A06947F04B
S3150800ABC03FFCDDE71C236F4AA188206846F047FF53
S3150800ABD04FF40470FFF7D2FE6A4B02466A493046C4
S3150800ABE046F029FFDFF89C91DFF89CA1DFF8A0B1B9
S3150800ABF0642046F01AFF4B464FF40472514630461D
S3150800AC0046F022FF002807DC44F61F6305F16408B6
S3150800AC10984522D84546EBE780B2FFF75FFE8046A7
S3150800AC200028F1D12389032B1BD1636AA7891BB19D
S3150800AC302046A28A2169984704234FF40470238189
S3150800AC40A781FFF79BFE4B4602465146304646F023
S3150800AC50F2FEA38AB3F5007FDCD2304646F0E9FE61
S3150800AC60A6E7052BD6D1A36A1BB120462269A1897E
S3150800AC70984704234FF404702381A781FFF77EFECB
S3150800AC804B4602465146304646F0D5FE5846FFF733
S3150800AC9031FFBFE7022F8BD1394647F0D1FB00F0D1
S3150800ACA0BDF8431C074680D01C23384AA188206873
S3150800ACB046F0D5FE4FF40470FFF760FE2E46A84610
S3150800ACC00246324B3846304946F0B5FED4E907A964
S3150800ACD04FEA592301339BB2DFF8ACB001936420E5
S3150800ACE046F0A3FE4FF4047259463846274B46F001
S3150800ACF0ABFE002807DC44F61F6308F16408984594
S3150800AD00EDD93846AAE780B2FFF7E8FD0028F2D168
S3150800AD102389042B27D1B9F1000F02D1019BB34235
S3150800AD20EFD0A6890EB10AF5007AB9F5007F4B4631
S3150800AD3028BF4FF400734FF000080136B6B29DB233
S3150800AD40A9EB030903234FF404702381A681C4F8F1
S3150800AD5010A0A582FFF712FE594602460B4B38464D
S3150800AD6046F069FEBBE7052BECD1A36A002BC8D0D9
S3150800AD702269A18901489847C3E700BF844A002091
S3150800AD80B04A0020BA9A0020D69A00209E9A00203F
S3150800AD908C4A002010B50C46014620B11AB113B1F1
S3150800ADA0601E012804D9094812F09EFB012010BD37
S3150800ADB00748C1E9032300684FF0FF3300220C81DE
S3150800ADC047F0CDFC003818BF0120F0E7D1D60608B9
S3150800ADD0B04A002010B501200D4950F0E1FB30B112
S3150800ADE028220C490C485FF00AF90B4810BD2823A5
S3150800ADF0094A07491CF0F2FC074C20B928222046CC
S3150800AE0004495FF0FCF8002384F82730EDE700BF1B
S3150800AE100E9D00209ED50608E69C002003220020F1
S3150800AE20014950F044BB00BF0200010030B5545838
S3150800AE3055186B6804B1601843601C60014B535089
S3150800AE406B6030BDEFBEADDE08B549F03CFE034B86
S3150800AE501B68C01ABDE8084009F06CB8344B0020DE
S3150800AE6070B58EB04FF4A07046F02EFD054618B9A1
S3150800AE70002528460EB070BD1F4B186847F037FBF3
S3150800AE80041EF5DBFFF7E0FF1C4B4EF66021B0FB16
S3150800AE90F3F6C4F3C0120C92C4F380120B92C4F3F7
S3150800AEA040120A92C4F300120992C4F3C00208922F
S3150800AEB0C4F380020792C4F34002069204F001022A
S3150800AEC0CDE9044203FB16030D4A2846126800968C
S3150800AED00392B3FBF1F201FB12334FF47A71B3FB21
S3150800AEE0F1F3CDE90123074B4FF4A0711B68064A1D
S3150800AEF012F022FBBDE700BF2C4B002080EE360087
S3150800AF00384B0020304B002078D7060873B5FFF77A
S3150800AF10A7FF284C4FF4A071A06347F0AFF8A085AF
S3150800AF2004F1200046F0E7FC064646F0CDFC05464F
S3150800AF3058B9FFF789FF01461F4812F0D5FA1F488E
S3150800AF4002B0BDE8704012F0CFBA04F1200146F015
S3150800AF50D4FC00280DDAA06B46F0C2FC284646F061
S3150800AF60BFFCFFF771FF0146134812F0BDFA1448FB
S3150800AF70E6E71C230193231D009332460023294646
S3150800AF8020681CF075FBFFF75FFF01460A4812F0C0
S3150800AF90ABFA41F235620B4B0B490C4812F0A4FA96
S3150800AFA0A06B46F09DFC284602B0BDE8704046F00E
S3150800AFB097BC00BF0411002074D8060887D8060875
S3150800AFC0B0D80608DAAE0608ACA90608D5D8060829
S3150800AFD010B50446FFF738FF0146084812F084FA10
S3150800AFE02146074812F080FA064B2146186847F0B2
S3150800AFF027FABDE81040FFF789BF00BF74D80608D6
S3150800B000EFD806082C4B002008B5114802F08CFF33
S3150800B010104B186030B940F237110F4B0F4A1048E1
S3150800B02044F096FB00210F4A0F4803F031F820B987
S3150800B0304FF49D710D4B094AF1E70D48FEF77EFF67
S3150800B04020B140F23B110B4B044AE8E708BD00BFAC
S3150800B05088DC06082C4B002005D9060844DC0608BF
S3150800B0601AD9060898DC060805B200087AD906082F
S3150800B07070DC06088FD9060838B50A4D286847F0E7
S3150800B08036FA041E0CDB14F0010407D101212868E6
S3150800B09047F0D6F949F017FD034B1860204638BD2E
S3150800B0A00124FBE72C4B0020344B002038B5084D13
S3150800B0B0286847F01CFA041E08DB14F0100405D1B2
S3150800B0C01021286847F0BCF9204638BD0124FBE763
S3150800B0D02C4B002070B586210546FEF795FD0446E3
S3150800B0E040B3AB785A1E012A32D8AA690AB9022B8C
S3150800B0F020D0184E336813B9FFF76CFE3060412331
S3150800B100A37032236360AB78022B0BD1AA89A96995
S3150800B11011485EF023FF78B949F0D5FC0F4B18604B
S3150800B120FFF7AAFFFFF79CFE4FF4A071A06146F057
S3150800B130A5FFA081204670BDAA89A96908485EF0C6
S3150800B1400DFF10B9FFF7B2FFECE78023A370E9E71C
S3150800B1500024EFE7304B002058E50708344B002061
S3150800B160D3D9060810B5064B0446186847F0BFF948
S3150800B1700028AABFE040002000F0010010BD00BF73
S3150800B1802C4B002037B540F2EA33984204460D4668
S3150800B19017D040F2EB33984221D040F2E933984277
S3150800B1A00DD1FFF751FE0146124812F09DF92B8981
S3150800B1B0214600931048D5E9002312F095F903B00B
S3150800B1C030BDFFF741FE01460A4812F08DF92146C7
S3150800B1D02A680A4803B0BDE8304012F085B9FFF77F
S3150800B1E033FE0146034812F07FF921462A680448CF
S3150800B1F0F0E700BF74D80608D8D906081CDA06088E
S3150800B20042DA06082DE9F74303220020884950F060
S3150800B2104EF9884C2060013006D14FF41871864BE0
S3150800B220864A874844F094FA864B0020864904F1FA
S3150800B2300C0263601CF0B6FA013004D140F26521B5
S3150800B240824B7E4AEDE741F203036384322363624D
S3150800B25042F229337E484FF4A0712385606346F095
S3150800B2600DFF00237B4D60852846236384F8203034
S3150800B270E36300F0E1FCEB68CBB1DFF81C82DFF892
S3150800B2801C92754C6FF07F41D8F8000047F011F911
S3150800B2904FF0FF3302220121D8F8000047F02AF9BF
S3150800B2A0002809DA4FF47A7047F0B5F8EAE740F271
S3150800B2B077216A4B614AB4E749F005FCC9F80000F2
S3150800B2C0FFF7C2FD0146204612F00EF9D5E9001235
S3150800B2D0EB68634800932B7A12F006F9FFF7B4FD82
S3150800B2E00146204612F000F95E4812F0FDF80420E7
S3150800B2F0FFF738FF10B1FFF709FED3E7FFF706FEA1
S3150800B300594B452200935949594B5A48FFF7C6FBF2
S3150800B31018B12020FFF75CFEC4E7FFF795FD01464C
S3150800B320204612F0E1F8544812F0DEF8FFF7EEFD79
S3150800B330FFF78AFD0146204612F0D6F845224F4B04
S3150800B3404A494F4812F0D0F801214E4B4B4A49481A
S3150800B350FFF720FD0028A5D1464E304646F05EFB95
S3150800B36020B94FF47A7047F056F8F6E70520FFF74C
S3150800B370F9FE002896D10420FFF7F4FE06460028B9
S3150800B380B9D10220FFF724FEFFF75EFD01462046ED
S3150800B39012F0AAF83C4812F0A7F84FF47A7047F072
S3150800B3A03AF83146304646F08AFD384F0646386048
S3150800B3B040B14020FFF70CFE394640F2EA30FFF76D
S3150800B3C0E1FE5FE70420FFF703FEFFF73DFD0146B8
S3150800B3D0204612F089F82E4812F086F84FF47A7053
S3150800B3E047F019F8304600F047FC386030B1802045
S3150800B3F0FFF7EEFD394640F2EB30E0E70820FFF7AD
S3150800B400E7FDFFF721FD0146204612F06DF82148B9
S3150800B41012F06AF841F2883046F0FDFF0420FFF783
S3150800B420A1FE00287FF467AF00F01CFB2AE700BFE7
S3150800B430020001000411002065DA060833DC06085C
S3150800B4401AD9060800003516ACA906087EDA0608D9
S3150800B450DAAE0608F84A002074D80608D8DA0608CC
S3150800B460F2DA060849DB06089F1B05085DA90608E7
S3150800B470A1B40008CC4A002063DB060880AD0608A4
S3150800B48073DB06089DDB0608A3DB0608C04A002016
S3150800B490BBDB0608D0DB06082C4B0020344B00200B
S3150800B4A02DE9F041294B0E468189D3F800801746CD
S3150800B4B04A1EB8EB422F04464FEA42250BD1FFF746
S3150800B4C0C3FC0146224812F00FF84146BDE8F04198
S3150800B4D0204812F009B801291D601F491F4B18BFE3
S3150800B4E00A68808AB3F800C01EBF80180CF10102F2
S3150800B4F01A801A880CBF086008600A2A03D100223D
