S0270000776973756E5F6E6F64655F6D6F6E69746F72696E675F666732385F77617465722E733337D5
S3150800600000100020DDBA00087B6B05087B6B0508CD
S315080060107B6B05087B6B05087B6B05087B6B0508A6
S315080060207B6B05087B6B05087B6B05087B6B050896
S315080060307B6B050818410708470801087B6B0508AC
S315080060407B6B05087B6B05087B6B05087B6B050876
S315080060507B6B05087B6B05087B6B05087B6B050866
S315080060607B6B05087B6B05087B6B0508998F000819
S31508006070595C05087B6B05087B6B05087B6B050877
S315080060807B6B05087B6B05087B6B05087B6B050836
S315080060907B6B05087B6B0508E9C700087B6B050861
S315080060A07B6B05087B6B0508A96E0008716E0008F6
S315080060B07B6B05087B6B0508715C02080D67020897
S315080060C021FC05081DFC0508A15E02082DFC050833
S315080060D025FC0508E566020829FC05084D6702083F
S315080060E0396802087B6B05087B6B05087B6B05081E
S315080060F07B6B05087B6B05087B6B05087B6B0508C6
S315080061007B6B05087B6B05087B6B05087B6B0508B5
S315080061107B6B05087B6B05087B6B05087B6B0508A5
S315080061207B6B05087B6B05087B6B05087B6B050895
S315080061307B6B05087B6B05087B6B05087B6B050885
S315080061407B6B05087B6B05087B6B0508210D010831
S315080061507B6B05087B6B05087198050811430208D7
S315080061607B6B05087B6B0508D9F90508DFF9050877
S315080061707B6B05087B6B05087B6B05080000000038
S31508006180013800D0FCE770472DE9F0410023154699
S31508006190C2E900014FF47A7280460F464DF0BAFF05
S315080061A018A3D3E9002304460E46404639464DF067
S315080061B0B1FF134B80B228815843241A66F10006B2
S315080061C04FF461620023204631464DF0A3FF4FF499
S315080061D06163C0B2A8725843241A20464FF03C02A5
S315080061E04FF0000366F100014DF094FFC0B2E8726B
S315080061F0C0EB0010A4EB80042C73BDE8F08100BF4F
S3150800620080510100005C2605000000000000000027
S315080062102DE9F04F93B0CDE90A32DDE91C530E9310
S3150800622053EC102BCDE90801104619468DED060BE7
S315080062301E9E4DF047FD80B1DDE906014FF0FF32A5
S31508006240C54B4DF067FD40B9DDE906014FF0FF3259
S315080062506FF480134DF040FD70B1DDE908019DED46
S31508006260060B0E9B1E96CDE91C53DDE90A3213B0C8
S31508006270BDE8F04F00F088B90022DDE906010023E9
S315080062804DF02AFD002800F03381DDE906A303F16D
S31508006290004BCBF30A5016F48063A0F2FF3008BF18
S315080062A006250F934DF03CFA9BA3D3E900234DF046
S315080062B0A1FA9BA3D3E900234DF0E6F8CBF3130428
S315080062C0894644F07F5180460022A44B504641F44B
S315080062D040114DF0D7F894A3D3E900234DF08AFA7C
S315080062E002460B46404649464DF0CEF84DF01CFD99
S315080062F004464DF015FA8EA3D3E900238046894655
S315080063004DF078FA0022964B4DF0BEF84DF00CFD94
S3150800631089A3D3E900230746494640464DF06AFA61
S315080063208046384689464DF0FBF985A3D3E9002314
S315080063304DF060FA02460B46404649464DF0A2F833
S3150800634002460B46CDE90C234DF054FADDE90C2341
S3150800635080468946104619464DF096F80022CDE942
S315080063601001804B404649464DF06EFB00227E4B9D
S315080063704DF08AF802460B46404649464DF064FB06
S3150800638000227A4B4DF080F802460B4640464946B5
S315080063904DF05AFBDDE90C238046894600204FF074
S315080063A080414DF06FF802460B46404649464DF08F
S315080063B06BF802460B46DDE910014DF045FB07F286
S315080063C0FF3700226A4B4DF05FF800223B054DF07F
S315080063D011FA52465B46804689464DF09BFC0028DA
S315080063E040F08980CDE90C8904F16303C72B34BFDB
S315080063F00427052731051BD553A3D3E900235046A7
S3150800640059464DF07DFC00287FD051A3D3E90023DF
S31508006410504659464DF060FC002876D00027A54224
S31508006420C6BF2C1B04F1FF3500253C4646F48066A2
S315080064300E9B9F422CBF4FF00008A3EB070816F0EF
S31508006440020903D0002F18BF4FF000083CB1DDE960
S315080064500C23504659464DF0F7FA82468B46DDE93D
S315080064600601002200234DF037FC10B10BF1004362
S315080064709B46DDE9080126F40063CDE90183DDE9E1
S315080064800A324BEC10AB009500F07EF802465FB37B
S31508006490DDE9091316F0200F00F10105089E0CBF6F
S315080064A065204520B047DDE908010523002205934C
S315080064B00A23002CCDE9023207F1FF374FEAD473DD
S315080064C0B8BF64422A46019304970A9B009458F081
S315080064D01AFA0246B9F1000F06D00B9BC41A0B9B99
S315080064E01A190E9BA34245D8104613B0BDE8F08F83
S315080064F0DDE906ABCDE60022404649461A4B4DF08B
S31508006500A3FA013CCDE90C016EE7002D90D00F9B54
S31508006510002B8DD0013D8BE7FB799F501344D33F69
S31508006520B3C8608B288AC63F61436F63A787D23F8B
S3150800653071A379094F930A401655B5BBB16B024052
S31508006540EF39FAFE422EE63F2D431CEBE2361A3FA0
S315080065500000000080842E41FFFFEF7F0000F83F17
S315080065600000E03F00002C400000244000001840D6
S315080065700000F03F2020DDE90913089DA8470134F3
S31508006580ADE700BF000000002DE9F04F97B05BECC7
S3150800659010ABDDE92057CDE90501CDE907235046C3
S315080065A052465B465946229E4DF08CFB70B9032332
S315080065B0CDE902760193B04B0093DDE90501DDE9EB
S315080065C0072358F0C0F817B0BDE8F08F4FF0FF3238
S315080065D06FF48013504659464DF07EFB28B10423CC
S315080065E0CDE902760193A54BE6E74FF0FF32504618
S315080065F05946A34B4DF08EFB68B1A24A06F0040338
S31508006600002B08BF0322A04B1CBF13460422CDE96A
S3150800661002760192D0E7504693A3D3E90023594660
S315080066204DF078FB38B992A3D3E900235046594672
S315080066304DF052FB68B1DDE90723DDE905014BECB6
S3150800664010ABCDE92176209517B0BDE8F04FFFF7DE
S31508006650DFBD00220023504659464DF03DFB002879
S3150800666000F09A805B465246002000214CF00AFF53
S31508006670012382468B46099316F4806400F08E80C7
S31508006680092D40F28E80002430210EABA5F10902B7
S315080066900134202C03F8011BA5EB040901D0944210
S315080066A0F6D1594650464DF03FFB784B054603EB6D
S315080066B0C90393ED007B8DED0A7B4DF031F8024658
S315080066C00B46504659464CF0DDFEDDE90A234DF0EF
S315080066D091F802460B46CDE90C234DF04DFB80465A
S315080066E04DF00EF802460B46DDE90C014CF0CAFEE9
S315080066F002460B46CDE90C230022654B4DF00AFBFA
S31508006700002851D008F1010840464CF0F9FF02462E
S315080067100B46DDE90A014DF0E9FA10B14FF0000821
S315080067200135B9F1000F50D128464CF0F9FF024661
S315080067300B46504659464CF0A5FE0022544B80465F
S3150800674089464DF0C9FA30B1002240464946504BB9
S315080067504DF0E0FA10B1E80700D501350A210EAB75
S315080067601A19202C0AD095FBF1F001FB105530358B
S3150800677002F8015B013405460028F2D106F003024F
S31508006780012A57D1002F55D0099A12B916F00C0FC5
S3150800679000D0013F302245E009906DE74FF0060929
S315080067A07FE7A94600247CE70022DDE90C01384B87
S315080067B04DF092FA0028B4D1B8F1000F02D018F0C3
S315080067C0010FAED008F10108ABE70A210EAB23444E
S315080067D0202C0ED0B8FBF1F001FB1082B8F1090F9E
S315080067E002F1300209F1FF3904F1010403F8012B23
S315080067F011D83021A1440EAA202CAFD0A14504F10E
S3150800680001030AD11C4609F158030DEB03092E238F
S3150800681009F8203CA2E78046DAE7A1541C46EBE7D4
S315080068201A550134A74205D9202CF9D1CDE90276AB
S315080068300194C1E6202CF9D0099A3AB12D2104F128
S3150800684058026A4402F8201C0134EFE7710704D5A0
S3150800685004F158022B216A44F4E73207E6D504F11D
S31508006860580220216A44EDE70000000065CDCD41BD
S315080068700000000065CDCDC1C3590708C7590708F0
S31508006880FFFFEF7FBA590708BF590708D05907080D
S315080068900000E03F0000000070B5A8B02C220021DF
S315080068A01DA869F0CDFB4FF002331F9340F20B137E
S315080068B0814D14ACADF89C300FCD0FC40FCD0FC46D
S315080068C02B687E4923607E4B7E4807930023CDE9DB
S315080068D008330A9320F0BCF87B4D286000285BD06B
S315080068E0012159F0B0F920B140F2F531774821F08D
S315080068F067FB286858F034FE754E3070286858F0E3
S3150800690031FE744B74491870286820F01BFC044645
S3150800691000283BD13378714E5BB9714824F05AFB95
S31508006920306010BB4FF485616E4B6F4A67484DF077
S3150800693081FD6E4824F04EFB30600028EDD02246DB
S31508006940C189286820F020F901220321286859F016
S315080069508DF933682146586824F076FB0446A8B9B1
S315080069605F4824F037FB3060C0B1C189002228682F
S3150800697020F00AF901220321286859F077F93368CB
S315080069800421586824F060FB044638B123462221C6
S315080069900220574A59F029FC28B070BD07F02CFD93
S315080069A0544A04ABCDE904010393A2F1080113F894
S315080069B0010B02F8010D9142F9D10622FF210BA81D
S315080069C069F03EFB0622FF210DF1320069F038FB23
S315080069D0182200210EA869F033FB08220EA903A885
S315080069E069F0A1FB41F234231C22002120A8ADF84E
S315080069F02C3069F025FB28681DA920F095FD044672
S31508006A000028C3D13C49286859F0C3F90446002830
S31508006A10BCD13A49286859F0A6F904460028B5D1E8
S31508006A203749286820F03CF904460028AED120A34F
S31508006A30D3E90023CDE90023286859F0ACF90446C8
S31508006A400028A3D12F4A3049286859F0E4F90446AA
S31508006A5000289BD1012020F047F800289CD0A023CD
S31508006A602A4A07A8D3802A4A136007F03BFE294B17
S31508006A70186020B940F27141274B1B4A56E7274A4E
S31508006A802749284825F00CFE264843F0F1F9214607
S31508006A90254814AA07F0DAFE244B186000287FF46C
S31508006AA07BAF40F27D41224B0F4A3FE7AFF30080B0
S31508006AB0488D01C103400000B8D2070819AF020883
S31508006AC0B4C90708BC130020D86D0020D4C4070831
S31508006AD025BA002024BA002007001100905D002086
S31508006AE0AF100608C9C90708A5D1070899100608EE
S31508006AF017CA07082EBA0020B6D20708B4D2070864
S31508006B00DC6D0020CC150020D05D0020DC130020B1
S31508006B102C6E00203C6E0020E1C90708FDC9070855
S31508006B2029B20208F86D00208DBE0208446E0020C6
S31508006B3006CA0708000000002DE9F7430546604C21
S31508006B40222110205F4A59F050FB18222946204678
S31508006B5069F0E9FAA27B5C4BDFF8B0911A70E37C26
S31508006B60002289F800300023CDE90023574D002282
S31508006B704FF40073286859F00EF918B1012003B0D4
S31508006B80BDE8F083524B534E1B787BB9524824F02C
S31508006B9021FA04463460F4B90220504A222159F0F9
S31508006BA024FB01224E4B21201A70E8E74D4B4E4C30
S31508006BB01A884E4B286853F822104D4A8B68216074
S31508006BC0336020F049FA22684A4B946824221B88CD
S31508006BD002FB0344DEE7484B1C60434BD3F80080B6
S31508006BE0B8F1000F07D000232420D8F80C108B42E8
S31508006BF008D1002727E040F2AA61404B404A4148A5
S31508006C004DF018FCD8F8087000FB0377FA6952783B
S31508006C10120912F00E0F45D0052A43D80022F98929
S31508006C20286837601FF0B0FF01220321286859F051
S31508006C301DF833680021586824F006FA324B93F998
S31508006C40000024F039FA1CA3D3E90023CDE9002378
S31508006C50286859F0A0F8D8F80830BB4214D0D9896A
S31508006C600022286833601FF08FFF0122032128685D
S31508006C7058F0FCFF33680421586824F0E5F9224BE4
S31508006C8093F9000024F018FA99F8003034601B09CB
S31508006C9013F00E0F08D024F02DFF012024F07EFCFF
S31508006CA000206CE70133A2E701220721286859F082
S31508006CB066F90028EFD061E7488D01C1034200005C
S31508006CC0945D00204CCC07081BBA0020D86D002024
S31508006CD01FBA0020905D002031B1020868CC070871
S31508006CE01CBA002046750020845D0020481000204C
S31508006CF0A1B10208447500208C5D0020A4CC0708C9
S31508006D0053D00708D4C40708E41700201ABA00208D
S31508006D100348044B834202D0034B03B1184770471C
S31508006D20602200206022002000000000064B074970
S31508006D30C91A891048BF0131491003D0044B0BB159
S31508006D4001481847704700BF6022002060220020D3
S31508006D500000000010B5064C237843B9FFF7D8FFAA
S31508006D60044B13B10448AFF300800123237010BD10
S31508006D7064750020000000001083080808B5054B5C
S31508006D801BB105490548AFF30080BDE80840FFF789
S31508006D90CDBF00BF0000000018410020108308087E
S31508006DA0A3F5803A704700BF174B002B08BF134B5B
S31508006DB09D46FFF7F5FF00218B460F461348144AF8
S31508006DC0121A69F03DF90E4B002B00D098470D4B6F
S31508006DD0002B00D098470020002104000D000D4824
S31508006DE0002802D00C48AFF300804DF0E1FF2000E8
S31508006DF029004EF0D1FE4DF043FB00BF000008000D
S31508006E0000000000000000000010002060220020A2
S31508006E1078C20020000000000000000008B51248F3
S31508006E2016F040FF01213A2005F0D0FF0123032286
S31508006E301946184606F08EFF0C4B5B6F9B0707D466
S31508006E40012304220221184606F084FF00BE08BD6D
S31508006E50002301211A46084606F07CFFBDE80840D3
S31508006E6000213A2005F0B2BFA007070800C003506A
S31508006E70094B0A4AD3F82034C2F820349A0703D5B6
S31508006E800422074B1A6770471B0741BF054A136858
S31508006E9001331360704700BF00C0035000E0035081
S31508006EA000F0035070410020094B0A4AD3F82034F9
S31508006EB0C2F820341A0704D5074A13680133136049
S31508006EC070479B0742BF0422044B1A67704700BFEE
S31508006ED000C0035000E003507041002000F003504A
S31508006EE008B501F07BFF0022084BC3E90001084BF7
S31508006EF0C3E90001074B08491A8000220023C1E9AB
S31508006F0000230649C1E9002308BD00BFD822002096
S31508006F10D0220020C8740020C8220020C0220020E9
S31508006F202DE9F0439BB000AF00230446F81CC7E9DF
S31508006F30013359F0C4FA18B181B2184816F0B2FEF6
S31508006F406A46FB78F81CA2EBC3039D466946E846E9
S31508006F5059F0CAFA18B181B2114816F0A3FE0026F4
S31508006F60FB78F5B2AB4210D908EBC509484607F1DC
S31508006F700C0159F0D2FAFB6A0136002BF0D158F809
S31508006F803500D9F804103B1D03C33B1D03CB206015
S31508006F9020466C376160BD46BDE8F083AC0707083C
S31508006FA0E507070813B56846FFF7BAFF064C009BC6
S31508006FB006492360019B06486360E379A27902B01B
S31508006FC0BDE8104016F082BE157E00201908070895
S31508006FD0D686002030B595B04EF0D7FD0FAD0246E7
S31508006FE01549284616F072FEFFF7DCFF134B144CC2
S31508006FF0D3E90A01CDE90C01D3E90801CDE90A0173
S31508007000D3E90601CDE90801D3E90401CDE9060172
S31508007010D3E90223CDE904230A4B4FF48061019397
S31508007020094B20460093094A094B029516F062FE61
S31508007030204615B030BD00BF67DC07086022002077
S3150800704025820020D6860020A408070830080708ED
S31508007050DE8600202DE9F04FA3B080464EF095FD60
S315080070600EAF02466149384616F030FEFFF79AFF22
S315080070705F4BDFF8AC911B78052B63D101F0AEFEB0
S315080070805C4A0DF1600AD2E90045041B61EB05056F
S315080070902946204601F07CFE5449024613A816F0FC
S315080070A015FED9E90001201845EB010101F070FE33
S315080070B0514E02464D49504616F008FED6E90001E3
S315080070C001F066FE0DF1740B02464849584616F063
S315080070D0FDFDD9E90032E41845EB020520462946AC
S315080070E0CDE90AAB4CF050FB0022444B4CF082FB36
S315080070F082468B46D6E90001201845EB01014CF083
S3150800710043FB0B460246594650464CF09DFCCDE9DA
S3150800711008013B4B1B8806933A4B059313ABCDE905
S315080071200373394B4FF480610293384B384A019305
S31508007130384B39480093434616F0DCFD364823B0F1
S31508007140BDE8F08F01F04AFE344ADFF8ACA0D2E978
S315080071500056451B61EB06063146284601F018FE27
S315080071602249024613A816F0B1FDD9E9000101F03B
S315080071700FFE0DF1600B02461C49584616F0A6FD97
S31508007180DAE90001281846EB010101F001FE1DAB02
S3150800719002461649184616F099FDD9E900491DAB6D
S315080071A020464946CDE90AB34CF0EEFA0022134BC5
S315080071B04CF020FBCDE90C01DAE90031E41849EB83
S315080071C00101601946EB01014CF0DEFA0B46024656
S315080071D0DDE90C014CF038FCCDE90801084B1B88A9
S315080071E0069313AB0593074B99E700BF67DC0708BF
S315080071F025860020D8220020C02200200000594001
S31508007200C87400207E090708D6860020A408070847
S31508007210A9080708DE86002025820020D022002043
S31508007220C822002037B56049012059F064F80546A0
S315080072305E495D4804F0AAFA5D4C002D00F09C807A
S315080072404FF480615B4A206816F054FD4EF09DFCB1
S31508007250236802465849002057F075FC4EF095FC05
S3150800726022680146544816F01DFD4FF48061534AC2
S31508007270ABB2206816F03EFD0020216857F063FC8B
S31508007280206816F00FFD4FF480614D4B4D4A20687B
S3150800729016F030FD4EF079FC236802464649002078
S315080072A057F051FC4EF071FC22680146424816F030
S315080072B0F9FC434868F044FF434A014640484FF00A
S315080072C048FB4249404804F061FA414B4FF480615B
S315080072D05B88404A009320683C4B16F00BFD4EF045
S315080072E054FC236802463449002057F02CFC4EF023
S315080072F04CFC22680146304816F0D4FC4FF48061F5
S31508007300354B364A206816F0F5FC4EF03EFC2368ED
S3150800731002462949002057F016FC4EF036FC226832
S315080073200146254816F0BEFC2B4868F009FF2C4A92
S31508007330014629484FF00DFB2A49294804F026FA48
S31508007340294B4FF480615B88284A00932068254BB7
S3150800735016F0D0FC4EF019FC2368024616490020A8
S3150800736057F0F1FB4EF011FC22680146124816F060
S3150800737099FC284603B030BD4FF480610B4B1C4A7C
S31508007380206816F0B7FC4EF000FC236802460A494E
S31508007390284657F0D8FB4EF0F8FB22680146064807
S315080073A016F080FC6FE700BF057E0020DD7D00201B
S315080073B098410020485107088109070889090708E4
S315080073C0E9090708F60907085C4100208D7D0020B9
S315080073D054410020110A0708380A0708450A070811
S315080073E040410020657D002038410020610A0708D9
S315080073F0C609070870B5FFF715FF0322022100200A
S3150800740058F000FF4D4A411C03464D4C106023D1ED
S315080074104FF480614B4A206816F06CFC4EF0B5FBC1
S31508007420236802464849002057F08DFB4EF0ADFB15
S3150800743022680146444816F035FC444A4FF48061F8
S31508007440206816F057FC2168002057F07CFB20685E
S3150800745016F028FC012070BD4FF480613C4A206874
S3150800746016F048FC4EF091FB236802463649002088
S3150800747057F069FB4EF089FB22680146324816F040
S3150800748011FC344B344A02211A600020032258F0BA
S31508007490B9FE324D421C0346286016D14FF480616E
S315080074A0284A206816F026FC4EF06FFB2368024631
S315080074B02549002057F047FB4EF067FB2268014636
S315080074C0214816F0EFFB264AB8E74FF48061254AB3
S315080074D0206816F00FFC4EF058FB236802461A493E
S315080074E0002057F030FB4EF050FB22680146164844
S315080074F016F0D8FB1C4E1D4C1D4B23602B683546D9
S3150800750045F8043B0FCC0FC594E8070041F2030386
S3150800751085E8070073843223736242F22A331548DA
S315080075204FF48C71338570634FF049FC70850020E9
S31508007530306386F82000F0638DE700BF34410020F1
S31508007540984100204851070881090708880A070852
S31508007550BE0A0708544100200000D5043041002027
S31508007560EF0A0708260B07080810002038410020F4
S3150800757000003516570B070873B52F4D4FF48C715D
S31508007580A8634FF01CFCA88505F120004FF033F8DE
S3150800759006464FF019F80446E8B9284D009640F219
S315080075A073334FF48061264A286816F0A3FB4EF021
S315080075B0ECFA2B6802462349204657F0C4FA4EF0E7
S315080075C0E4FA2A6801461F4816F06CFB40F2753546
S315080075D0284602B070BD05F120014FF00EF80028CC
S315080075E01CDA164D4FF45E734FF48061164A28680C
S315080075F016F080FB4EF0C9FA124902462B680020A5
S3150800760057F0A1FA4EF0C1FA2A6801460D4816F05D
S3150800761049FB002520464EF0E3FFD9E71C230193DA
S315080076200A4B3246009321460023286820F0FEFBC9
S315080076300130EED13125EDE70810002098410020F1
S315080076406A0B070881090708AA0B070838410020B2
S315080076502DE9F04385B005461C469DF830609DF837
S315080076603470002A00F08F80002978D04EF08DFA09
S315080076700146714816F016FB284616F013FB002C37
S3150800768040F09A800124002E3CD02B464FF48061AE
S315080076906A4A6B4816F02EFB1C230193694BDFF8E8
S315080076A0D091009386B2002332466549D9F8000086
S315080076B020F0BCFB013040F0838040F2D5430293B2
S315080076C0614B03960193D9F80030DFF88C8100935B
S315080076D04FF4806140F2A7335C4AD8F8000016F0F0
S315080076E009FB4EF052FA5A490246D8F800300020F3
S315080076F057F029FA4EF049FAD8F8002001465448BE
S3150800770016F0D0FA3FB32B464FF480614B4A5148E6
S3150800771016F0F0FA83B2B3F58C7F54D94FF48C7314
S315080077204D4D80B2019300904FF46C734FF4806115
S315080077304A4A286816F0DEFA4EF027FA4449024605
S315080077402B68002057F0FFF94EF01FFA2A68014609
S315080077503F4816F0A7FA204605B0BDE8F08316F0B4
S31508007760A1FA002C8ED00124DFF8EC802A464FF4CB
S315080077708061D8F8000016F0BDFAD8F8001000208D
S3150800778057F0E1F916E0002B3FF47DAFB1B114468E
S31508007790DFF8C4802A464FF48061D8F8000016F056
S315080077A0A9FA4EF0F2F9D8F8003002462849002026
S315080077B057F0C9F9013466E70124E9E70C46D3E72F
S315080077C00134E4B29EE72348FFF7D6FE064610B911
S315080077D00134E4B2BFE7204D4FF48061204A28689F
S315080077E016F088FA4EF0D1F92B680246184900209F
S315080077F057F0A9F94EF0C9F92A680146144816F057
S3150800780051FA41F235630293164BB6B20193164B01
S3150800781003961B68154A00934FF480614FF46D7305
S31508007820286816F067FA2968002057F08CF9286846
S3150800783016F038FA8FE700BFE40B070867DC07087D
S3150800784065790020544100208D7D0020EA0B070849
S31508007850810907086575002098410020490C07082A
S3150800786048510708657D002030410020B50C0708FF
S31508007870344100202DE9F04186B001F011FAFFF7F6
S31508007880CDFACC4816F00EFA01213A2005F09EFAF8
S315080078900123012519461846022206F05BFA2A46F4
S315080078A0294628460023CDE9005506F0F9F90321B3
S315080078B02B460846022206F04DFA032200231146FB
S315080078C01046CDE9005506F0EBF94FF00062BA4BC9
S315080078D0C3F880211A604FF08062C3F880211A60CD
S315080078E004222B462846022106F034FA03212B46A9
S315080078F00846042206F02EFAB04816F0D3F9B04E20
S315080079004EF01AF9AF4816F0CDF9AF4FAF4AB04965
S31508007910B048B14C16F0DAF964213046AF4BAC4AA0
S3150800792016F0E8F9019600974FF48061A94BAC4A26
S31508007930206816F0DFF94EF028F923680246A949AF
S31508007940002057F000F94EF020F922680146A548B4
S3150800795016F0A8F9A44B3221A44A0093A448A54BD3
S3150800796016F0C8F94FF480619A4BA34A206816F0BE
S31508007970C1F94EF00AF9236802469A49002057F0E1
S31508007980E2F84EF002F922680146964816F08AF99E
S315080079903B464FF48061984A206816F0ABF94EF0E2
S315080079A0F4F8236802468F49002057F0CCF84EF0C9
S315080079B0ECF8226801468B4816F074F933464FF402
S315080079C080618D4A206816F095F94EF0DEF8236836
S315080079D002468449002057F0B6F84EF0D6F82268D9
S315080079E00146804816F05EF94FF48061804B824A62
S315080079F0206816F07FF94EF0C8F8236802467949E0
S31508007A00002057F0A0F84EF0C0F8226801467548E5
S31508007A1016F048F92946042001F0F4F801F0C2FAF4
S31508007A20764BDFF818821E68304604F095FC744BD6
S31508007A301F68384604F090FC4FF47A704FF096FBB6
S31508007A40304604F09DFC384604F09AFC4FF47A70F0
S31508007A504FF08CFB304604F07FFC384604F07CFC83
S31508007A60684816F01FF92A460321222001F0F2F889
S31508007A702A4603211D2001F0EDF829464FF0B640AD
S31508007A804FF075F8604B4FF48061514A5F4816F025
S31508007A9031F94FF480615E4A206816F02BF94EF0F2
S31508007AA074F8236802464F49002057F04CF84EF008
S31508007AB06CF8226801464B4816F0F4F84FF48061DA
S31508007AC0544A206816F016F94EF05FF82368024605
S31508007AD04449002057F037F84EF057F82268014617
S31508007AE0404816F0DFF8404658F0D1FC98F80730C1
S31508007AF098F806204849494816F0E8F84FF4806196
S31508007B00464B474A206816F0F5F84EF03EF82368CB
S31508007B1002463449002057F016F84EF036F8226827
S31508007B200146304816F0BEF83E493F4816F0CEF8F2
S31508007B304FF480613C4B3D4A206816F0DBF84EF066
S31508007B4024F8236802462749002056F0FCFF4EF029
S31508007B501CF822680146234816F0A4F834498B20FD
S31508007B6002F02EFF01F03AF9324BDFF8D480C3E970
S31508007B70000158F07BFC4FF480612F4A206816F00C
S31508007B80B9F84EF002F8236802461649002056F066
S31508007B90DAFF4DF0FAFF22680146124816F082F81D
S31508007BA04EF064F82946022001F02CF8FFF722FC73
S31508007BB0452347E0200D070800E100E02A0D0708E5
S31508007BC07286002048510708660D0708A4080708AA
S31508007BD067DC0708E6860020984100203E0D070866
S31508007BE05C0D070881090708900D07087B0D070833
S31508007BF0408600206F0D0708E5090708402007089A
S31508007C0028200708990D0708104D0708257E00202B
S31508007C10A80D0708BF0D070819080708DE86002003
S31508007C20D90D0708E80D070827860020FB0D070869
S31508007C30697D0008E02200200B0E07081D7E002043
S31508007C4025860020344A3549354816F02BF802A90E
S31508007C50284658F050FB334816F024F802A803F0DB
S31508007C6007FE41F2336201462F4B304816F01AF8E8
S31508007C702F4816F017F802A803F0FAFD41F233620E
S31508007C800146294B2B4816F00DF80A212A4816F00A
S31508007C9009F841F23562294B29492A4816F002F8B3
S31508007CA0294815F0FFFF41F23562244B244927483D
S31508007CB015F0F8FF2649274800F04AFB2648FFF743
S31508007CC089F92B462A462946CDE90055FFF7C0FC17
S31508007CD0224D98F80030052B1CD1304604F028FBBD
S31508007CE0384604F025FB012429681D4815F0DAFFFB
S31508007CF01948FFF7AFF90123CDE900441A4619469A
S31508007D00FFF7A6FC4FF47A70164B1B8858434FF0C2
S31508007D102DFADEE70024E7E7E9090708250E070834
S31508007D20380E07087A0E0708940E07089D0E0708EE
S31508007D30E00E0708170F07084E0F07087F0F0708FA
S31508007D40380A07088F0F0708DD0F070818100708F5
S31508007D50B57D0020DD7D0020104D0708704100200C
S31508007D60732B0808541500202DE9FF478268BF4D7C
S31508007D70D2B2052A2A7000F27681BD4E33889A421D
S31508007D8000F07181BB4C00924FF48061BA4A2068BA
S31508007D9015F0B0FF4DF0F9FE23680246B7490020FA
S31508007DA056F0D1FE4DF0F1FE22680146B34815F0B3
S31508007DB079FF2F787B1E042B35D801F00FF8024681
S31508007DC00B46AF4901EBC707C7E900232B785F1EAF
S31508007DD051F8332001EBC70C01EBC30051F83710FB
S31508007DE04068DCF80470521A60EB0701A54800EBFE
S31508007DF0C30740F833207960CDE900214FF480614C
S31508007E00A14A206815F076FF4DF0BFFE9B49024651
S31508007E102368002056F097FE4DF0B7FE226801460B
S31508007E20964815F03FFF2B78052B7AD1944A974947
S31508007E30D2E90A3C0A88DFF87C92013292B2012A1A
S31508007E40C9E9003C2068924F0A8040F04181CDE99B
S31508007E50003C4FF480618F4A15F04CFF4DF095FEBB
S31508007E60236802468549002056F06DFE4DF08DFECA
S31508007E7022680146814815F015FF00231A46DFF8E7
S31508007E804482C7E90032404668F05AF9824B87B205
S31508007E9095F8009018804DF078FEC7F580614B463E
S31508007EA07E4A009008EB070015F024FF276895F82E
S31508007EB000804DF06AFE43464FF48061774A009091
S31508007EC0384615F017FF4DF060FE236802466B49E9
S31508007ED0002056F038FE4DF058FE226801466748E5
S31508007EE015F0E0FE02A8FFF71BF86D4F029B6D49DF
S31508007EF03B60039B6C487B60FB79BA7915F0E6FE1C
S31508007F006A4B1B684BB16A48FFF764F801231A46A7
S31508007F101946CDE90033FFF79BFB0121022000F04B
S31508007F2071FE3388052B40F09C80554F4FF00009B1
S31508007F30BA46B84600F052FF2A7809F101094A45BF
S31508007F40EAE80201F6DA0020DFF838C13B46B968EC
S31508007F50D3F80CE00130D3E90093B1EB09016EEBDD
S31508007F6003034CF8081F824207F10807CCF80430CF
S31508007F70ECDA08EBC20158F832304E4F4A68DFF89F
S31508007F804881D7E90001C8E900321B1A62EB0102F1
S31508007F90CDE900324FF48061474A206815F0AAFE01
S31508007FA04DF0F3FD236802463449002056F0CBFD18
S31508007FB04DF0EBFD22680146304815F073FED8E90E
S31508007FC00032DFF808C1DFF8FC80DCE900011B1885
S31508007FD042EB0102D7E900105B1A62EB0002404649
S31508007FE0CCE9003268F0ACF82B4B87B295F80090D4
S31508007FF018804DF0CAFDC7F580614B462F4A0090A0
S3150800800008EB070015F076FE276895F800804DF016
S31508008010BCFD43464FF48061284A0090384615F067
S3150800802069FE4DF0B2FD236802461449002056F059
S315080080308AFD4DF0AAFD22680146104815F032FE69
S315080080400121042000F0DEFD01220321222000F098
S3150800805001FE012203211D2000F0FCFD0122184B20
S315080080601A702B78338004B0BDE8F0872586002087
S31508008070C4740020984100204E100708810907089B
S31508008080902200206022002063100708C874002090
S31508008090C02200208C100708C6740020C9100708E3
S315080080A0157E002019080708D686002034410020CE
S315080080B0104D0708D8220020D4100708F110070829
S315080080C026860020257E0020D0220020C8220020F7
S315080080D0DFF85880D8E900125B1A6CEB0202CDE98A
S315080080E000324FF480610F4A15F004FE4DF04DFD45
S315080080F0236802460C49002056F025FD4DF045FD43
S3150800810022680146084815F0CDFDD7E90001D9E9EE
S3150800811000321B1842EB0102D8E900105B1A62EB29
S315080081200002ACE6AD10070881090708D022002036
S3150800813084B010B58EB010AC84E80F001A4C1B48FA
S31508008140216815F0AFFD2368194C0C939DF887300C
S315080081504FF480610B939DF884302046AE3B0A931A
S315080081609DF88530134AAE3B0993BDF87E300893D7
S31508008170BDF87C3007931D9B06931C9B05931B9BA0
S3150800818004931A9B0393199B0293189B01939DF8DA
S315080081909C300093289B15F0ADFD20460EB0BDE837
S315080081A0104004B0704700BF70410020FC1007085B
S315080081B025820020111107082DE9F04F83B000AF82
S315080081C00446F81D0E469146984658F078F918B1B7
S315080081D081B2224815F066FDFB7923B900200C37D9
S315080081E0BD46BDE8F08F6A46A2EBC3039D46F81D5F
S315080081F069466D4658F078F918B181B2184815F0F5
S3150800820051FDFB796CB130789842E7D2414605EBCF
S31508008210C00058F082F9337805EBC301CB798A7927
S3150800822015E0FB795FFA84FA5345D7D905EBCA0BF3
S315080082304146584658F071F9D8F820300134002BD9
S31508008240EFD19BF807309BF8062086F800A0484631
S31508008250044915F03BFD0120C1E700BFAC0707083C
S31508008260E50707081908070830B5AFB0104D17AC71
S3150800827023462A4600200DF15B01FFF79DFF0346C2
S3150800828070B19DF85B3049221BA968461393149573
S3150800829067F049FF94E80F00FFF74AFF2FB030BD9B
S315080082A04FF48061034A044815F024FD0248F5E7B7
S315080082B0EE860020F6110708258200202DE9F041F8
S315080082C0AEB016AF0446F81C58F0F9F818B181B2EA
S315080082D01A4815F0E7FCFB78A3422DD96A46A2EBAB
S315080082E0C3039D4616AD2946F81C58F0FDF818B18B
S315080082F081B2134815F0D6FCDFF850803E1D314692
S3150800830005EBC40005EBC40558F007F9EB79AA7923
S315080083100C49404615F0DAFC492207F11401684673
S31508008320CDE9134867F0FFFE96E80F00FFF700FF58
S315080083306037BD46BDE8F0810348F9E7AC07070892
S31508008340E507070819080708104D0708EE860020F4
S3150800835070B50D4604461A4E304615F0A3FC19486A
S3150800836015F0A0FC41F235622946174815F09AFC2B
S31508008370164815F097FC2146154815F093FC154844
S3150800838015F090FC2146144815F08CFC01F02EFFE0
S31508008390124815F087FC124815F084FC114815F0B0
S315080083A081FC114815F07EFC104815F07BFC10483E
S315080083B015F078FC3046BDE8704015F073BC00BF78
S315080083C048510708061207083A1207085B120708F9
S315080083D06C120708AC120708C0120708181307081A
S315080083E06E130708BE130708FA130708541407087C
S315080083F0AF14070830B587B004460C4B0C4D0493F0
S315080084000C4B4FF47A7103930B4B284602930B4B94
S315080084100B4A01930B4B00930B4B15F06BFC214653
S31508008420284607B0BDE830404DF091BB4086002095
S31508008430F38600207286002027860020660D07082E
S31508008440ED140708E6860020DE86002070B59AB08F
S3150800845004460DF1170058F032F800F0BFFC00F0A2
S3150800846097FC2821024606A815F044FC00F0B6FC45
S31508008470104A10AED2E90032C01A61EB020100F0D0
S3150800848087FC28210246304615F034FC9DF8173043
S31508008490094D0293094B0A4ACDE900634FF47A71F4
S315080084A006AB284615F026FC214628464DF04FFB1C
S315080084B01AB070BDD8220020F3860020D686002088
S315080084C06515070838B50446064D4FF47A712846EF
S315080084D0054B064A15F00EFC21462846BDE83840ED
S315080084E04DF035BBF3860020DE86002067DC0708E2
S315080084F038B50446064D4FF47A712846054B064AA8
S3150800850015F0F8FB21462846BDE838404DF01FBB5C
S31508008510F3860020E686002067DC070838B504469F
S31508008520064D4FF47A712846054B064A15F0E2FBCC
S3150800853021462846BDE838404DF009BBF3860020A1
S31508008540660D070867DC070838B50446064D4FF47C
S315080085507A712846054B064A15F0CCFB2146284673
S31508008560BDE838404DF0F3BAF38600202786002090
S3150800857067DC070810B59AB08389044653B300210F
S315080085808269D1548069154901AA4CF07DF9E0B198
S31508008590134901A867F0B5FD40B957F0CDFE57F06D
S315080085A065FF00F07DFF00201AB010BD0D4901A837
S315080085B067F0A7FD10B957F0BFFEF2E70A4A01AB0C
S315080085C04FF47A71094815F095FB214607484DF096
S315080085D0BEFAE9E7064B014AF2E700BF67DC07087F
S315080085E0BC150708C6150708D0150708F386002026
S315080085F07286002038B50446064D4FF47A7128462F
S31508008600054B064A15F076FB21462846BDE8384054
S315080086104DF09DBAF38600204086002067DC0708E7
S3150800862038B5044600F0DAFB00F0B2FB064D034607
S315080086304FF47A712846054A15F05CFB2146284610
S31508008640BDE838404DF083BAF386002067DC07089A
S3150800865038B50446074DFEF7A5FC4FF47A7128464F
S31508008660054B064A15F046FB21462846BDE8384024
S315080086704DF06DBAF3860020D686002067DC070821
S3150800868013B50023019383890446B3B10F49806962
S3150800869001AA4CF0F9F880B19DF80400FFF70EFE28
S315080086A003460B4A4FF47A710A4815F023FB214614
S315080086B008484DF04CFA02B010BD0DF1030057F012
S315080086C0FEFE9DF80330044AECE700BF732B08084A
S315080086D067DC0708F3860020E515070837B500228A
S315080086E0838904460C4D01924BB18169CA5480694D
S315080086F00A4901AA4CF0C8F808B1019B2B802B88BF
S31508008700074A4FF47A71074815F0F4FA21460548E6
S315080087104DF01DFA03B030BD54150020732B080820
S31508008720BD450808F386002013B500228389044650
S31508008730019273B18169CA5480690C4901AA4CF047
S31508008740A3F830B19DF80400094B0121187000F018
S3150800875059FA019B074A4FF47A71074815F0CAFA85
S31508008760214605484DF0F3F902B010BD732B0808F1
S3150800877052160020BD450808F386002008B58289F0
S315080087800AB9002008BD0549806967F06EFC002813
S31508008790F7D1FEF7A5FB0120F4E700BFF815070897
S315080087A02DE9F04FA7B0834600F018FB3F4D404C2B
S315080087B0D5E90032D4E900679B1B62EB070218185B
S315080087C042EB010100F0E4FA0DF14809394F02467F
S315080087D02821484615F08EFAD7E9000100F0D8FAA4
S315080087E00DF1700A02462821504615F083FA00F06A
S315080087F0F5FAD5E900322668DFF8CC809B1B666857
S3150800880062EB0602181842EB01014AF0BDFF00228E
S31508008810294B4AF0EFFFCDE9100100F0DFFAD5E960
S315080088200032D7E900575B1942EB0702D4E9005436
S315080088305B1B62EB0402181842EB01014AF0A4FF25
S3150800884002460B46DDE910014BF0FEF84BF0B4FA90
S315080088504AF078FFCDE90B9ACDE90E01174B1B8834
S315080088600A93174BD3E90A01CDE90801D3E90801B0
S31508008870CDE90601D3E90601CDE90401D3E90401EE
S31508008880CDE902014FF47A71D3E902234046CDE9D6
S3150800889000230C4A15F02EFA5846FFF76FFF594683
S315080088A040464DF054F927B0BDE8F08FC8220020A5
S315080088B0D8220020C022002000005940C874002099
S315080088C060220020FE150708F38600202DE9F041F6
S315080088D086B000230125039305938A4B8A4E8B4C59
S315080088E000938B4B68460196029404938DF80C50BE
S315080088F001F02CFC30B14FF42D71864B864A87481F
S315080089004BF098FD864B6846CDE90036854B0294B8
S3150800891004938DF80C5001F019FC20B140F2BD21EA
S315080089207C4B7D4AEBE7804B804F0093804B684633
S31508008930CDE9017404938DF80C5001F007FC20B1C1
S3150800894040F2C521734B744AD9E77A4B6846CDE99C
S315080089500037794B029404938DF80C5001F0F6FB1E
S3150800896020B140F2CD216B4B6B4AC8E7734B684682
S315080089700093734B8DF80C50CDE90134714B049379
S3150800898001F0E4FB20B140F2D521624B624AB6E71A
S315080089906D4BDFF8188200936C4B6846CDE901846D
S315080089A004938DF80C5001F0D1FB20B140F2DD2183
S315080089B0584B594AA3E7664B6846CDE90038654BDC
S315080089C0029404938DF80C5001F0C0FB20B140F2DC
S315080089D0E521504B504A92E75F4B6846CDE900388F
S315080089E05E4B029404938DF80C5001F0AFFB20B156
S315080089F040F2ED21474B484A81E7594B6846CDE995
S31508008A000036584B029404938DF80C5001F09EFBE7
S31508008A1020B140F2F5213F4B3F4A70E7524B68467A
S31508008A200093524B8DF80C50CDE90134504B04930A
S31508008A3001F08CFB20B140F2FD21364B364A5EE749
S31508008A4001254C4B6846CDE900374B4B02940493FD
S31508008A508DF80C5001F07AFB20B140F205312D4B10
S31508008A602D4A4CE7454B6846CDE90036444B0294FF
S31508008A7004938DF80C5001F069FB20B140F20D31DA
S31508008A80244B254A3BE73F4B6846CDE900363E4B2B
S31508008A90029404938DF80C5001F058FB20B140F273
S31508008AA052311C4B1C4A2AE7384B394C0093394B38
S31508008AB068460193384B029404938DF80C5001F0E4
S31508008AC045FB20B14FF46371124B134A17E7334B3A
S31508008AD068460093324B8DF80C50CDE90134314B82
S31508008AE0049301F033FB20B14FF46571094B0A4A30
S31508008AF005E71E220F212C4815F0D4F80F2006B0E2
S31508008B00BDE8F0819D160708A7160708AC160708E2
S31508008B10F5830008B116070826180708F11607088E
S31508008B20FF160708795B05080517070812170708CF
S31508008B30C584000816170708F184000821170708D6
S31508008B402D1707081D8500083117070849850008ED
S31508008B50431707087585000855170708F58500089F
S31508008B60631707084D8400086F1707087F1707085B
S31508008B7021860008841707085186000893170708F6
S31508008B8081860008A4170708A1870008B8170708F0
S31508008B90D0170708CC170708DD860008D917070875
S31508008BA0FEB3070829870008EF170708C66F0808E5
S31508008BB000B58BB0FFF78AFE2022002102A867F0D5
S31508008BC03FFA0B4B41F28832019318230021CDE975
S31508008BD00623084801AA05F039FE28B95721064B8D
S31508008BE0064A07484BF026FC0BB05DF804FB00BFAD
S31508008BF03E18070875780008471807086818070810
S31508008C005A1807082DE9F04107468020884650F093
S31508008C105BFE00240546431C05F8144003F814704F
S31508008C200134232CF8D12946204657F066FA064621
S31508008C30B8F1000F05D003463A462146044815F018
S31508008C4031F8284650F05EFE3046BDE8F08100BF98
S31508008C5071180708F7B58DF804008DF80510054654
S31508008C600E46012001A9174657F047FA04462FB1C8
S31508008C70034632462946034815F014F8204603B041
S31508008C80F0BD00BF9C180708044AD2E90031013339
S31508008C9041F10001C2E90031704700BFE822002017
S31508008CA013B5174805F058FD164B186028B9672103
S31508008CB0154B164A16484BF0BDFB00200021154BF4
S31508008CC0154A1A60154BC3E900010BF069FC044606
S31508008CD030B10146124814F0E5FF204602B010BD37
S31508008CE00BF000FD23460146CDE900440D4A0E4827
S31508008CF050F06FFD04460028EFD001460B48EAE71E
S31508008D00301A070874410020C1180708091A07080D
S31508008D10DE18070898410020ED8A0020E822002086
S31508008D20F1180708898C0008784100201C190708E3
S31508008D302DE9F84316469946144A002305460C467B
S31508008D404BF0E8F9214630803C22284600234BF0B8
S31508008D50E1F9002380460F46164628464FF461621D
S31508008D6021464BF0D7F9182200234BF0D3F9404699
S31508008D7089F8002039463C2200234BF0CBF9089BA2
S31508008D8000201A70099B1E70BDE8F8838051010007
S31508008D9010B586B00DF11503019305AB00930DF1DF
S31508008DA016020DF11303FFF7C3FF9DF81530094CA2
S31508008DB002939DF81430122101939DF81330204632
S31508008DC00093054ABDF8163014F094FF204606B005
S31508008DD010BD00BFDB8A002053190708D0B50D4C1B
S31508008DE04FF0FF3120684EF08DFA28B14F210A4B1B
S31508008DF00A4A0B484BF01EFB0A4B2068D3E900676A
S31508008E004EF0B4FA18B15521074B084AF1E7304637
S31508008E103946D0BD7441002066190708EC190708C1
S31508008E20DE180708E8220020A2190708CF19070844
S31508008E3010B5274C04F08CFA04F024FC236F23F0B9
S31508008E40070343F0030323674EF06CF8214B002019
S31508008E509B6ADB015EBF4FF480321F4B9A62D4F8DF
S31508008E60203123F0070343F00203C4F82031D4F875
S31508008E70283123F0070343F00203C4F82831D4F855
S31508008E80403123F0030343F00203C4F84031D4F819
S31508008E90603123F0030343F00203C4F86031D4F8C9
S31508008EA0403223F0030343F00203C4F84032D4F8F7
S31508008EB0003223F0070343F00203C4F80032D4F863
S31508008EC0083223F0070343F00203C4F8083210BD42
S31508008ED0008000500040005A0060005A08B53A2049
S31508008EE0012103F073FFBDE80840014803F09AB971
S31508008EF05810002030B59DB0214D08AC0FCD0FC4D9
S31508008F0095E80F0084E80F002C22002111A867F0CD
S31508008F1097F81C4B4FF48014109301238DF84530B5
S31508008F205623129308231593092317930A230E220F
S31508008F3000210DF11200199367F082F8124B08AA66
S31508008F40CDE902430B238DF810300C238DF8113030
S31508008F500E4B02A905932023069340F20113ADF8A0
S31508008F601C300B4B0B48009310AB0AF043FF04462A
S31508008F7000214FF4E1304DF0D0FD20461DB030BD44
S31508008F80082007080000015B3C00015BED8E00200D
S31508008F909C4100205C420020014850F0C0BA00BF46
S31508008FA05C42002008B504484DF03BFFBDE8084088
S31508008FB002484DF036BF00BF4020070828200708A2
S31508008FC0F8B5022906460C46154604D1104B93F807
S31508008FD02330012B1BD02946204657F08CF907462B
S31508008FE0284602F045FC033C012C054604D947B146
S31508008FF03146084814F056FE2846BDE8F8404DF0BC
S3150800900034BD02463146044814F04CFEF4E7F8BD78
S315080090107C4200209D260708BD26070808B5074B91
S315080090204FF0FF3118684EF06DF930B140F2123149
S31508009030034B044A04484BF0FDF908BDB44200202E
S31508009040CA2607081D2B07080827070808B5064B70
S3150800905018684EF08BF930B14FF44671034B044A49
S3150800906004484BF0E7F908BDB44200206A27070810
S31508009070042B07080827070873B5002300220546AE
S31508009080CDE900230BF014FB6A460BF053FB00985E
S315080090902D4A0199D2E90232C01A61EB02012B4A24
S315080090A0CDE90001FDF770F8284802F009FC284BC5
S315080090B0002814BF06461E466B68002B41D1AC68D3
S315080090C014F001040DD00121224A2348FFF778FF46
S315080090D0204802F0CDFB3146044602461F4814F0EC
S315080090E0E1FDAB689A070DD503211D4A1D48FFF718
S315080090F067FF1B4802F0BCFB3146044602461A4885
S3150800910014F0D0FDAB685B070DD50421174A184843
S31508009110FFF756FF154802F0ABFB314604460246F8
S31508009120144814F0BFFD20464DF09FFC30464DF024
S315080091309CFC6A681AB11049104814F0B3FD02B0D5
S3150800914070BD0024EFE700BF00230020F0220020B6
S31508009150104D07081E8F002099270708A027070823
S315080091603E8F0020C0270708CC2707084E8F00200F
S31508009170F4270708FF270708FB2B070829280708ED
S31508009180F7B500220023CDE90023446805462CB133
S3150800919021462B4814F086FD03B0F0BD2146502227
S315080091A0284866F04DFF284814F07CFD0121274A1F
S315080091B02748FFF705FF2146224A2648FFF700FF02
S315080091C00221254A2548FFF7FBFE0321244A2548A4
S315080091D0FFF7F6FE244A04212448FFF7F1FE0BF0B8
S315080091E067FA6A460BF0A6FADDE90014204BD3E9C4
S315080091F008208A18D3E9027644EB0000D21B60EBFC
S315080092000600C3E908209A6AC3E900140132C3E9D3
S3150800921002149A62D3E90623891A64EB03044FF40D
S315080092207A73CDE900141348B1FBF3F114F03AFD53
S315080092306A68002AB0D01049104814F033FDABE72D
S31508009240432807080E8F0020652807081E8F002070
S3150800925099270708722807082E8F00207D280708F7
S315080092603E8F00208B2807084E8F00209A28070873
S3150800927000230020AB280708DE2B07082928070843
S31508009280F7B50023002205461248CDE9002314F05D
S3150800929009FD0BF00DFA6A460BF04CFADDE90010F1
S315080092A00D4BD3E904248A18D3E9067640EB040467
S315080092B0D21B64EB0604C3E90424C3E90010C3E91E
S315080092C006106A681AB10549054814F0EBFC03B0A4
S315080092D0F0BD00BFB428070800230020BE2B0708EE
S315080092E02928070810B50A490446A1F1280056F0AE
S315080092F0B9FF18B90749084814F0D4FC62682AB1BE
S31508009300BDE810400549064814F0CCBC10BD00BFA6
S31508009310A44200207C420020C42807089B2B07088B
S31508009320292807084168014814F0BCBCEB2807083F
S3150800933010B50B4B044680681870C0B202F0AEFA3E
S31508009340014618B1A268074814F0ACFC62682AB155
S31508009350BDE810400449054814F0A4BC10BD00BF80
S315080093600D8F0020172907087D2B070829280708CD
S3150800937042681AB10249034814F094BC704700BF0A
S31508009380642B07082928070808B5074805F0E4F9F3
S31508009390064B186030B94FF4BE71054B054A0648AE
S315080093A04BF048F808BD00BF342C0708B44200202B
S315080093B02F290708502B07080827070810B5FFF7B5
S315080093C02DFE034B1C78FFF741FE204610BD00BF5B
S315080093D00D8F0020074B93F82320012A07D193F815
S315080093E02430022B03D8044A52F823007047002081
S315080093F0704700BF7C420020F82A070810B50021F4
S31508009400214B13F8012B0AB989B203E00131B1F5F2
S31508009410006FF6D1013102201B4A89B256F09DFF32
S31508009420044628B9194B13F8012B3AB9A4B209E036
S315080094300146174814F036FC204610BD0134B4F531
S31508009440006FF0D10134A1B20620104A56F09CFFF5
S31508009450044628B90F4B13F8012B22B9A4B206E02B
S3150800946001460D48E6E70134B4F5006FF3D101343F
S31508009470A1B20120074A56F09EFF04460028DBD019
S3150800948001460648D6E700BF58200708D522070830
S315080094904E2907088825070884290708B9290708CF
S315080094A030B585B0002300228DF807300023CDE9BA
S315080094B00223FFF7B3FD38223C493D4866F033FEE8
S315080094C00DF1070056F0BEFF024618B139493A4871
S315080094D014F0E8FB9DF8073033B1384814F0E2FB86
S315080094E0FFF7B4FD05B030BD314C94F8210002F009
S315080094F0DBF9054694F8230057F02DF8014618B114
S315080095002F4814F0CFFBEBE794F82330012B06D154
S31508009510FFF760FF57F049F801460028F0D12846C2
S3150800952057F02CF8014640B1264814F0BBFB264AF2
S31508009530137843F004031370D2E794F9220056F027
S3150800954051FF014638B1214814F0ACFB1E4A137886
S3150800955043F00803EFE71E4857F040F8014608B104
S315080095601C48CEE7FFF74AFF0028B9D11A49A1F1EE
S31508009570280056F077FE014680B90BF099F802AA42
S315080095800BF0D8F8DDE90201144BC3E90001C3E981
S315080095900201C3E9060106491148B2E70A4A114819
S315080095A0137843F002031370ABE700BF442C070897
S315080095B07C420020362B070829280708EE290708C9
S315080095C0192A0708432A0708591600206E2A070889
S315080095D07D260708952A0708A442002000230020B4
S315080095E0C42A0708DB2A070808B50A204DF0BEFD7D
S315080095F0054814F057FB4CF032FB20B94FF47A704B
S315080096004DF0B4FDF7E708BD48510708402906D1D3
S31508009610C378202B08D005D813F0EF0F04D04FF0ED
S31508009620FF307047302BFAD18078A528F7D88728DD
S3150800963006D85F2802D013D804280AD80020704715
S31508009640094B7830C0B2C34003F00103013B58B25E
S315080096507047413804284FF0FF3098BF0020704704
S3150800966080F080000628F6E7B100003F2DE9F04FAC
S3150800967089B000260F46154604469846149B9DF861
S315080096804CA0CDE906320390059000EB0209079B32
S3150800969023B90795002E45D100264CE0BAF1080FEC
S315080096A0069B2CD1FF2B26D89D42059A23D31A4414
S315080096B0944220D84A451ED85A1C2146164405A865
S315080096C02A464CF0CBFE07900028E2D0059B1B7873
S315080096D01909DED12146069305A801234CF0BEFEE2
S315080096E007AB0790009322462B4605A906A84CF01F
S315080096F0C3FE0028CBD0002009B0BDE8F08FBAF130
S315080097000B0FCFD0BAF10F0FCCD0BAF1140FC9D0C6
S31508009710BAF1110F01D1022BC5E7BAF1040FC3D173
S31508009720082BC0E7013EB7D0FB68B0B29847C8F827
S3150800973000000028DFD0129BAAF1040A1E8001232C
S31508009740D8F800705FFA8AFBD8F80020B91AB14237
S3150800975001DA079909B90398CEE76BB901232349BA
S3150800976003FA0BF30B4204D113F0900F03D02F2307
S3150800977000E026233B700137DDF85090BA1A4A44B8
S31508009780B242B8DCA9450399B5D801EB09039C4256
S31508009790B1D862199342AED84A46384666F0C3FC39
S315080097A04B462A46214603A84CF058FE0346079026
S315080097B04F440398002B9FD003785FEA13199BD177
S315080097C00DF1480A4AF8083F2146012303A84CF040
S315080097D045FE07AB0790009322462B46504603A941
S315080097E04CF04AFE4B460028AED084E7012801001B
S315080097F02DE9F04F8BB081460F461D46164622B915
S31508009800002420460BB0BDE8F08F0329F8D90028BC
S31508009810F6D04CF079FE04460028F1D0327831466D
S3150800982022F03F032B70737802F03002C270837007
S3150800983073883A465BBA0381331D069306A800234C
S315080098404CF00CFE3278079002F00F022270CAB173
S31508009850082A6DD82369002B6AD19742069967D3DF
S315080098608B189E4264D8F019834261D848464CF05A
S315080098708BFE206100285BD03A463146237806A83D
S315080098804CF0ECFD4FF0000B069BDFF8BCA39B1BCE
S31508009890FB1A0793DDE90632002A00F0D0811A7810
S315080098A0FF2A0FD19A1BBA420ADA1A78FF2A3FD141
S315080098B001339E1BBF1BBFB2A781002F38D0A361FF
S315080098C0002336E002F00F03120931460893099285
S315080098D001233A4606A84CF0C1FD07AD07903B4662
S315080098E03246009506A909A84CF0C6FD00BB099B9F
S315080098F003EB0B081FFA88F8434519D8C34517D850
S315080099003B463246009506A908A8CDF824804CF0B7
S31508009910B3FD68B9B8F11C0F0DD8B8F1020F07D915
S315080099202AFA08F3DB070CD4DDE90725954215D991
S315080099300123637065E7B8F1230F02D0B8F13C0F35
S31508009940F6D1214648464CF0E9FD0028F0D0DDE97D
S315080099500725AA42ECD3B8F1230F4BD8B8F1020F6A
S31508009960E6D9A8F10303202BE2D801A151F823F088
S31508009970D39A0008A19A0008319900087D9B00082F
S31508009980279B0008019B00083199000831990008B7
S31508009990639B00081F9A000831990008459A000839
S315080099A09F9B000831990008F59B0008319900082B
S315080099B031990008499B0008319900083199000837
S315080099C0B19B0008319900083199000831990008BF
S315080099D0D39B0008179C00083199000831990008A4
S315080099E03199000831990008319900083199000821
S315080099F05D9A0008B8F13C0F9AD1042D98D8D4F88E
S31508009A001CB09BF80130002B92D1012329468BF814
S31508009A10013006A84CF014FDCBF8180009E0022D19
S31508009A2086D86368013383D1294606A84CF008FD19
S31508009A306060069B9B1B9F42FFF47AAFFB1AC346E6
S31508009A40079327E7042D3FF673AF294606A8D4F8EF
S31508009A501CB04CF0F5FCCBF81400EAE740F20943D9
S31508009A606A1E9A423FF664AFD4F81CB0DBF8303071
S31508009A70002B7FF45DAF2A4648460699ABF804509A
S31508009A804CF082FDE369CBF830001B6B002B3FF4EA
S31508009A904FAF2B463A46314606A84CF0DFFCC8E7DE
S31508009AA0E369596B00297FF443AF042101910DF155
S31508009AB0160100910698494602953433FFF7D6FDFC
S31508009AC0069000283FF434AFE369BDF816201A70F3
S31508009AD0AFE76B1EFE2B3FF62BAFD4F81CB0DBF8B6
S31508009AE03830002B7FF424AF2A4648460699ABF84F
S31508009AF006504CF049FDE369CBF838009B6BC5E787
S31508009B00E369D96B00297FF413AF0821019159182D
S31508009B10029500913C3349460698FFF7A7FD069043
S31508009B20002886D104E7022D3FF602AFD4F81CB010
S31508009B30DBF8203001337FF4FBAE294606A84CF04B
S31508009B407FFCCBF8200074E7E369196C00297FF4E1
S31508009B50EFAE1421019103F10A01029500914033F9
S31508009B60D9E76369002B7FF4E3AE0B23019304F175
S31508009B700A030093029504F11403CCE7022D3FF67D
S31508009B80D7AED4F81CB0DBF8243001337FF4D0AE5E
S31508009B90294606A84CF054FCCBF8240049E70F21C7
S31508009BA0E369019103F10C01029500914433B2E790
S31508009BB0032D3FF6BDAED4F81CB0DBF82C300133CC
S31508009BC07FF4B6AE294606A84CF03AFCCBF82C0032
S31508009BD02FE7032D3FF6ACAED4F81CB0DBF82830DF
S31508009BE001337FF4A5AE294606A84CF029FCCBF82C
S31508009BF028001EE7022D3FF69BAED4F81CB0DBF812
S31508009C00103001337FF494AE294606A84CF018FCB0
S31508009C10CBF810000DE7042D3FF68AAED4F81CB039
S31508009C209BF80230002B7FF483AE012329468BF87C
S31508009C30023006A84CF004FCCBF81C00F9E6002B11
S31508009C407FF430AE74E600BFD8C192182DE9F04112
S31508009C500E4617469846054628B121B11AB12C205A
S31508009C60A847044618B900242046BDE8F0812C22EE
S31508009C70002166F0E5F90123224623710023C4E991
S31508009C800467E560C4F8188042F81C3F226240F277
S31508009C90023222800A22A270014AA3621380E3E7F5
S31508009CA0CA74002008B504F0D5FC02280DD1074B6C
S31508009CB04FF0FF3118684DF025FB30B14FF4247191
S31508009CC0034B044A04484AF0B5FB08BDB8420020D5
S31508009CD0E82C0708B82E07081F2D070808B504F052
S31508009CE0B9FC02280BD1064B18684DF03FFB30B182
S31508009CF04FF42671034B044A04484AF09BFB08BDFF
S31508009D00B8420020792D07089E2E07081F2D070840
S31508009D102DE9F8430D4617460646D8B1D1B10024B9
S31508009D20DFF83480315D7FB1DFF83080DFF83090BE
S31508009D306F1EBC42ACBF40464846013413F0B2FF22
S31508009D40AC4207D0315DF4E74046013413F0AAFF70
S31508009D50A542E7D1BDE8F8831C5808081CCD0708BA
S31508009D60A12D0708F8B5044617480D46174604F00E
S31508009D70F3FC164B186028B99921154B154A164855
S31508009D804AF058FBFFF78EFF00F076FB134B144E94
S31508009D90002C08BF1C46134B1349002D08BF1D464F
S31508009DA012482B462246B1607060F46035613775FB
S31508009DB0FFF74CFF3060FFF791FF00F089F9BDE827
S31508009DC0F84000F0DFB800BFF42E0708B8420020BC
S31508009DD0A92D0708D22E07081F2D0708C1650508F3
S31508009DE0BC420020C5650508E1650508C965050882
S31508009DF038B504460D46FFF755FF064B21462A4659
S31508009E0053F8140CFFF7F4FC0446FFF767FF2046E7
S31508009E1038BD00BFD042002038B504460D46FFF7CE
S31508009E2041FF054B21462A4618684CF064F804465B
S31508009E30FFF754FF204638BDBC420020F8B50D4652
S31508009E400446002867D0FFF72DFF334813F02AFF92
S31508009E502178324813F026FF6178314813F022FF43
S31508009E60A178304813F01EFFE1782F4813F01AFF47
S31508009E7061682E4813F016FF21892D4813F012FF4A
S31508009E80A1892C4813F00EFF61892B4813F00AFFAD
S31508009E902A4813F007FF2178C9B9294813F002FFA9
S31508009EA0284813F0FFFE6189B9B9254813F0FAFE70
S31508009EB0254813F0F7FEA389ABB9244813F0F2FE40
S31508009EC0234813F0EFFEBDE8F840FFF707BF206907
S31508009ED02A46FFF71DFF1F48E0E760692A46FFF795
S31508009EE017FF1C48E2E761681B4F1C4E1C483229C5
S31508009EF014BF3946314613F0D5FEA189A0692A4612
S31508009F00FFF706FF61681648322914BF39463146FD
S31508009F1013F0C8FED4E7F8BDC12D0708C42D0708FD
S31508009F20D82D0708EE2D0708012E0708142E070856
S31508009F302D2E07083E2E0708542E07086B2E0708F5
S31508009F40972E0708782E0708882E0708962E0708E2
S31508009F50B91507089A2E0708862E070848510708D4
S31508009F6067DC070810B5044618B1806908B14CF0DB
S31508009F7037FB034B2146BDE8104018684CF0E5BA9C
S31508009F80BC42002007B50E4804F0E6FB0D4B1860EE
S31508009F9028B9B1210C4B0D4A0D484AF04BFA4FF43B
S31508009FA0F073302200930A210A4B0B484CF003FC4D
S31508009FB018B1B921094B054AEEE703B05DF804FB71
S31508009FC004300708CC440020982F0708E82F070814
S31508009FD0372F0708EC420020D4420020AC2F070890
S31508009FE070B50646074B1C6914B92546284670BD48
S31508009FF0256880223046296866F037F80028F5D0AB
S3150800A0006468F1E70845002008B504F023FB022838
S3150800A0100DD1074B4FF0FF3118684DF073F930B189
S3150800A02040F28B11034B044A04484AF003FA08BD70
S3150800A030C04A002014300708F032070854300708D1
S3150800A04008B5074B4FF0FF3118684DF05BF930B192
S3150800A0504FF4CD71034B044A04484AF0EBF908BDA6
S3150800A060C04A002014300708B032070854300708E1
S3150800A07008B504F0EFFA02280BD1064B18684DF024
S3150800A08075F930B140F29311034B044A04484AF07B
S3150800A090D1F908BDC04A0020B3300708CD320708F9
S3150800A0A05430070808B5064B18684DF05FF930B10B
S3150800A0B04FF4D071034B044A04484AF0BBF908BD73
S3150800A0C0C04A0020B33007089332070854300708FF
S3150800A0D007B5134804F040FB124B186028B9B6219F
S3150800A0E0114B124A12484AF0A5F94FF434731E214F
S3150800A0F0009318220F4B10484CF05DFB014618B12F
S3150800A100BE210E4B094AEDE70D4A0E4804F09EFBA8
S3150800A11018B9C3210C4B054AE4E703B05DF804FB04
S3150800A12088330708C04A0020E430070821330708A7
S3150800A13054300708F047002008450020AC2F0708D0
S3150800A1406433070855A200080531070838B50F4BD0
S3150800A15005461C69FFF758FF5CB90C484CF040FBF4
S3150800A16070B11822294665F0DEFFFFF781FF204609
S3150800A17009E0236880222968186865F076FF18B90F
S3150800A180FFF776FF012038BD6468E5E7084500203B
S3150800A1902DE9F041134B00241D69FFF735FF4FF4F5
S3150800A1A034720021104865F04BFF18260E4F3DB952
S3150800A1B0FFF75EFF0C48002C08BF2846BDE8F08173
S3150800A1C01D2C0DD806FB047818224046296865F030
S3150800A1D0AAFF24B1631E06FB0373C3F81480013477
S3150800A1E06D68E4E7084500202045002038B5084B8F
S3150800A1F0084D1C69FFF724FF1CB9BDE83840FFF776
S3150800A20051BF23682846196813F04CFD6468F3E7C4
S3150800A21008450020E5090708014813F043BD00BFBB
S3150800A22017310708014813F03DBD00BF463107083E
S3150800A230014813F037BD00BF7F310708014813F006
S3150800A24031BD00BFAD310708014813F02BBD00BF73
S3150800A250E03107082DE9F04F85B00026344635462B
S3150800A260DFF8F8B10396ADF80A604BF0F8FC20B9B0
S3150800A2704FF47A704CF07AFFF7E703220020714911
S3150800A28055F0C0FF431C074606D14FF4EE716E4BDE
S3150800A2906E4A6F484AF0CEF86E4BDFF8D0C103F12C
S3150800A2A0100E624618685968083303C27345944607
S3150800A2B0F7D11C22684B38466849CBF80030039220
S3150800A2C01DF088FD013028D0DFF8A4A1DFF8A481AD
S3150800A2D04BF0D3FC03ABCDE900A34FF48062002317
S3150800A2E0414638461DF0E6FD002840F39180414678
S3150800A2F080B2FFF77DFD05460028E9D0584813F0DF
S3150800A300D1FC00212846FFF799FDAB78013B032BCA
S3150800A31008D92846FFF780FFDAE740F2E711514BE4
S3150800A3204A4AB6E7FFF734FF29460DF10A0200F05C
S3150800A330E5F8064670B12A46BDF80A104CF0D3F97E
S3150800A3400446C0BB2846FFF70DFE2046FFF70AFE67
S3150800A35030461CE028464CF052F9814618B9284682
S3150800A360FFF760FFB4E7FFF73BFE044648464CF0AC
S3150800A37037F97CB123696BB1284698470446D0B9AA
S3150800A3802846FFF7EFFD2046FFF7ECFD20464CF088
S3150800A39027F99DE784212846FFF73EFD044650B974
S3150800A3A02846FFF7DFFD2046FFF7DCFD20464CF088
S3150800A3B017F926468CE720464CF01DF9B0F5806F54
S3150800A3C08146214603D92846FFF732FFBAE74046B9
S3150800A3D04CF013F9002804DA21462846FFF72EFF29
S3150800A3E0B0E7214813F05EFC00212046FFF726FD62
S3150800A3F0039B4A46CDE900A34146002338461DF093
S3150800A40015FD01309ED121462846FFF71DFF99E725
S3150800A41001307FF45DAF4BF022FC00287FF458AF83
S3150800A420384655F009FF4FF47A704CF09FFE2846DF
S3150800A430FFF798FD2046FFF795FD30464CF0D0F81B
S3150800A44013E700BF0200010012320708133307089A
S3150800A4505430070807A3070800003316EC44002009
S3150800A460473207082E3207086D320708F4440020E1
S3150800A470D04400205E8F002037B56C46204601F098
S3150800A4800BFE94E80300024D85E8030003B030BDD7
S3150800A490C44A002048B105490A68904205D349686C
S3150800A4A00A44904201D24FF02DBA7047C44A0020A0
S3150800A4B0012808D0022814BF022301232820034AB2
S3150800A4C000FB032070470023F8E700BFD8330708CE
S3150800A4D038B50D4609682C23074A0131044613F09E
S3150800A4E009FC031E06DB2A689A4203D3D21AE0182F
S3150800A4F02A6038BD0020FCE71C5808082DE9F04FF3
S3150800A50091B007460C460592002118220AA865F064
S3150800A51097FD27B90026304611B0BDE8F08F002C0C
S3150800A520F8D06389013B9BB27F2BF3D8A378012B24
S3150800A530F0D120464CF063F802900028EAD0802239
S3150800A540AE4965F092FDE3698146002B00F09580DF
S3150800A5505D6C1DB19D89003D18BF01253E46D6F8A4
S3150800A560008040464CF071F8834670B1DDF83CA097
S3150800A570BAF1000F40F084800C204CF025F820B189
S3150800A580C0E9008B0F90C0F808A07669002EE6D1C6
S3150800A590B9F1000F40F0DF80002D00F0D380E369A9
S3150800A5A09889013080B24CF00FF805460028B1D0E2
S3150800A5B0E369B1469A89596C65F0B5FDE36980216E
S3150800A5C09B892846EE544CF0FAFB8D4C8046A346F0
S3150800A5D0E169002975D0284665F078FD0A900028BB
S3150800A5E06FD0282303FB09B31C6A0D930444A542C4
S3150800A5F065D8A844444528BF0024802120460A94EB
S3150800A6004CF0DDFB0B90002864D101244FF00008C4
S3150800A6100220FFF74DFF03900320FFF749FFDDF8FF
S3150800A6203CA08146002840F0D1800027059BB8B29F
S3150800A63018809CB90746013080B24BF0C5FF0997D0
S3150800A640064658B1B8F1000F40F0418180460E9C8D
S3150800A650DFF8B0B1002C40F03E81F455BAF1000F96
S3150800A66040F05A810E98002840F05D8128464BF04C
S3150800A670B7FF02984BF0B4FF4DE71D466EE79A46C2
S3150800A680DAF804309B4511D0DAF80830002BF6D1F9
S3150800A6900C2003934BF098FF00283FF476AF039BFA
S3150800A6A0C0E9008B8360CAF808006EE75A4641463F
S3150800A6B0DAF8000065F09AFC0028E5D165E7002481
S3150800A6C09BE709F10109B9F1030F04F128047FF4A6
S3150800A6D07FAF9AE7002C98D0B94699F80C302BB181
S3150800A6E00D9B1B78022B09D0032B28D0D9F8149080
S3150800A6F0B9F1000FF1D14C46C84611E0D9F804006B
S3150800A7000028F3D080220A9965F0AFFC804600281D
S3150800A710ECD148460AA94BF0B0FF01280446E5D11A
S3150800A7200E9B002B7FF474AF012C3FF471AF3846B3
S3150800A7300AA94BF0C7FF4FF00108044668E7D9F8A5
S3150800A7400800DDE738460AA94BF0BCFF3546044643
S3150800A7504FF00108E4E7802102984CF030FB0446EC
S3150800A7600F9DB5B1D5F804904C452DD14A462968B8
S3150800A770029865F03BFC38BBB846D8F800004BF0A9
S3150800A78064FF98F80C3053B9D8F81480B8F1000F64
S3150800A790F3D10E9C0025B4FA84F4640936E78145A2
S3150800A7A0F2D16A68D8F80010286865F01FFC82465E
S3150800A7B00028E9D140460AA94BF05FFF0128044664
S3150800A7C0E2D15546D046ABE7AD68CAE7039B002BF6
S3150800A7D03FF42BAF0120FFF76BFE00283FF425AFAF
S3150800A7E0B8F1000F1BD14746DDF838B0BBF1000FB2
S3150800A7F018D1002F3FF419AF013F17E79833070820
S3150800A800D8330708B5330708036A42691344043383
S3150800A8103B444F6889681F440029F5D1E4E751464F
S3150800A8200027F9E78021DBF800004CF0C8FA039B03
S3150800A83080211A6A0490DBF8040007924CF0BFFAEC
S3150800A840D9F82010079A049B0A440932069017443F
S3150800A850DBF8080080211F444CF0B1FA069BDBF8B0
S3150800A86014B03B441F18C1E7D9F80400013080B280
S3150800A8704BF0AAFE044650B9002009A9FFF728FEA6
S3150800A8808046D9F80890B9F1000FEDD1DFE6D9E98D
S3150800A890001265F048FCD9F80420039BDDF824B0C3
S3150800A8A0A3540BF10101224A2346404613F022FA2B
S3150800A8B0049020464BF094FE049A002ADCDB93456C
S3150800A8C0DAD308EB0200ABEB02020992D5E7D146D0
S3150800A8D080460394D7E7A368DDF82490019363685C
S3150800A8E05A4600934046236809F1010113F002FA1B
S3150800A8F000280EDB81450CD38044A9EB00000990A3
S3150800A900636923B1404609A9FFF7E2FD80466469F9
S3150800A910A0E64FF00008F3E7DAF8084050464BF097
S3150800A9205FFEA2469AE644694BF05AFE20469AE62E
S3150800A930AA33070808B5074B4FF0FF3118684CF0E3
S3150800A940E1FC30B14FF48F71034B044A044849F0D7
S3150800A95071FD08BDCC4A0020B834070891350708B0
S3150800A9605034070808B5064B18684CF0FFFC30B1A0
S3150800A9704FF49271034B044A044849F05BFD08BD45
S3150800A980CC4A0020F8340708703507085034070801
S3150800A99008B5064803F0E0FE054B186028B9CA2139
S3150800A9A0044B054A054849F045FD08BDE03507084A
S3150800A9B0CC4A002029350708B0350708503407085F
S3150800A9C0F8B506460D46D9B103F044FE02280446FA
S3150800A9D001D1FFF7AFFF00230C200A4A00FB03F161
S3150800A9E08F18515CB14204D1BD60022C05D00020FD
S3150800A9F0F8BD01330E2BF1D1F7E7FFF7B3FFF6E702
S3150800AA000120F5E76C10002070B5837804467F3383
S3150800AA10DBB20F2B09D9FFF78DFFA1780C4813F08D
S3150800AA2041F9BDE87040FFF79DBF0A4AD656FFF7C1
S3150800AA3081FF731CF1D00C23074D204603FB0655F6
S3150800AA406B689847AB68002BEBD020469847E8E739
S3150800AA504A350708603507086C1000202DE9F047CD
S3150800AA60002407460E462546DFF84480DFF8449062
S3150800AA70DFF844A0A64204D8BDE8F0470B4813F017
S3150800AA8011B9731EA342395D06D1504613F00AF96F
S3150800AA90132D06D1002505E0122D05D8484613F0DA
S3150800AAA001F901350134E5E74046EFE74851070863
S3150800AAB001360708F8350708F035070813460A4629
S3150800AAC00168014813F0EEB80A36070838B50C468F
S3150800AAD015460168044813F0E5F829462046BDE8FE
S3150800AAE03840FFF7BBBF00BF24360708F8B5234F29
S3150800AAF0234E3A88C519BC1C52BAA54293B2328174
S3150800AB0001D80120F8BD013B042B29D8DFE803F062
S3150800AB1003031F2A2E004FF480711A48F4604CF084
S3150800AB204EF9431C2344BB42EBD39D42E9D9044466
S3150800AB3020464FF4807134614CF041F901300444E9
S3150800AB40BC42DED3A5428CBF00200120DAE77B8811
S3150800AB505BBAB3810C4B9D42D3D904383361B082BA
S3150800AB600020CFE77B885BBAB381F9E77B885BBABD
S3150800AB70B381054B9D42C4D93361F1E75E9300204A
S3150800AB80084B0020609300206293002073B52D4D7A
S3150800AB9006462C89631E012B13D84FF48071E8688A
S3150800ABA04CF00DF94FF48071044628694CF007F90A
S3150800ABB004440434A4B2A64213D20024204602B0A8
S3150800ABC070BD032C01D1AC8AF3E7042CF3D0052C15
S3150800ABD006D14FF4807128694CF0F1F8841CE9E736
S3150800ABE000242B8918485ABA02805A1E012A0CD802
S3150800ABF02B69164A019300230093EB68A11E0230C5
S3150800AC0013F078F80028D9DAD7E7032B08D1AB89EF
S3150800AC10AA8A5BBA43802969043065F084FACDE7CD
S3150800AC20042B03D1AB895BBA4380C7E7052BC5D193
S3150800AC30AB89074A5BBA4380211F2B69043013F09E
S3150800AC4059F8DFE7084B00205E9300202A360708EC
S3150800AC5067DC070808B52C2101200C4A03F0ACFE76
S3150800AC600B4B186030B94FF49C710A4B0A4A0B48D3
S3150800AC7049F0E0FB00210A4A0A4803F0E7FD20B93B
S3150800AC8040F23B11084B044AF1E708BD543807085F
S3150800AC90344B002031360708FB3707084C360708BF
S3150800ACA06C3807085DAD0008A43607082DE9F041A1
S3150800ACB00E4690461D460446069F10B90120BDE87B
S3150800ACC0F0810C4803F00EFDA0610028F6D00A4B6F
S3150800ACD00020002E08BF1E46084B2660002D08BF20
S3150800ACE01D46074BA4F80480002F08BF1F4665625F
S3150800ACF0A762E4E744380708B6360708CDAA00086D
S3150800AD00BDAA000801884B1E042B19D8DFE803F0FA
S3150800AD1003080C101400D0E901120A4812F0C2BF49
S3150800AD20D0E901120848F9E7828981880748F5E7DA
S3150800AD308188074812F0B6BF826881880548EDE722
S3150800AD400548F7E7B9360708F43607082F3707081E
S3150800AD506837070890370708CE3707082DE9F04FF8
S3150800AD6085B000238DF80F304BF0E1FCA0B1874C7D
S3150800AD706FF07F41A0694CF047FA85484FF0FF33E2
S3150800AD80214600680DF10F024CF0E0FB054640B184
S3150800AD9064204BF0CAFCF0E74FF47A704BF0C5FC20
S3150800ADA0E2E72789A069012F7CD139464CF0F3F9EF
S3150800ADB000F03CF9421C06460CD164204BF0B5FC69
S3150800ADC06FF07F41A0694CF01FFA0421A0694CF08E
S3150800ADD0E2F9DDE71C236F4AA18820684BF0BFFC27
S3150800ADE04FF40470FFF7D2FE6A4B02466A493046B2
S3150800ADF04BF0A1FCDFF89C91DFF89CA1DFF8A0B12D
S3150800AE0064204BF092FC4B464FF404725146304690
S3150800AE104BF09AFC002807DC44F61F6305F164082A
S3150800AE20984522D84546EBE780B2FFF75FFE804695
S3150800AE300028F1D12389032B1BD1636AA7891BB18B
S3150800AE402046A28A2169984704234FF40470238177
S3150800AE50A781FFF79BFE4B460246514630464BF00C
S3150800AE606AFCA38AB3F5007FDCD230464BF061FC5E
S3150800AE70A6E7052BD6D1A36A1BB120462269A1896C
S3150800AE80984704234FF404702381A781FFF77EFEB9
S3150800AE904B460246514630464BF04DFC5846FFF7A6
S3150800AEA031FFBFE7022F8BD139464CF074F900F019
S3150800AEB0BDF8431C074680D01C23384AA188206861
S3150800AEC04BF04DFC4FF40470FFF760FE2E46A84683
S3150800AED00246324B384630494BF02DFCD4E907A9D7
S3150800AEE04FEA592301339BB2DFF8ACB001936420D3
S3150800AEF04BF01BFC4FF4047259463846274B4BF06F
S3150800AF0023FC002807DC44F61F6308F1640898450B
S3150800AF10EDD93846AAE780B2FFF7E8FD0028F2D156
S3150800AF202389042B27D1B9F1000F02D1019BB34223
S3150800AF30EFD0A6890EB10AF5007AB9F5007F4B461F
S3150800AF4028BF4FF400734FF000080136B6B29DB221
S3150800AF50A9EB030903234FF404702381A681C4F8DF
S3150800AF6010A0A582FFF712FE594602460B4B38463B
S3150800AF704BF0E1FBBBE7052BECD1A36A002BC8D04D
S3150800AF802269A18901489847C3E700BF084B0020FA
S3150800AF90344B0020EC4A00205E930020D04A002063
S3150800AFA0104B002010B50C46014620B11AB113B15A
S3150800AFB0601E012804D9094812F074FE012010BD4C
S3150800AFC00748C1E9032300684FF0FF3300220C81CC
S3150800AFD04CF070FA003818BF0120F0E7E937070887
S3150800AFE0344B002010B501200D4955F084F930B1D5
S3150800AFF028220C490C4865F04AF80B4810BD28234E
S3150800B000094A07491CF0C8FF074C20B928222046E0
S3150800B010044965F03CF8002384F82730EDE700BFC3
S3150800B02096950020B63607086E9500200322002064
S3150800B030014955F0E7B800BF0200010030B5545881
S3150800B04055186B6804B1601843601C60014B535077
S3150800B0506B6030BDEFBEADDE08B54EF0DFFB034BCF
S3150800B0601B68C01ABDE8084009F042BBB84B00206F
S3150800B07070B58EB04FF4A0704BF0A6FA054618B915
S3150800B080002528460EB070BD1F4B18684CF0DAF83C
S3150800B090041EF5DBFFF7E0FF1C4B4EF66021B0FB04
S3150800B0A0F3F6C4F3C0120C92C4F380120B92C4F3E5
S3150800B0B040120A92C4F300120992C4F3C00208921D
S3150800B0C0C4F380020792C4F34002069204F0010218
S3150800B0D0CDE9044203FB16030D4A2846126800967A
S3150800B0E00392B3FBF1F201FB12334FF47A71B3FB0F
S3150800B0F0F1F3CDE90123074B4FF4A0711B68064A0B
S3150800B10012F0F8FDBDE700BFB04B002080EE360018
S3150800B110BC4B0020B44B00209038070873B5FFF7E6
S3150800B120A7FF284C4FF4A071A0634BF048FEA085FA
S3150800B13004F120004BF05FFA06464BF045FA054647
S3150800B14058B9FFF789FF01461F4812F0ABFD1F48A3
S3150800B15002B0BDE8704012F0A5BD04F120014BF025
S3150800B1604CFA00280DDAA06B4BF03AFA28464BF059
S3150800B17037FAFFF771FF0146134812F093FD14489A
S3150800B180E6E71C230193231D009332460023294634
S3150800B19020681CF04BFEFFF75FFF01460A4812F0D5
S3150800B1A081FD41F235620B4B0B490C4812F07AFDD2
S3150800B1B0A06B4BF015FA284602B0BDE870404BF07C
S3150800B1C00FBA00BF181100208C3907089F390708E5
S3150800B1D0C83907087F0F0708380A0708ED3907082E
S3150800B1E010B50446FFF738FF0146084812F05AFD25
S3150800B1F02146074812F056FD064B214618684BF0C3
S3150800B200CAFFBDE81040FFF789BF00BF8C390708A1
S3150800B210073A0708B04B002008B5114803F062FA50
S3150800B220104B186030B940F237110F4B0F4A1048CF
S3150800B23049F000F900210F4A0F4803F007FB20B92F
S3150800B2404FF49D710D4B094AF1E70D48FEF77EFF55
S3150800B25020B140F23B110B4B044AE8E708BD00BF9A
S3150800B260A83D0708B04B00201D3A0708643D0708AB
S3150800B270323A0708B83D07082DB40008923A07087D
S3150800B280903D0708A73A070838B50A4D28684BF0D5
S3150800B290D9FF041E0CDB14F0010407D1012128682C
S3150800B2A04BF079FF4EF0BAFA034B1860204638BDCA
S3150800B2B00124FBE7B04B0020B84B002038B5084DF9
S3150800B2C028684BF0BFFF041E08DB14F0100405D1F4
S3150800B2D0102128684BF05FFF204638BD0124FBE7A4
S3150800B2E0B04B002070B586210446FEF795FD05464D
S3150800B2F040B3A3785A1E012A3BD8A2690AB9022B81
S3150800B30020D01D4E336813B9FFF76CFE3060412319
S3150800B310AB7032236B60A378022B0BD1A289A1698B
S3150800B320164864F063FE78B94EF078FA144B186044
S3150800B330FFF7AAFFFFF79CFE4FF4A071A8614BF038
S3150800B3403EFDA881284670BDA289A1690D4864F012
S3150800B3504DFE10B9FFF7B2FFECE7A289A1690A48CA
S3150800B36064F044FE10B900F0CFFCE3E78023AB702D
S3150800B370E0E70025E6E700BFB44B0020D45A0808EA
S3150800B380B84B0020EB3A0708F03A070810B5064B09
S3150800B390044618684BF056FF0028AABFE040002074
S3150800B3A000F0010010BD00BFB04B002037B540F2D9
S3150800B3B0EA33984204460D4617D040F2EB339842DA
S3150800B3C021D040F2E93398420DD1FFF745FE0146F8
S3150800B3D0124812F067FC2B89214600931048D5E9DC
S3150800B3E0002312F05FFC03B030BDFFF735FE0146BF
S3150800B3F00A4812F057FC21462A680A4803B0BDE8F5
S3150800B400304012F04FBCFFF727FE0146034812F002
S3150800B41049FC21462A680448F0E700BF8C3907082A
S3150800B420F83A07083C3B0708623B07082DE9F7434B
S3150800B43003220020874954F0E5FE874C206001303E
S3150800B44006D14FF41871854B854A864848F0F2FFB5
S3150800B450854B0020854904F10C0263601CF080FDD1
S3150800B460013004D140F26521814B7D4AEDE741F276
S3150800B470030363843223636242F229337D484FF41F
S3150800B480A071238560634BF09AFC00237A4D608592
S3150800B4902846236384F82030E36300F01FFDEB6839
S3150800B4A0CBB1DFF81882DFF81892744C6FF07F4141
S3150800B4B0D8F800004BF0A8FE4FF0FF330222012116
S3150800B4C0D8F800004BF0C1FE002809DA4FF47A706C
S3150800B4D04BF04CFEEAE740F27721694B604AB4E745
S3150800B4E04EF09CF9C9F80000FFF7B6FD0146204664
